{
  "transactions": [
    {
      "hash": "0x7cd996853301580f7affdbb116e7dc355dbbed2058ee923403e63ab6022d4e90",
      "transactionType": "CALL",
      "contractName": null,
      "contractAddress": "0x14AeD33295C3ac9D8195295542914b8BB0977814",
      "function": "approve(address,uint256)",
      "arguments": [
        "0xc04E06bDb42ce32C87d28C604C908cAf65A662F2",
        "1000000000000000000"
      ],
      "transaction": {
        "type": "0x02",
        "from": "0x076c387afa6118085b5d8a71c4f699ba39661a7e",
        "to": "0x14aed33295c3ac9d8195295542914b8bb0977814",
        "gas": "0xfa15",
        "value": "0x0",
        "data": "0x095ea7b3000000000000000000000000c04e06bdb42ce32c87d28c604c908caf65a662f20000000000000000000000000000000000000000000000000de0b6b3a7640000",
        "nonce": "0xa8",
        "accessList": []
      },
      "additionalContracts": [],
      "isFixedGasLimit": false
    },
    {
      "hash": "0xd5b30d3353a90e51bd52687951e1e99b111c87d5b60cb9ca5716aabfcf5ab4b1",
      "transactionType": "CALL",
      "contractName": null,
      "contractAddress": "0xB3aB0e660FcA698606490868fF7D13c7Dfb31694",
      "function": "approve(address,uint256)",
      "arguments": [
        "0xc04E06bDb42ce32C87d28C604C908cAf65A662F2",
        "2000000000000000790"
      ],
      "transaction": {
        "type": "0x02",
        "from": "0x076c387afa6118085b5d8a71c4f699ba39661a7e",
        "to": "0xb3ab0e660fca698606490868ff7d13c7dfb31694",
        "gas": "0xf9da",
        "value": "0x0",
        "data": "0x095ea7b3000000000000000000000000c04e06bdb42ce32c87d28c604c908caf65a662f20000000000000000000000000000000000000000000000001bc16d674ec80316",
        "nonce": "0xa9",
        "accessList": []
      },
      "additionalContracts": [],
      "isFixedGasLimit": false
    },
    {
      "hash": "0xd65ed0794ca6af2b245a6dd15fff11c5ee4b4377e3638f4d83407b586a79ea91",
      "transactionType": "CALL",
      "contractName": null,
      "contractAddress": "0xc04E06bDb42ce32C87d28C604C908cAf65A662F2",
      "function": "init(address,address,uint256,uint256,uint256,uint256,uint256,uint256,address)",
      "arguments": [
        "0x14AeD33295C3ac9D8195295542914b8BB0977814",
        "0xB3aB0e660FcA698606490868fF7D13c7Dfb31694",
        "1000000000000000000",
        "1000000000000000000",
        "1000000000000000000",
        "1000000000000000000",
        "0",
        "1746645560",
        "0x0000000000000000000000000000000000000000"
      ],
      "transaction": {
        "type": "0x02",
        "from": "0x076c387afa6118085b5d8a71c4f699ba39661a7e",
        "to": "0xc04e06bdb42ce32c87d28c604c908caf65a662f2",
        "gas": "0xebab3",
        "value": "0x0",
        "data": "0x74529a6100000000000000000000000014aed33295c3ac9d8195295542914b8bb0977814000000000000000000000000b3ab0e660fca698606490868ff7d13c7dfb316940000000000000000000000000000000000000000000000000de0b6b3a76400000000000000000000000000000000000000000000000000000de0b6b3a76400000000000000000000000000000000000000000000000000000de0b6b3a76400000000000000000000000000000000000000000000000000000de0b6b3a7640000000000000000000000000000000000000000000000000000000000000000000000000000000000000000000000000000000000000000000000000000681bb2380000000000000000000000000000000000000000000000000000000000000000",
        "nonce": "0xaa",
        "accessList": []
      },
      "additionalContracts": [],
      "isFixedGasLimit": false
    }
  ],
  "receipts": [
    {
      "transactionHash": "0x7cd996853301580f7affdbb116e7dc355dbbed2058ee923403e63ab6022d4e90",
      "transactionIndex": "0x1",
      "blockHash": "0xa594ce40aa229b788411633381783f9cc872c92edd2639713bd1031467f4dae7",
      "blockNumber": "0xb1d18b",
      "from": "0x076C387afa6118085b5d8A71C4F699ba39661A7e",
      "to": "0x14AeD33295C3ac9D8195295542914b8BB0977814",
      "cumulativeGasUsed": "0x1607e",
      "gasUsed": "0xb50f",
      "contractAddress": null,
      "logs": [
        {
          "address": "0x14AeD33295C3ac9D8195295542914b8BB0977814",
          "topics": [
            "0x8c5be1e5ebec7d5bd14f71427d1e84f3dd0314c0f7b2291e5b200ac8c7c3b925",
            "0x000000000000000000000000076c387afa6118085b5d8a71c4f699ba39661a7e",
            "0x000000000000000000000000c04e06bdb42ce32c87d28c604c908caf65a662f2"
          ],
          "data": "0x0000000000000000000000000000000000000000000000000de0b6b3a7640000",
          "blockHash": "0xa594ce40aa229b788411633381783f9cc872c92edd2639713bd1031467f4dae7",
          "blockNumber": "0xb1d18b",
          "transactionHash": "0x7cd996853301580f7affdbb116e7dc355dbbed2058ee923403e63ab6022d4e90",
          "transactionIndex": "0x1",
          "logIndex": "0x0",
          "removed": false
        }
      ],
      "status": "0x1",
      "logsBloom": "0x00000020000000000000000000000000000000000000000000000020000000000000000000000000002000000000000000100000000000000000000000200000010000000000000000200000000000000000000000000000000000000000000000000000000000000000002000000000000000000000000000000000000000000000000000000000000000080000000000000000000000000000000000000000020000000040000000000000000000000000000000000000000000000000000000000000000000000000000000000000000000000000000000000000000000000010000000000000000000000000000000000000000000000000000000000000",
      "type": "0x2",
      "effectiveGasPrice": "0xb2d05fc8"
    },
    {
      "transactionHash": "0xd5b30d3353a90e51bd52687951e1e99b111c87d5b60cb9ca5716aabfcf5ab4b1",
      "transactionIndex": "0x2",
      "blockHash": "0xa594ce40aa229b788411633381783f9cc872c92edd2639713bd1031467f4dae7",
      "blockNumber": "0xb1d18b",
      "from": "0x076C387afa6118085b5d8A71C4F699ba39661A7e",
      "to": "0xB3aB0e660FcA698606490868fF7D13c7Dfb31694",
      "cumulativeGasUsed": "0x21562",
      "gasUsed": "0xb4e4",
      "contractAddress": null,
      "logs": [
        {
          "address": "0xB3aB0e660FcA698606490868fF7D13c7Dfb31694",
          "topics": [
            "0x8c5be1e5ebec7d5bd14f71427d1e84f3dd0314c0f7b2291e5b200ac8c7c3b925",
            "0x000000000000000000000000076c387afa6118085b5d8a71c4f699ba39661a7e",
            "0x000000000000000000000000c04e06bdb42ce32c87d28c604c908caf65a662f2"
          ],
          "data": "0x0000000000000000000000000000000000000000000000001bc16d674ec80316",
          "blockHash": "0xa594ce40aa229b788411633381783f9cc872c92edd2639713bd1031467f4dae7",
          "blockNumber": "0xb1d18b",
          "transactionHash": "0xd5b30d3353a90e51bd52687951e1e99b111c87d5b60cb9ca5716aabfcf5ab4b1",
          "transactionIndex": "0x2",
          "logIndex": "0x1",
          "removed": false
        }
      ],
      "status": "0x1",
      "logsBloom": "0x00000020000000000000000000000000000000000000000000000000000000000000000000000000002000000000000000100000000000000000000000200000000000000000000000200000000000002000000000000000000000000000000000000000000000000000002000000000000000001000000000000000000000000000000004000000000000080000000000000000000000000000000000000000020000000000000000000000000000000000000000000000000000000000000000000000000000000000000000000000000000000000000000000000000000000010000000000000000000000000000000000000000000000000000000000000",
      "type": "0x2",
      "effectiveGasPrice": "0xb2d05fc8"
    },
    {
      "transactionHash": "0xd65ed0794ca6af2b245a6dd15fff11c5ee4b4377e3638f4d83407b586a79ea91",
      "transactionIndex": "0x3",
      "blockHash": "0xa594ce40aa229b788411633381783f9cc872c92edd2639713bd1031467f4dae7",
      "blockNumber": "0xb1d18b",
      "from": "0x076C387afa6118085b5d8A71C4F699ba39661A7e",
      "to": "0xc04E06bDb42ce32C87d28C604C908cAf65A662F2",
      "cumulativeGasUsed": "0xc27ee",
      "gasUsed": "0xa128c",
      "contractAddress": null,
      "logs": [
        {
          "address": "0xc04E06bDb42ce32C87d28C604C908cAf65A662F2",
          "topics": [
            "0xddf252ad1be2c89b69c2b068fc378daa952ba7f163c4a11628f55a4df523b3ef",
            "0x0000000000000000000000000000000000000000000000000000000000000000",
            "0x000000000000000000000000076c387afa6118085b5d8a71c4f699ba39661a7e"
          ],
          "data": "0x0000000000000000000000000000000000000000000000002cfab039233614c3",
          "blockHash": "0xa594ce40aa229b788411633381783f9cc872c92edd2639713bd1031467f4dae7",
          "blockNumber": "0xb1d18b",
          "transactionHash": "0xd65ed0794ca6af2b245a6dd15fff11c5ee4b4377e3638f4d83407b586a79ea91",
          "transactionIndex": "0x3",
          "logIndex": "0x2",
          "removed": false
        },
        {
          "address": "0xc04E06bDb42ce32C87d28C604C908cAf65A662F2",
          "topics": [
            "0xddf252ad1be2c89b69c2b068fc378daa952ba7f163c4a11628f55a4df523b3ef",
            "0x0000000000000000000000000000000000000000000000000000000000000000",
            "0x0000000000000000000000000000000000000000000000000000000000000000"
          ],
          "data": "0x00000000000000000000000000000000000000000000000000000000000003e8",
          "blockHash": "0xa594ce40aa229b788411633381783f9cc872c92edd2639713bd1031467f4dae7",
          "blockNumber": "0xb1d18b",
          "transactionHash": "0xd65ed0794ca6af2b245a6dd15fff11c5ee4b4377e3638f4d83407b586a79ea91",
          "transactionIndex": "0x3",
          "logIndex": "0x3",
          "removed": false
        },
        {
          "address": "0x14AeD33295C3ac9D8195295542914b8BB0977814",
          "topics": [
            "0x8c5be1e5ebec7d5bd14f71427d1e84f3dd0314c0f7b2291e5b200ac8c7c3b925",
            "0x000000000000000000000000076c387afa6118085b5d8a71c4f699ba39661a7e",
            "0x000000000000000000000000c04e06bdb42ce32c87d28c604c908caf65a662f2"
          ],
          "data": "0x0000000000000000000000000000000000000000000000000000000000000000",
          "blockHash": "0xa594ce40aa229b788411633381783f9cc872c92edd2639713bd1031467f4dae7",
          "blockNumber": "0xb1d18b",
          "transactionHash": "0xd65ed0794ca6af2b245a6dd15fff11c5ee4b4377e3638f4d83407b586a79ea91",
          "transactionIndex": "0x3",
          "logIndex": "0x4",
          "removed": false
        },
        {
          "address": "0x14AeD33295C3ac9D8195295542914b8BB0977814",
          "topics": [
            "0xddf252ad1be2c89b69c2b068fc378daa952ba7f163c4a11628f55a4df523b3ef",
            "0x000000000000000000000000076c387afa6118085b5d8a71c4f699ba39661a7e",
            "0x000000000000000000000000c04e06bdb42ce32c87d28c604c908caf65a662f2"
          ],
          "data": "0x0000000000000000000000000000000000000000000000000de0b6b3a7640000",
          "blockHash": "0xa594ce40aa229b788411633381783f9cc872c92edd2639713bd1031467f4dae7",
          "blockNumber": "0xb1d18b",
          "transactionHash": "0xd65ed0794ca6af2b245a6dd15fff11c5ee4b4377e3638f4d83407b586a79ea91",
          "transactionIndex": "0x3",
          "logIndex": "0x5",
          "removed": false
        },
        {
          "address": "0xB3aB0e660FcA698606490868fF7D13c7Dfb31694",
          "topics": [
            "0x8c5be1e5ebec7d5bd14f71427d1e84f3dd0314c0f7b2291e5b200ac8c7c3b925",
            "0x000000000000000000000000076c387afa6118085b5d8a71c4f699ba39661a7e",
            "0x000000000000000000000000c04e06bdb42ce32c87d28c604c908caf65a662f2"
          ],
          "data": "0x0000000000000000000000000000000000000000000000000de0b6b36a09e598",
          "blockHash": "0xa594ce40aa229b788411633381783f9cc872c92edd2639713bd1031467f4dae7",
          "blockNumber": "0xb1d18b",
          "transactionHash": "0xd65ed0794ca6af2b245a6dd15fff11c5ee4b4377e3638f4d83407b586a79ea91",
          "transactionIndex": "0x3",
          "logIndex": "0x6",
          "removed": false
        },
        {
          "address": "0xB3aB0e660FcA698606490868fF7D13c7Dfb31694",
          "topics": [
            "0xddf252ad1be2c89b69c2b068fc378daa952ba7f163c4a11628f55a4df523b3ef",
            "0x000000000000000000000000076c387afa6118085b5d8a71c4f699ba39661a7e",
            "0x000000000000000000000000c04e06bdb42ce32c87d28c604c908caf65a662f2"
          ],
          "data": "0x0000000000000000000000000000000000000000000000000de0b6b3e4be1d7e",
          "blockHash": "0xa594ce40aa229b788411633381783f9cc872c92edd2639713bd1031467f4dae7",
          "blockNumber": "0xb1d18b",
          "transactionHash": "0xd65ed0794ca6af2b245a6dd15fff11c5ee4b4377e3638f4d83407b586a79ea91",
          "transactionIndex": "0x3",
          "logIndex": "0x7",
          "removed": false
        },
        {
          "address": "0xc04E06bDb42ce32C87d28C604C908cAf65A662F2",
          "topics": [
            "0x8bc90c742951e08a032b3a6740fe951b7c19967da95942c0a168f66f7b9e59d1",
            "0x00000000000000000000000014aed33295c3ac9d8195295542914b8bb0977814",
            "0x000000000000000000000000b3ab0e660fca698606490868ff7d13c7dfb31694",
            "0x0000000000000000000000000000000000000000000000000000000000000000"
          ],
          "data": "0x000000000000000000000000076c387afa6118085b5d8a71c4f699ba39661a7e0000000000000000000000000000000000000000000000000de0b6b3a76400000000000000000000000000000000000000000000000000000de0b6b3e4be1d7e0000000000000000000000000000000000000000000000002cfab039233618ab0000000000000000000000000000000000000000000000000de0b6b3a76400000000000000000000000000000000000000000000000000000de0b6b3a7640000000000000000000000000000000000000000000000000000000000000000000000000000000000000000000000000000000000000000000000000000681bb238",
          "blockHash": "0xa594ce40aa229b788411633381783f9cc872c92edd2639713bd1031467f4dae7",
          "blockNumber": "0xb1d18b",
          "transactionHash": "0xd65ed0794ca6af2b245a6dd15fff11c5ee4b4377e3638f4d83407b586a79ea91",
          "transactionIndex": "0x3",
          "logIndex": "0x8",
          "removed": false
        }
      ],
      "status": "0x1",
      "logsBloom": "0x00000020000004000000000000000000000000108000000008000020000000000000000000000000002000000000000000110000000000000000000000200000010000000000000000200008000000002000000000000000000000000004000000000000020000100000002000000800000000001000000000000010000000000000000004000000000000080000000000000000000000000000000000001000020000000040000000000000000000000000000080000000000000000000000000000002000000000000000000000000000000080000000000000000000020000010000000800000000000000000000000200000000000000000000000000000",
      "type": "0x2",
      "effectiveGasPrice": "0xb2d05fc8"
    }
  ],
  "libraries": [],
  "pending": [],
  "returns": {},
  "timestamp": 1715109574,
  "chain": 11155420,
  "commit": "44fae61"
}