{
  "transactions": [
    {
      "hash": "0x9f762a428319b61dc41054ac95caed332e1a78d9556dc8b112951cfaacfe6e28",
      "transactionType": "CALL",
      "contractName": null,
      "contractAddress": "0x519172bb1f45a5420090f03bafd19a76ac9bc772",
      "function": "createRMM(string,string)",
      "arguments": [
        "\"Lido Staked ETH 24 Dec 2025\"",
        "\"stETH-24DEC25\""
      ],
      "transaction": {
        "from": "0x65264bfc8cb0707d9cec36ec258ace23fd173947",
        "to": "0x519172bb1f45a5420090f03bafd19a76ac9bc772",
        "gas": "0x5fdaa9",
        "value": "0x0",
        "input": "0x26bff9d500000000000000000000000000000000000000000000000000000000000000400000000000000000000000000000000000000000000000000000000000000080000000000000000000000000000000000000000000000000000000000000001b4c69646f205374616b6564204554482032342044656320323032350000000000000000000000000000000000000000000000000000000000000000000000000d73744554482d3234444543323500000000000000000000000000000000000000",
        "nonce": "0x10",
        "chainId": "0x1"
      },
      "additionalContracts": [
        {
          "transactionType": "CREATE",
          "address": "0xe4e85530ad5c78f86bc766d8d13b793af9035e59",
          "initCode": "0x61010060405260016013553480156200001757600080fd5b50604051620054e3380380620054e38339810160408190526200003a91620001f2565b8181601260006200004c84826200030d565b5060016200005b83826200030d565b5060ff81166080524660a052620000716200008e565b60c0525050506001600160a01b0390921660e05250620004579050565b60007f8b73c3c69bb8fe3d512ecc4cf759cc79239f7b179b0ffacaa9a75d522b39400f6000604051620000c29190620003d9565b6040805191829003822060208301939093528101919091527fc89efdaa54c0f20c7adf612882df0950f5a951637e0307cdcb4c672f298b8bc660608201524660808201523060a082015260c00160405160208183030381529060405280519060200120905090565b634e487b7160e01b600052604160045260246000fd5b600082601f8301126200015257600080fd5b81516001600160401b03808211156200016f576200016f6200012a565b604051601f8301601f19908116603f011681019082821181831017156200019a576200019a6200012a565b8160405283815260209250866020858801011115620001b857600080fd5b600091505b83821015620001dc5785820183015181830184015290820190620001bd565b6000602085830101528094505050505092915050565b6000806000606084860312156200020857600080fd5b83516001600160a01b03811681146200022057600080fd5b60208501519093506001600160401b03808211156200023e57600080fd5b6200024c8783880162000140565b935060408601519150808211156200026357600080fd5b50620002728682870162000140565b9150509250925092565b600181811c908216806200029157607f821691505b602082108103620002b257634e487b7160e01b600052602260045260246000fd5b50919050565b601f82111562000308576000816000526020600020601f850160051c81016020861015620002e35750805b601f850160051c820191505b818110156200030457828155600101620002ef565b5050505b505050565b81516001600160401b038111156200032957620003296200012a565b62000341816200033a84546200027c565b84620002b8565b602080601f831160018114620003795760008415620003605750858301515b600019600386901b1c1916600185901b17855562000304565b600085815260208120601f198616915b82811015620003aa5788860151825594840194600190910190840162000389565b5085821015620003c95787850151600019600388901b60f8161c191681555b5050505050600190811b01905550565b6000808354620003e9816200027c565b600182811680156200040457600181146200041a576200044b565b60ff19841687528215158302870194506200044b565b8760005260208060002060005b85811015620004425781548a82015290840190820162000427565b50505082870194505b50929695505050505050565b60805160a05160c05160e051615052620004916000396000610901015260006112a701526000611277015260006105dd01526150526000f3fe6080604052600436106103c75760003560e01c80638286d3d9116101f2578063c4e505ab1161010d578063de9113c1116100a0578063ece261921161006f578063ece2619214610b88578063f2d0acb814610ba8578063fadfa65b14610be3578063fd4cbf4c14610bf957600080fd5b8063de9113c114610b08578063deb3803714610b28578063e66f53b714610b48578063e96309d714610b6857600080fd5b8063d94073d4116100dc578063d94073d414610a7a578063dd62ed3e14610a9a578063dda1f5db14610ad2578063ddca3f4314610af257600080fd5b8063c4e505ab146109fa578063c5657b2614610a1a578063c702795714610a3a578063d505accf14610a5a57600080fd5b8063ad8f500811610185578063b2e9a1b711610154578063b2e9a1b71461098f578063b61812a8146109a5578063bb08e0d7146109ba578063c38988de146109da57600080fd5b8063ad8f500814610923578063af975d9414610939578063afd27bf514610959578063afdf31cd1461097957600080fd5b8063972395bf116101c1578063972395bf1461087a578063a71c2b251461089a578063a9059cbb146108cf578063ad5c4648146108ef57600080fd5b80638286d3d914610810578063931949141461083057806395d89b4114610845578063970111891461085a57600080fd5b806330cbad41116102e25780635bd019de116102755780637358c57a116102445780637358c57a14610775578063781c18db1461078b5780637adfd707146107c35780637ecebe00146107e357600080fd5b80635bd019de146106e857806361b20a2b1461070857806370a082311461072857806371ced3361461075557600080fd5b80633e04e11d116102b15780633e04e11d146106665780634317a7221461068657806350e304e5146106a8578063513e551a146106c857600080fd5b806330cbad41146105ab578063313ce567146105cb578063338d75f5146106115780633644e5151461065157600080fd5b80631c4b18a81161035a578063251d97b611610329578063251d97b614610540578063297b0991146105605780632aa46569146105765780632ccc54cc1461058b57600080fd5b80631c4b18a8146104ca5780631d118c94146104ea578063204f83f91461050a57806323b872dd1461052057600080fd5b806315770f921161039657806315770f921461047257806317788ef91461048857806318160ddd1461049e57806319d8ac61146104b457600080fd5b806306fdde03146103d357806308eabdda146103fe578063095ea7b3146104225780630e194fa21461045257600080fd5b366103ce57005b600080fd5b3480156103df57600080fd5b506103e8610c41565b6040516103f591906145da565b60405180910390f35b34801561040a57600080fd5b5061041460095481565b6040519081526020016103f5565b34801561042e57600080fd5b5061044261043d366004614602565b610ccf565b60405190151581526020016103f5565b34801561045e57600080fd5b5061041461046d36600461462e565b610d3c565b34801561047e57600080fd5b50610414600b5481565b34801561049457600080fd5b5061041460145481565b3480156104aa57600080fd5b5061041460025481565b3480156104c057600080fd5b5061041460115481565b3480156104d657600080fd5b506104146104e536600461465d565b610d55565b3480156104f657600080fd5b506104146105053660046146db565b610e64565b34801561051657600080fd5b50610414600f5481565b34801561052c57600080fd5b5061044261053b3660046146fd565b610e7f565b34801561054c57600080fd5b5061041461055b36600461462e565b610f5f565b34801561056c57600080fd5b506104146103e881565b34801561058257600080fd5b50610414610f76565b34801561059757600080fd5b506104146105a636600461473e565b610f9e565b3480156105b757600080fd5b506104146105c636600461473e565b61107a565b3480156105d757600080fd5b506105ff7f000000000000000000000000000000000000000000000000000000000000000081565b60405160ff90911681526020016103f5565b34801561061d57600080fd5b5061063161062c366004614779565b61112e565b6040805194855260208501939093529183015260608201526080016103f5565b34801561065d57600080fd5b50610414611273565b34801561067257600080fd5b50610414610681366004614832565b6112c9565b34801561069257600080fd5b506106a66106a1366004614779565b6113c5565b005b3480156106b457600080fd5b506104146106c336600461473e565b611539565b3480156106d457600080fd5b506104146106e336600461473e565b6115db565b3480156106f457600080fd5b50610414610703366004614886565b61167c565b34801561071457600080fd5b506104146107233660046148cb565b611728565b34801561073457600080fd5b5061041461074336600461490e565b60036020526000908152604090205481565b34801561076157600080fd5b506106a661077036600461492b565b6117bd565b34801561078157600080fd5b5061041460105481565b34801561079757600080fd5b506008546107ab906001600160a01b031681565b6040516001600160a01b0390911681526020016103f5565b3480156107cf57600080fd5b506104146107de36600461462e565b611b06565b3480156107ef57600080fd5b506104146107fe36600461490e565b60056020526000908152604090205481565b34801561081c57600080fd5b5061041461082b366004614886565b611b4b565b34801561083c57600080fd5b50610414611bd7565b34801561085157600080fd5b506103e8611bfe565b34801561086657600080fd5b50610414610875366004614886565b611c0b565b34801561088657600080fd5b5061041461089536600461473e565b611d52565b3480156108a657600080fd5b506108ba6108b5366004614994565b611e4d565b604080519283526020830191909152016103f5565b3480156108db57600080fd5b506104426108ea366004614602565b612005565b3480156108fb57600080fd5b506107ab7f000000000000000000000000000000000000000000000000000000000000000081565b34801561092f57600080fd5b50610414600c5481565b34801561094557600080fd5b5061041461095436600461473e565b61206b565b34801561096557600080fd5b506007546107ab906001600160a01b031681565b34801561098557600080fd5b50610414600d5481565b34801561099b57600080fd5b5061041460135481565b3480156109b157600080fd5b50610414601e81565b3480156109c657600080fd5b506104146109d5366004614a2a565b6120df565b3480156109e657600080fd5b506108ba6109f536600461473e565b612262565b348015610a0657600080fd5b50610414610a153660046148cb565b6122cb565b348015610a2657600080fd5b506108ba610a35366004614994565b612383565b348015610a4657600080fd5b50610414610a55366004614a6b565b612517565b348015610a6657600080fd5b506106a6610a75366004614aac565b612589565b348015610a8657600080fd5b506006546107ab906001600160a01b031681565b348015610aa657600080fd5b50610414610ab5366004614b1d565b600460209081526000928352604080842090915290825290205481565b348015610ade57600080fd5b50610414610aed36600461462e565b6127cd565b348015610afe57600080fd5b50610414600e5481565b348015610b1457600080fd5b50610414610b23366004614832565b6127f2565b348015610b3457600080fd5b506108ba610b43366004614a2a565b6128ea565b348015610b5457600080fd5b506012546107ab906001600160a01b031681565b348015610b7457600080fd5b50610414610b8336600461473e565b612acc565b348015610b9457600080fd5b50610414610ba3366004614832565b612b73565b348015610bb457600080fd5b50610bc8610bc336600461462e565b612c6b565b604080519384526020840192909252908201526060016103f5565b348015610bef57600080fd5b50610414600a5481565b348015610c0557600080fd5b50610c19610c14366004614b56565b612cb2565b604080519586526020860194909452928401919091526060830152608082015260a0016103f5565b60008054610c4e90614ba7565b80601f0160208091040260200160405190810160405280929190818152602001828054610c7a90614ba7565b8015610cc75780601f10610c9c57610100808354040283529160200191610cc7565b820191906000526020600020905b815481529060010190602001808311610caa57829003601f168201915b505050505081565b3360008181526004602090815260408083206001600160a01b038716808552925280832085905551919290917f8c5be1e5ebec7d5bd14f71427d1e84f3dd0314c0f7b2291e5b200ac8c7c3b92590610d2a9086815260200190565b60405180910390a35060015b92915050565b6000610d3682670de0b6b3a76400006301e13380612fc4565b6000610d876040518060400160405280600e81526020016d70726576206c697175696469747960901b81525085612fe3565b8451602080870151604080890151815193840194909452820186905260608201526080810184905260a081019190915260009060c00160405160208183030381529060405290506000610dea876000015186888a60200151888c60400151611728565b9050610e1b6040518060400160405280600d81526020016c696e697469616c20677565737360981b81525082612fe3565b610e2982826014600a6112c9565b9250610e5a6040518060400160405280600d81526020016c6e6577206c697175696469747960981b81525084612fe3565b5050949350505050565b6000610e78610e73848461302c565b613041565b9392505050565b6001600160a01b03831660009081526004602090815260408083203384529091528120546000198114610edb57610eb68382614bf7565b6001600160a01b03861660009081526004602090815260408083203384529091529020555b6001600160a01b03851660009081526003602052604081208054859290610f03908490614bf7565b90915550506001600160a01b0380851660008181526003602052604090819020805487019055519091871690600080516020614ffd83398151915290610f4c9087815260200190565b60405180910390a3506001949350505050565b6000610d3682600b54600c54600d546105a6611bd7565b600042600f541015610f885750600090565b610f9942600f5461046d9190614bf7565b905090565b600080610fc5610fae888861302c565b610fc090670de0b6b3a7640000614bf7565b61321c565b90506000610fdb610fd686866132c2565b6132f0565b9050600061102c760a70c3c40a64e6c51999090b65f67d9240000000000000868861100e816706f05b59d3b20000614c0a565b6110189190614c0a565b6110229190614c0a565b610fd69190614c37565b9050600061106082670de0b6b3a76400006110478688614c4b565b6110519190614c7b565b61105b9190614ca9565b61333f565b905061106c88826134e8565b9a9950505050505050505050565b6040805160208101879052908101859052606081018490526080810183905260a08101829052600090819060c001604051602081830303815290604052905060006110c8888888888861206b565b90506110fb6040518060400160405280600f81526020016e696e697469616c207820677565737360881b81525082612fe3565b611122828560000361111757611112600184614bf7565b611119565b825b6014600a612b73565b98975050505050505050565b600080808061115a61114086896134fd565b600754611155906001600160a01b0316613509565b61359f565b600654909450611178908790611155906001600160a01b0316613509565b92506000604051806060016040528061119f876009546111989190614cd0565b89906134fd565b8152602001600c5481526020016111b4611bd7565b81525090506000611201826111eb8885600001516111d29190614cd0565b85516111dd90610f5f565b600c54600d546106c3611bd7565b87600a546111f99190614cd0565b600d54610d55565b9050600b5481101561124757600b54604051632c69e61f60e21b8152600481018b9052602481018a90526044810191909152606481018290526084015b60405180910390fd5b600b546112549082614bf7565b60025490945061126690859083612fc4565b9250505093509350935093565b60007f000000000000000000000000000000000000000000000000000000000000000046146112a457610f996135ab565b507f000000000000000000000000000000000000000000000000000000000000000090565b826000805b84811015610e5a576112ff604051806040016040528060078152602001661a5d195c9cc81360ca1b81525082612fe3565b600061130b8885611c0b565b905060006113198986613645565b90508160000361132a575050610e5a565b8161133d82670de0b6b3a7640000614c4b565b6113479190614c7b565b6113519086614ca9565b9350856113666113618688614ca9565b61367a565b13158061137b5750856113788261367a565b13155b156113b6578394506113af6040518060400160405280600a8152602001691d195c9b5a5b985b081360b21b81525086612fe3565b5050610e5a565b509192508291506001016112ce565b6013546001146113e85760405163558a1e0360e11b815260040160405180910390fd5b600060138190556008548190611406906001600160a01b031661368d565b9050600083121561146b57600084138015611422575060008513155b156114435761143c600e54611436866136f3565b906134e8565b915061146b565b600085138015611454575060008413155b1561146b57611468600e54611436876136f3565b91505b61147a858585600c5485613738565b60008512156114a4576007546114a2906001600160a01b03163361149d88614ce3565b6137e0565b505b60008412156114c9576006546114c7906001600160a01b03163361149d87614ce3565b505b60008513156114fb576007546040805160208101909152600081526114f9916001600160a01b03169087906138f1565b505b600084131561152d5760065460408051602081019091526000815261152b916001600160a01b03169086906138f1565b505b50506001601355505050565b6000806115468686610e64565b9050600061155485856132c2565b90506000611576856115706706f05b59d3b20000818a80613a5c565b90613a5c565b90506000826115858386614cff565b61159790670de0b6b3a7640000614c4b565b6115a19190614c7b565b905060006115ae82613a71565b90506115cc6115c582670de0b6b3a7640000614bf7565b8c90613ada565b9b9a5050505050505050505050565b600080611600610fc06115ee898961302c565b610fd690670de0b6b3a7640000614bf7565b9050600083600003611613576000611620565b611620610fd686866132c2565b905060006116366116318385614ca9565b613a71565b90506ec097ce7bc90715b34b9f1000000000611651826136f3565b61165b898b614c0a565b6116659190614c0a565b61166f9190614c37565b9998505050505050505050565b6000806000848060200190518101906116959190614d27565b505092509250506000670de0b6b3a764000083836116b39190614c0a565b6116bd9190614c37565b905060006116e1826116d788670de0b6b3a7640000614c4b565b610fc09190614c7b565b905060006116ee82613aef565b90506000670de0b6b3a76400006117058386614c4b565b61170f9190614c7b565b61166f906ec097ce7bc90715b34b9f1000000000614c7b565b600080611754610fc061173b8789614c0a565b6110228a6ec097ce7bc90715b34b9f1000000000614c0a565b9050600083600003611767576000611774565b611774610fd686866132c2565b905060006117856116318385614cff565b90506117a161179c82670de0b6b3a7640000614ca9565b6136f3565b6117b38b670de0b6b3a7640000614c0a565b61106c9190614c37565b6013546001146117e05760405163558a1e0360e11b815260040160405180910390fd5b6000601355600680546001600160a01b0319166001600160a01b0389169081179091556040805163afd27bf560e01b8152905163afd27bf5916004808201926020929091908290030181865afa15801561183e573d6000803e3d6000fd5b505050506040513d601f19601f820116820180604052508101906118629190614d67565b600780546001600160a01b0319166001600160a01b039283161790556006546040805163781c18db60e01b81529051919092169163781c18db9160048083019260209291908290030181865afa1580156118c0573d6000803e3d6000fd5b505050506040513d601f19601f820116820180604052508101906118e49190614d67565b600880546001600160a01b0319166001600160a01b0392909216918217905560009061190f9061368d565b9050600061191d82886134fd565b600c879055600d869055600e859055600654604080516370c264df60e11b815290519293506001600160a01b039091169163e184c9be916004808201926020929091908290030181865afa158015611979573d6000803e3d6000fd5b505050506040513d601f19601f8201168201806040525081019061199d9190614d84565b600f81905542601055601280546001600160a01b0319166001600160a01b03861617905560009081906119d7908b9085908b908b90612262565b90925090506119f1336119ec6103e885614bf7565b613b4b565b6119fe60006103e8613b4b565b611a23611a0a8a6132f0565b611a13836132f0565b611a1c856132f0565b8b88613738565b600754600954604080516020810190915260008152611a4c926001600160a01b031691906138f1565b50600654600a54604080516020810190915260008152611a76926001600160a01b031691906138f1565b50600754600f5460408051338152602081018d905280820185905260608101869052608081018c905260a081018b905260c081018a905260e0810192909252516001600160a01b0388811693811692908f16917f8bc90c742951e08a032b3a6740fe951b7c19967da95942c0a168f66f7b9e59d1918190036101000190a450506001601355505050505050505050565b6000600b54600003611b1a57506000919050565b6000611b31600954846134fd90919063ffffffff16565b9050610e7881600a54600b54600c54600d54610a15611bd7565b60008083806020019051810190611b629190614d27565b5050509150506000611b85610fc08386670de0b6b3a76400006110229190614c0a565b90506000611b9282613aef565b90506000670de0b6b3a7640000611ba98386614c4b565b611bb39190614c7b565b611bcc906ec097ce7bc90715b34b9f1000000000614c7b565b979650505050505050565b6000601154600f541015611beb5750600090565b610f99601154600f5461046d9190614bf7565b60018054610c4e90614ba7565b60008060008085806020019051810190611c259190614d27565b50929550909350915083905082826000611c3f8980613a5c565b90506000611c50610fc0898c613ada565b90506000611c6b610fc0611c648d8a6134e8565b8a90613ada565b90506000611c7883613aef565b90506000611c8583613aef565b90506000670de0b6b3a7640000611c9c8488614c4b565b611ca69190614c7b565b611cb88a670de0b6b3a7640000614c4b565b611cc29190614c7b565b90506000670de0b6b3a7640000611cd9888a614c4b565b611ce39190614c7b565b90506000670de0b6b3a7640000611cfa8584614c4b565b611d049190614c7b565b9050600081611d1b8c670de0b6b3a7640000614c4b565b611d259190614c7b565b905080611d3185614ce3565b611d3b9190614ca9565b9f5050505050505050505050505050505092915050565b600080611d6e610fc0876110228a670de0b6b3a7640000614c0a565b90506000611e1a611d82610fd688876132c2565b611da16f01812f9cf7920e2b66973e2000000000876110188b80614c0a565b611dc06f01812f9cf7920e2b66973e2000000000896110188c80614c0a565b670de0b6b3a7640000611dd6610fd68c8c6132c2565b611de09088614c4b565b611dea9190614c7b565b611df49190614cff565b611dfe9190614cff565b611e1090670de0b6b3a7640000614c4b565b6116319190614c7b565b9050611e3161179c82670de0b6b3a7640000614ca9565b611e4389670de0b6b3a7640000614c0a565b6111229190614c37565b600080601354600114611e735760405163558a1e0360e11b815260040160405180910390fd5b60006013819055600854819081908190611e95906001600160a01b031661368d565b600754600654919250611eb7916001600160a01b0391821691168d4285612cb2565b91995097509195509350915089861015611ef557604051633f612d4760e01b815260048101859052602481018b90526044810187905260640161123e565b611f1b611f01856132f0565b611f0a856132f0565b611f1390614ce3565b878585613738565b600654600090611f35906001600160a01b03168b866137e0565b600754604080516020601f8d018190048102820181019092528b8152929350600092611f88926001600160a01b0316918991908e908e90819084018382808284376000920191909152506138f192505050565b6006546007546040805133815260208101859052908101869052606081018b90529293506001600160a01b0391821692908216918e16907fd4dbfaa7c0fe51eee24a1cdcafd0378cd3652cdba735dfc4b061aa55c2a458a5906080015b60405180910390a450505050505060016013819055509550959350505050565b33600090815260036020526040812080548391908390612026908490614bf7565b90915550506001600160a01b03831660008181526003602052604090819020805485019055513390600080516020614ffd83398151915290610d2a9086815260200190565b60008061207e610fc061173b8789614c0a565b905060008360000361209157600061209e565b61209e610fd686866132c2565b905060006120af6116318385614cff565b9050670de0b6b3a76400006120c3826136f3565b6120d590670de0b6b3a7640000614bf7565b611665908a614c0a565b60006013546001146121045760405163558a1e0360e11b815260040160405180910390fd5b60006013819055600854819081908190612126906001600160a01b031661368d565b905061213389898361112e565b909750919550935091508685101561217657604051634a56244160e01b8152600481018a905260248101899052604481018890526064810186905260840161123e565b6121808683613b4b565b6121a761218c856132f0565b612195856132f0565b61219e886132f0565b600c5485613738565b60075460408051602081019091526000808252916121d2916001600160a01b039091169087906138f1565b600654604080516020810190915260008082529293506121fd916001600160a01b03169087906138f1565b60408051848152602081018390529081018990529091506001600160a01b0389169033907f776bbaa896d9abe5db2f98efa8cbb7b341d887ba96ec823714a54aae19dc241f9060600160405180910390a3505060016013555092979650505050505050565b6000808061227361046d4286614bf7565b6040805160608101825289815260208101899052908101829052909150600061229f898b8a8a87611539565b90506122ae89828a8a876115db565b93506122bc8282868a610d55565b94505050509550959350505050565b600080856122e189670de0b6b3a7640000614c0a565b6122eb9190614c37565b905060006122f98787614c0a565b612312896ec097ce7bc90715b34b9f1000000000614c0a565b61231c9190614c37565b9050600061232c610fc0846132f0565b9050600061233c610fc0846132f0565b905060008660000361234f57600061235c565b61235c610fd689896132c2565b9050806123698385614cff565b6123739190614cff565b9c9b505050505050505050505050565b6000806013546001146123a95760405163558a1e0360e11b815260040160405180910390fd5b600060138190556008548190819081906123cb906001600160a01b031661368d565b6006546007549192506123ed916001600160a01b0391821691168d4285612cb2565b9199509750919550935091508986101561242b57604051633f612d4760e01b815260048101859052602481018b90526044810187905260640161123e565b612449612437846132f0565b61244090614ce3565b611f13866132f0565b600654600090612463906001600160a01b03168b866137e0565b600754604080516020601f8d018190048102820181019092528b81529293506000926124b6926001600160a01b0316918991908e908e90819084018382808284376000920191909152506138f192505050565b6007546006546040805133815260208101859052908101869052606081018b90529293506001600160a01b0391821692908216918e16907fd4dbfaa7c0fe51eee24a1cdcafd0378cd3652cdba735dfc4b061aa55c2a458a590608001611fe5565b6000806125326706f05b59d3b2000061157085818880613a5c565b90506000612543610fae888861302c565b9050600061256883670de0b6b3a764000061255e89896132c2565b6110479086614c4b565b90506111228161258387601454613ba590919063ffffffff16565b9061302c565b428410156125d95760405162461bcd60e51b815260206004820152601760248201527f5045524d49545f444541444c494e455f45585049524544000000000000000000604482015260640161123e565b600060016125e5611273565b6001600160a01b038a811660008181526005602090815260409182902080546001810190915582517f6e71edae12b1b97f4d1f60370fef10105fa2faae0126114a169c64845d6126c98184015280840194909452938d166060840152608083018c905260a083019390935260c08083018b90528151808403909101815260e08301909152805192019190912061190160f01b6101008301526101028201929092526101228101919091526101420160408051601f198184030181528282528051602091820120600084529083018083525260ff871690820152606081018590526080810184905260a0016020604051602081039080840390855afa1580156126f1573d6000803e3d6000fd5b5050604051601f1901519150506001600160a01b038116158015906127275750876001600160a01b0316816001600160a01b0316145b6127645760405162461bcd60e51b815260206004820152600e60248201526d24a72b20a624a22fa9a4a3a722a960911b604482015260640161123e565b6001600160a01b0390811660009081526004602090815260408083208a8516808552908352928190208990555188815291928a16917f8c5be1e5ebec7d5bd14f71427d1e84f3dd0314c0f7b2291e5b200ac8c7c3b925910160405180910390a350505050505050565b600081600f5410156127e157506000919050565b610d3682600f5461046d9190614bf7565b826000805b84811015610e5a57612828604051806040016040528060078152602001666974657273207960c81b81525082612fe3565b60006128348885613bd1565b90506000612842898661167c565b905080600003612853575050610e5a565b8061286683670de0b6b3a7640000614c4b565b6128709190614c7b565b61287a9086614ca9565b93508561288a6113618688614ca9565b13158061289f57508561289c8361367a565b13155b156128db578394506113af604051806040016040528060128152602001717465726d696e616c2072657365727665595f60701b81525086612fe3565b509192508291506001016127f7565b6000806013546001146129105760405163558a1e0360e11b815260040160405180910390fd5b60006013819055808061292289612c6b565b600754929550909350915061294a908490612945906001600160a01b0316613509565b613c06565b600654612965908490612945906001600160a01b0316613509565b90955093508488111561299c57604051633f612d4760e01b8152600481018a9052602481018990526044810186905260640161123e565b838711156129ce57604051633f612d4760e01b8152600481018a9052602481018890526044810185905260640161123e565b6129d83382613c12565b612a2e6129e4846132f0565b6129ed90614ce3565b6129f6846132f0565b6129ff90614ce3565b612a088c6132f0565b612a1190614ce3565b600c54600854612a29906001600160a01b031661368d565b613738565b600754600090612a48906001600160a01b031688866137e0565b600654909150600090612a65906001600160a01b031689866137e0565b60408051848152602081018390529081018d90529091506001600160a01b0389169033907fe52ffb1cd0c95290b3d095477d87f79a6199b3a1912fe758c2ed9fc37d16e3469060600160405180910390a35050505050600160138190555094509492505050565b6040805160208101879052908101859052606081018490526080810183905260a08101829052600090819060c00160405160208183030381529060405290506000612b1a88888888886115db565b9050612b4c6040518060400160405280600e81526020016d696e697469616c4775657373207960901b81525082612fe3565b6111228285600003612b6857612b63600184614bf7565b612b6a565b825b6014600a6127f2565b826000805b84811015610e5a57612ba9604051806040016040528060078152602001660d2e8cae4e640f60cb1b81525082612fe3565b6000612bb58885611b4b565b90506000612bc38986613c74565b905081600003612bd4575050610e5a565b81612be782670de0b6b3a7640000614c4b565b612bf19190614c7b565b612bfb9086614ca9565b935085612c0b6113618688614ca9565b131580612c20575085612c1d8261367a565b13155b15612c5c578394506113af604051806040016040528060128152602001717465726d696e616c2072657365727665585f60701b81525086612fe3565b50919250829150600101612b78565b600b546009546000918291829190612c8590869083612fc4565b600a54909450612c9790869083612fc4565b600254909350612ca990869083613ca9565b93959294505050565b60075460009081908190819081906001600160a01b038b8116911614801590612ce957506006546001600160a01b038b8116911614155b15612d285760405162461bcd60e51b815260206004820152600f60248201526e24b73b30b634b2103a37b5b2b724b760891b604482015260640161123e565b6007546001600160a01b038a8116911614801590612d5457506006546001600160a01b038a8116911614155b15612d945760405162461bcd60e51b815260206004820152601060248201526f125b9d985b1a59081d1bdad95b93dd5d60821b604482015260640161123e565b6007546001600160a01b038b811691161480612dca57600654612dc5908a90611155906001600160a01b0316613509565b612de5565b600754612de5908a90611155906001600160a01b0316613509565b95506000612dfe600e54886134e890919063ffffffff16565b90506000612e0c898b613cd7565b90506000808415612eff57612e218b856134fd565b83518490612e30908390614cd0565b91508181525050612e4983600b54600a54600d54610d55565b9150612e558b856134fd565b83518490612e64908390614bf7565b9052506040805180820190915260068152651b995e1d081360d21b6020820152612e8e9083612fe3565b612eba612e9b8c8c6134fd565b8451612ea79190614cd0565b838560200151600d548760400151612acc565b9050612eea6040518060400160405280600c81526020016b6e657874207265736572766560a01b81525082612fe3565b80600a54612ef89190614bf7565b9850612f56565b612f1483600b5486600a546111f99190614cd0565b9150612f3a8a600a54612f279190614cd0565b838560200151600d54876040015161107a565b9050612f468b82613d56565b600954612f539190614bf7565b98505b82602001519550612f68600b546132f0565b612f71836132f0565b612f7b9190614ca9565b9650612fb08986612f9b57600754612945906001600160a01b0316613509565b600654612945906001600160a01b0316613509565b975050505050509550955095509550959050565b828202811515841585830485141716612fdc57600080fd5b0492915050565b6130288282604051602401612ff9929190614d9d565b60408051601f198184030181529190526020810180516001600160e01b0316632d839cb360e21b179052613d62565b5050565b6000610e7883670de0b6b3a764000084612fc4565b600080821361307e5760405162461bcd60e51b815260206004820152600960248201526815539111519253915160ba1b604482015260640161123e565b6000606061308b84613d6e565b03609f8181039490941b90931c6c465772b2bbbb5f824b15207a3081018102606090811d6d0388eaa27412d5aca026815d636e018202811d6d0df99ac502031bf953eff472fdcc018202811d6d13cdffb29d51d99322bdff5f2211018202811d6d0a0f742023def783a307a986912e018202811d6d01920d8043ca89b5239253284e42018202811d6c0b7a86d7375468fac667a0a527016c29508e458543d8aa4df2abee7883018302821d6d0139601a2efabe717e604cbb4894018302821d6d02247f7a7b6594320649aa03aba1018302821d6c8c3f38e95a6b1ff2ab1c3b343619018302821d6d02384773bdf1ac5676facced60901901830290911d6cb9a025d814b29c212b8b1a07cd1901909102780a09507084cc699bb0e71ea869ffffffffffffffffffffffff190105711340daa0d5f769dba1915cef59f0815a5506027d0267a36c0c95b3975ab3ee5b203a7614a3f75373f047d803ae7b6687f2b393909302929092017d57115e47018c7177eebf7cd370a3356a1b7863008a5ae8028c72b88642840160ae1d92915050565b60006706f05b59d3b20000820361323557506000919050565b670de0b6b3a7640000821261325d576040516307a0212760e01b815260040160405180910390fd5b8160000361327e576040516322ed598560e21b815260040160405180910390fd5b600061328b836002614c4b565b9050600061329882613e16565b905060006132ae6713a04bbdfdc9be8883614094565b90506132b981614ce3565b95945050505050565b6000806132ce836140a9565b6132dc90633b9aca00614c0a565b90506132e884826134e8565b949350505050565b60006001600160ff1b0382111561333b5760405162461bcd60e51b815260206004820152600f60248201526e746f496e743a206f766572666c6f7760881b604482015260640161123e565b5090565b6000680248ce36a70cb26b3e19821361335a57506000919050565b680755bf798b4a1bf1e582126133a15760405162461bcd60e51b815260206004820152600c60248201526b4558505f4f564552464c4f5760a01b604482015260640161123e565b6503782dace9d9604e83901b059150600060606bb17217f7d1cf79abc9e3b39884821b056001605f1b01901d6bb17217f7d1cf79abc9e3b39881029093036c240c330e9fb2d9cbaf0fd5aafb1981018102606090811d6d0277594991cfc85f6e2461837cd9018202811d6d1a521255e34f6a5061b25ef1c9c319018202811d6db1bbb201f443cf962f1a1d3db4a5018202811d6e02c72388d9f74f51a9331fed693f1419018202811d6e05180bb14799ab47a8a8cb2a527d57016d02d16720577bd19bf614176fe9ea6c10fe68e7fd37d0007b713f765084018402831d9081019084016d01d3967ed30fc4f89c02bab5708119010290911d6e0587f503bb6ea29d25fcb740196450019091026d360d7aeea093263ecc6e0ecb291760621b010574029d9dc38563c32e5c2f6dc192ee70ef65f9978af30260c3939093039290921c92915050565b6000610e788383670de0b6b3a7640000613ca9565b6000610e78838361414d565b600080826001600160a01b031663313ce5676040518163ffffffff1660e01b8152600401602060405180830381865afa15801561354a573d6000803e3d6000fd5b505050506040513d601f19601f8201168201806040525081019061356e9190614dbf565b60ff1690506000613580826012614bf7565b905061358d81600a614ec0565b6132e890670de0b6b3a7640000614c0a565b6000610e788383613a5c565b60007f8b73c3c69bb8fe3d512ecc4cf759cc79239f7b179b0ffacaa9a75d522b39400f60006040516135dd9190614ecc565b6040805191829003822060208301939093528101919091527fc89efdaa54c0f20c7adf612882df0950f5a951637e0307cdcb4c672f298b8bc660608201524660808201523060a082015260c00160405160208183030381529060405280519060200120905090565b600080600080600080878060200190518101906136629190614d27565b945094509450945094506111228585898686866122cb565b60008082121561333b57610d3682614ce3565b6000816001600160a01b0316631d52edc46040518163ffffffff1660e01b81526004016020604051808303816000875af11580156136cf573d6000803e3d6000fd5b505050506040513d601f19601f82011682018060405250810190610d369190614d84565b60008082121561333b5760405162461bcd60e51b815260206004820152601060248201526f746f55696e743a206e6567617469766560801b604482015260640161123e565b80600061374482611b06565b42601155600954909150613758908861416c565b600955600a54613768908761416c565b600a55600b54613778908661416c565b600b55600c8490556009546137929061055b9085906134fd565b60145560006137a083611b06565b9050600a6137ad8261367a565b13156137d657604051633d94784b60e11b8152600481018390526024810182905260440161123e565b5050505050505050565b6000806137ec8561422c565b905060006137fd8461294588613509565b60405163a9059cbb60e01b81526001600160a01b038781166004830152602482018390529192509087169063a9059cbb906044016020604051808303816000875af1158015613850573d6000803e3d6000fd5b505050506040513d601f19601f820116820180604052508101906138749190614f6d565b613899578530868360405163be4d4fb560e01b815260040161123e9493929190614f8f565b6138a28661422c565b6138ac9083614bf7565b9250808310156138e857604051630f55e7df60e11b81526001600160a01b0387166004820152602481018490526044810182905260640161123e565b50509392505050565b6000806138fd8561422c565b9050600061390e8561294588613509565b8451909150156139ac57604051633eb0617f60e11b81523390637d60c2fe9061393f90899085908990600401614fb9565b6020604051808303816000875af115801561395e573d6000803e3d6000fd5b505050506040513d601f19601f820116820180604052508101906139829190614f6d565b6139a7578533308360405163be4d4fb560e01b815260040161123e9493929190614f8f565b613a48565b6040516323b872dd60e01b8152336004820152306024820152604481018290526001600160a01b038716906323b872dd906064016020604051808303816000875af11580156139ff573d6000803e3d6000fd5b505050506040513d601f19601f82011682018060405250810190613a239190614f6d565b613a48578533308360405163be4d4fb560e01b815260040161123e9493929190614f8f565b81613a528761422c565b6138ac9190614bf7565b6000610e788383670de0b6b3a7640000612fc4565b6000806713a04bbdfdc9be88613a8f670de0b6b3a764000085614c4b565b613a999190614c7b565b90506000613aa682614ce3565b90506000613ab382614309565b9050671bc16d674ec80000613ad0670de0b6b3a764000083614c4b565b6132b99190614c7b565b6000610e7883670de0b6b3a764000084613ca9565b600080671bc16d674ec8000083613b0581614ce3565b613b0f9190614c4b565b613b199190614c7b565b9050613b248161333f565b90506722c955229554c1b6613b41670de0b6b3a764000083614c4b565b610e789190614c7b565b8060026000828254613b5d9190614cd0565b90915550506001600160a01b038216600081815260036020908152604080832080548601905551848152600080516020614ffd83398151915291015b60405180910390a35050565b6000610e78670de0b6b3a764000083613bbd86613041565b613bc79190614c4b565b61105b9190614c7b565b60008060008060008087806020019051810190613bee9190614d27565b945094509450945094506111228588868686866122cb565b6000610e78838361302c565b6001600160a01b03821660009081526003602052604081208054839290613c3a908490614bf7565b90915550506002805482900390556040518181526000906001600160a01b03841690600080516020614ffd83398151915290602001613b99565b60008060008060008087806020019051810190613c919190614d27565b945094509450945094506111228786868686866122cb565b828202811515841585830485141716613cc157600080fd5b6001826001830304018115150290509392505050565b613cfb60405180606001604052806000815260200160008152602001600081525090565b6000613d06836127cd565b90506000613d1f600954866134fd90919063ffffffff16565b90506000613d3382600b54600d5486612517565b604080516060810182529384526020840191909152820192909252949350505050565b6000610e7883836144ed565b613d6b81614502565b50565b6000808211613dab5760405162461bcd60e51b815260206004820152600960248201526815539111519253915160ba1b604482015260640161123e565b5060016fffffffffffffffffffffffffffffffff821160071b82811c67ffffffffffffffff1060061b1782811c63ffffffff1060051b1782811c61ffff1060041b1782811c60ff10600390811b90911783811c600f1060021b1783811c909110821b1791821c111790565b600080821280613e2d5750671bc16d674ec8000082135b15613e4b57604051632d0483c560e21b815260040160405180910390fd5b81600003613e6c576040516307a0212760e01b815260040160405180910390fd5b81671bc16d674ec8000003613e94576040516322ed598560e21b815260040160405180910390fd5b8015613e9f57919050565b6000670de0b6b3a76400008312613ec757613ec283671bc16d674ec80000614ca9565b613ec9565b825b90506000613edf82671bc16d674ec80000614523565b905080600003613f02576040516307a0212760e01b815260040160405180910390fd5b6000613f0d82613041565b90506000633b9aca00613f38613f33613f2d671bc16d674ec80000614ce3565b85614094565b6140a9565b613f429190614c4b565b9050600080613f59836703c1665c7aab2000614094565b613f6b90672005fe4f268ea000614cff565b90506000613f9b84613f8486669f32752462a000614094565b613f9690670dc5527f642c2000614cff565b614094565b613fad90670de0b6b3a7640000614cff565b9050613fd16709d028cc6f205fff1985613fc78585614523565b613f969190614ca9565b9250505060005b600281101561406c57600086613fed84614309565b613ff79190614ca9565b905060006140058485614094565b61400e90614ce3565b9050600061401b8261333f565b905060006140298685614094565b61403b670fa8cedfc2adddfa84614094565b6140459190614ca9565b90506140518482614523565b61405b9087614cff565b955084600101945050505050613fd8565b670de0b6b3a764000088126140895761408482614ce3565b611122565b509695505050505050565b6000610e788383670de0b6b3a7640000614534565b60b581600160881b81106140c25760409190911b9060801c5b690100000000000000000081106140de5760209190911b9060401c5b6501000000000081106140f65760109190911b9060201c5b6301000000811061410c5760089190911b9060101c5b62010000010260121c80820401600190811c80830401811c80830401811c80830401811c80830401811c80830401811c80830401901c908190048111900390565b6000670de0b6b3a76400006141628484614c0a565b610e789190614c37565b6000808212156141d95761417f82614ce3565b8310156141bf5760405162461bcd60e51b815260206004820152600e60248201526d73756d3a20756e646572666c6f7760901b604482015260640161123e565b6141c882614ce3565b6141d29084614bf7565b9050610d36565b826141e48382614cd0565b10156142225760405162461bcd60e51b815260206004820152600d60248201526c73756d3a206f766572666c6f7760981b604482015260640161123e565b6141d28284614cd0565b604080513060248083019190915282518083039091018152604490910182526020810180516001600160e01b03166370a0823160e01b1790529051600091829182916001600160a01b038616916142839190614fe0565b600060405180830381855afa9150503d80600081146142be576040519150601f19603f3d011682016040523d82523d6000602084013e6142c3565b606091505b50915091508115806142d757508051602014155b156142f55760405163056a754560e51b815260040160405180910390fd5b808060200190518101906132e89190614d84565b6000816000036143225750670de0b6b3a7640000919050565b675698eef066700000821261433957506000919050565b61434a675698eef066700000614ce3565b821361435f5750671bc16d674ec80000919050565b600061436a83614553565b905060006143a3670de0b6b3a764000061438c84671bc16d674ec8000061302c565b61439e90670de0b6b3a7640000614cff565b614523565b9050600080826143ff816143ec816143da816143c78167025f0fe105a31400614094565b613f9690670b68df18e471fbff19614cff565b613f96906714a8454c19e1ac00614cff565b613f9690670fc10e01578277ff19614cff565b614411906703debd083b8c7c00614cff565b915083905061447981614467816144558161444381614430818b614094565b613f9690670295d400ea3257ff19614cff565b613f9690670157d8b2ecc70800614cff565b613f96906705310aa7d5213000614cff565b613f9690670de0cc3d15610000614cff565b91508167119000ab100ffc0061448f8788614094565b61449b90600019614c4b565b6144a59190614ca9565b6144af9190614cff565b92505060006144bd8361333f565b905060006144cb8583614094565b9050600088126144db5780611122565b61112281671bc16d674ec80000614ca9565b600082614162670de0b6b3a764000084614c0a565b80516a636f6e736f6c652e6c6f67602083016000808483855afa5050505050565b6000610e7883670de0b6b3a7640000845b82820281151584158583058514171661454c57600080fd5b0592915050565b6000600160ff1b820361457957604051634d2d75b160e01b815260040160405180910390fd5b600082121561333b57501960010190565b60005b838110156145a557818101518382015260200161458d565b50506000910152565b600081518084526145c681602086016020860161458a565b601f01601f19169290920160200192915050565b602081526000610e7860208301846145ae565b6001600160a01b0381168114613d6b57600080fd5b6000806040838503121561461557600080fd5b8235614620816145ed565b946020939093013593505050565b60006020828403121561464057600080fd5b5035919050565b634e487b7160e01b600052604160045260246000fd5b60008060008084860360c081121561467457600080fd5b606081121561468257600080fd5b506040516060810181811067ffffffffffffffff821117156146a6576146a6614647565b604090815286358252602080880135908301528681013590820152966060860135965060808601359560a00135945092505050565b600080604083850312156146ee57600080fd5b50508035926020909101359150565b60008060006060848603121561471257600080fd5b833561471d816145ed565b9250602084013561472d816145ed565b929592945050506040919091013590565b600080600080600060a0868803121561475657600080fd5b505083359560208501359550604085013594606081013594506080013592509050565b60008060006060848603121561478e57600080fd5b505081359360208301359350604090920135919050565b600082601f8301126147b657600080fd5b813567ffffffffffffffff808211156147d1576147d1614647565b604051601f8301601f19908116603f011681019082821181831017156147f9576147f9614647565b8160405283815286602085880101111561481257600080fd5b836020870160208301376000602085830101528094505050505092915050565b6000806000806080858703121561484857600080fd5b843567ffffffffffffffff81111561485f57600080fd5b61486b878288016147a5565b97602087013597506040870135966060013595509350505050565b6000806040838503121561489957600080fd5b823567ffffffffffffffff8111156148b057600080fd5b6148bc858286016147a5565b95602094909401359450505050565b60008060008060008060c087890312156148e457600080fd5b505084359660208601359650604086013595606081013595506080810135945060a0013592509050565b60006020828403121561492057600080fd5b8135610e78816145ed565b600080600080600080600060e0888a03121561494657600080fd5b8735614951816145ed565b96506020880135955060408801359450606088013593506080880135925060a0880135915060c0880135614984816145ed565b8091505092959891949750929550565b6000806000806000608086880312156149ac57600080fd5b853594506020860135935060408601356149c5816145ed565b9250606086013567ffffffffffffffff808211156149e257600080fd5b818801915088601f8301126149f657600080fd5b813581811115614a0557600080fd5b896020828501011115614a1757600080fd5b9699959850939650602001949392505050565b60008060008060808587031215614a4057600080fd5b8435935060208501359250604085013591506060850135614a60816145ed565b939692955090935050565b60008060008060808587031215614a8157600080fd5b5050823594602084013594506040840135936060013592509050565b60ff81168114613d6b57600080fd5b600080600080600080600060e0888a031215614ac757600080fd5b8735614ad2816145ed565b96506020880135614ae2816145ed565b955060408801359450606088013593506080880135614b0081614a9d565b9699959850939692959460a0840135945060c09093013592915050565b60008060408385031215614b3057600080fd5b8235614b3b816145ed565b91506020830135614b4b816145ed565b809150509250929050565b600080600080600060a08688031215614b6e57600080fd5b8535614b79816145ed565b94506020860135614b89816145ed565b94979496505050506040830135926060810135926080909101359150565b600181811c90821680614bbb57607f821691505b602082108103614bdb57634e487b7160e01b600052602260045260246000fd5b50919050565b634e487b7160e01b600052601160045260246000fd5b81810381811115610d3657610d36614be1565b8082028115828204841417610d3657610d36614be1565b634e487b7160e01b600052601260045260246000fd5b600082614c4657614c46614c21565b500490565b80820260008212600160ff1b84141615614c6757614c67614be1565b8181058314821517610d3657610d36614be1565b600082614c8a57614c8a614c21565b600160ff1b821460001984141615614ca457614ca4614be1565b500590565b8181036000831280158383131683831282161715614cc957614cc9614be1565b5092915050565b80820180821115610d3657610d36614be1565b6000600160ff1b8201614cf857614cf8614be1565b5060000390565b8082018281126000831280158216821582161715614d1f57614d1f614be1565b505092915050565b600080600080600060a08688031215614d3f57600080fd5b5050835160208501516040860151606087015160809097015192989197509594509092509050565b600060208284031215614d7957600080fd5b8151610e78816145ed565b600060208284031215614d9657600080fd5b5051919050565b604081526000614db060408301856145ae565b90508260208301529392505050565b600060208284031215614dd157600080fd5b8151610e7881614a9d565b600181815b80851115614e17578160001904821115614dfd57614dfd614be1565b80851615614e0a57918102915b93841c9390800290614de1565b509250929050565b600082614e2e57506001610d36565b81614e3b57506000610d36565b8160018114614e515760028114614e5b57614e77565b6001915050610d36565b60ff841115614e6c57614e6c614be1565b50506001821b610d36565b5060208310610133831016604e8410600b8410161715614e9a575081810a610d36565b614ea48383614ddc565b8060001904821115614eb857614eb8614be1565b029392505050565b6000610e788383614e1f565b60008083548160018260011c91506001831680614eea57607f831692505b60208084108203614f0957634e487b7160e01b86526022600452602486fd5b818015614f1d5760018114614f3257614f5f565b60ff1986168952841515850289019650614f5f565b60008a81526020902060005b86811015614f575781548b820152908501908301614f3e565b505084890196505b509498975050505050505050565b600060208284031215614f7f57600080fd5b81518015158114610e7857600080fd5b6001600160a01b039485168152928416602084015292166040820152606081019190915260800190565b60018060a01b03841681528260208201526060604082015260006132b960608301846145ae565b60008251614ff281846020870161458a565b919091019291505056feddf252ad1be2c89b69c2b068fc378daa952ba7f163c4a11628f55a4df523b3efa2646970667358221220363810fa1f145ab85e79bc3e6fe685989af245641151d5ddd730072c06da3bec64736f6c63430008170033000000000000000000000000c02aaa39b223fe8d0a0e5c4f27ead9083c756cc2000000000000000000000000000000000000000000000000000000000000006000000000000000000000000000000000000000000000000000000000000000a0000000000000000000000000000000000000000000000000000000000000001b4c69646f205374616b6564204554482032342044656320323032350000000000000000000000000000000000000000000000000000000000000000000000000d73744554482d3234444543323500000000000000000000000000000000000000"
        }
      ],
      "isFixedGasLimit": false
    },
    {
      "hash": "0x87f7bb32032b0f823da4dffec43c1f8e0d0a42d7ba4b8ae6e2ad0009ffb850e1",
      "transactionType": "CALL",
      "contractName": null,
      "contractAddress": "0x7f39c581f595b53c5cb19bd0b3f8da6c935e2ca0",
      "function": "approve(address,uint256)",
      "arguments": [
        "0xcbC72d92b2dc8187414F6734718563898740C0BC",
        "115792089237316195423570985008687907853269984665640564039457584007913129639935"
      ],
      "transaction": {
        "from": "0x65264bfc8cb0707d9cec36ec258ace23fd173947",
        "to": "0x7f39c581f595b53c5cb19bd0b3f8da6c935e2ca0",
        "gas": "0x9ec7",
        "value": "0x0",
        "input": "0x095ea7b3000000000000000000000000cbc72d92b2dc8187414f6734718563898740c0bcffffffffffffffffffffffffffffffffffffffffffffffffffffffffffffffff",
        "nonce": "0x11",
        "chainId": "0x1"
      },
      "additionalContracts": [],
      "isFixedGasLimit": false
    },
    {
      "hash": "0xa051a5b8a2167c45ff616a5bc4f95d68c86791b0f05c93e4d7106c4c731bae01",
      "transactionType": "CALL",
      "contractName": null,
      "contractAddress": "0xcbc72d92b2dc8187414f6734718563898740c0bc",
      "function": "deposit(address,address,uint256,uint256)",
      "arguments": [
        "0x65264bfc8cb0707D9Cec36Ec258aCE23fD173947",
        "0x7f39C581F595B53c5cb19bD0b3f8dA6c935E2Ca0",
        "10000000000000000000000",
        "1"
      ],
      "transaction": {
        "from": "0x65264bfc8cb0707d9cec36ec258ace23fd173947",
        "to": "0xcbc72d92b2dc8187414f6734718563898740c0bc",
        "gas": "0x17508",
        "value": "0x0",
        "input": "0x20e8c56500000000000000000000000065264bfc8cb0707d9cec36ec258ace23fd1739470000000000000000000000007f39c581f595b53c5cb19bd0b3f8da6c935e2ca000000000000000000000000000000000000000000000021e19e0c9bab24000000000000000000000000000000000000000000000000000000000000000000001",
        "nonce": "0x12",
        "chainId": "0x1"
      },
      "additionalContracts": [],
      "isFixedGasLimit": false
    },
    {
      "hash": "0x05ffc9254be0051a0e6c64137f3c93aa481e71615e419aeaad199071e6c815eb",
      "transactionType": "CALL",
      "contractName": null,
      "contractAddress": "0xcbc72d92b2dc8187414f6734718563898740c0bc",
      "function": "transfer(address,uint256)",
      "arguments": [
        "0xf3aBC972A0f537c1119C990d422463b93227Cd83",
        "5000000000000000000000"
      ],
      "transaction": {
        "from": "0x65264bfc8cb0707d9cec36ec258ace23fd173947",
        "to": "0xcbc72d92b2dc8187414f6734718563898740c0bc",
        "gas": "0xe02d",
        "value": "0x0",
        "input": "0xa9059cbb000000000000000000000000f3abc972a0f537c1119c990d422463b93227cd8300000000000000000000000000000000000000000000010f0cf064dd59200000",
        "nonce": "0x13",
        "chainId": "0x1"
      },
      "additionalContracts": [],
      "isFixedGasLimit": false
    },
    {
      "hash": "0xecf600f265c8bc24af9dfe540b360207df05ffeb9891d9b81c36c8635cde6604",
      "transactionType": "CALL",
      "contractName": null,
      "contractAddress": "0xf3abc972a0f537c1119c990d422463b93227cd83",
      "function": "mintPY(address,address)",
      "arguments": [
        "0x65264bfc8cb0707D9Cec36Ec258aCE23fD173947",
        "0x65264bfc8cb0707D9Cec36Ec258aCE23fD173947"
      ],
      "transaction": {
        "from": "0x65264bfc8cb0707d9cec36ec258ace23fd173947",
        "to": "0xf3abc972a0f537c1119c990d422463b93227cd83",
        "gas": "0x29942",
        "value": "0x0",
        "input": "0xdb74aa1500000000000000000000000065264bfc8cb0707d9cec36ec258ace23fd17394700000000000000000000000065264bfc8cb0707d9cec36ec258ace23fd173947",
        "nonce": "0x14",
        "chainId": "0x1"
      },
      "additionalContracts": [],
      "isFixedGasLimit": false
    },
    {
      "hash": "0xf8a1f23c43cd05e925ae036572204da12a14e516ca03f0ef691f478e65e18aaa",
      "transactionType": "CALL",
      "contractName": null,
      "contractAddress": "0x7f39c581f595b53c5cb19bd0b3f8da6c935e2ca0",
      "function": "approve(address,uint256)",
      "arguments": [
        "0xe4e85530ad5c78F86bC766D8d13b793af9035E59",
        "115792089237316195423570985008687907853269984665640564039457584007913129639935"
      ],
      "transaction": {
        "from": "0x65264bfc8cb0707d9cec36ec258ace23fd173947",
        "to": "0x7f39c581f595b53c5cb19bd0b3f8da6c935e2ca0",
        "gas": "0x8fab",
        "value": "0x0",
        "input": "0x095ea7b3000000000000000000000000e4e85530ad5c78f86bc766d8d13b793af9035e59ffffffffffffffffffffffffffffffffffffffffffffffffffffffffffffffff",
        "nonce": "0x15",
        "chainId": "0x1"
      },
      "additionalContracts": [],
      "isFixedGasLimit": false
    },
    {
      "hash": "0x5e1c7aba4c0c8ba916b0cd2ef31c5a5ff3411581ec6f5dc14d5a9a602d066026",
      "transactionType": "CALL",
      "contractName": null,
      "contractAddress": "0xcbc72d92b2dc8187414f6734718563898740c0bc",
      "function": "approve(address,uint256)",
      "arguments": [
        "0xe4e85530ad5c78F86bC766D8d13b793af9035E59",
        "115792089237316195423570985008687907853269984665640564039457584007913129639935"
      ],
      "transaction": {
        "from": "0x65264bfc8cb0707d9cec36ec258ace23fd173947",
        "to": "0xcbc72d92b2dc8187414f6734718563898740c0bc",
        "gas": "0x989e",
        "value": "0x0",
        "input": "0x095ea7b3000000000000000000000000e4e85530ad5c78f86bc766d8d13b793af9035e59ffffffffffffffffffffffffffffffffffffffffffffffffffffffffffffffff",
        "nonce": "0x16",
        "chainId": "0x1"
      },
      "additionalContracts": [],
      "isFixedGasLimit": false
    },
    {
      "hash": "0x036ad63711f86d52399aae48233eb0f53fd6d8cad9e0b56be80222b89c752535",
      "transactionType": "CALL",
      "contractName": null,
      "contractAddress": "0xf99985822fb361117fcf3768d34a6353e6022f5f",
      "function": "approve(address,uint256)",
      "arguments": [
        "0xe4e85530ad5c78F86bC766D8d13b793af9035E59",
        "115792089237316195423570985008687907853269984665640564039457584007913129639935"
      ],
      "transaction": {
        "from": "0x65264bfc8cb0707d9cec36ec258ace23fd173947",
        "to": "0xf99985822fb361117fcf3768d34a6353e6022f5f",
        "gas": "0x8fe6",
        "value": "0x0",
        "input": "0x095ea7b3000000000000000000000000e4e85530ad5c78f86bc766d8d13b793af9035e59ffffffffffffffffffffffffffffffffffffffffffffffffffffffffffffffff",
        "nonce": "0x17",
        "chainId": "0x1"
      },
      "additionalContracts": [],
      "isFixedGasLimit": false
    },
    {
      "hash": "0x929399c1223db4bd384db192158f8593e0d370f5367be36147a32afbe866496c",
      "transactionType": "CALL",
      "contractName": null,
      "contractAddress": "0xf3abc972a0f537c1119c990d422463b93227cd83",
      "function": "approve(address,uint256)",
      "arguments": [
        "0xe4e85530ad5c78F86bC766D8d13b793af9035E59",
        "115792089237316195423570985008687907853269984665640564039457584007913129639935"
      ],
      "transaction": {
        "from": "0x65264bfc8cb0707d9cec36ec258ace23fd173947",
        "to": "0xf3abc972a0f537c1119c990d422463b93227cd83",
        "gas": "0x901f",
        "value": "0x0",
        "input": "0x095ea7b3000000000000000000000000e4e85530ad5c78f86bc766d8d13b793af9035e59ffffffffffffffffffffffffffffffffffffffffffffffffffffffffffffffff",
        "nonce": "0x18",
        "chainId": "0x1"
      },
      "additionalContracts": [],
      "isFixedGasLimit": false
    },
    {
      "hash": "0x1cc53115ce9a2dd47ff2b4b7258c0cdf3ca69b9ea642d869146084421cb356d5",
      "transactionType": "CALL",
      "contractName": null,
      "contractAddress": "0x7f39c581f595b53c5cb19bd0b3f8da6c935e2ca0",
      "function": "approve(address,uint256)",
      "arguments": [
        "0x00000000005BBB0EF59571E58418F9a4357b68A0",
        "115792089237316195423570985008687907853269984665640564039457584007913129639935"
      ],
      "transaction": {
        "from": "0x65264bfc8cb0707d9cec36ec258ace23fd173947",
        "to": "0x7f39c581f595b53c5cb19bd0b3f8da6c935e2ca0",
        "gas": "0x8f58",
        "value": "0x0",
        "input": "0x095ea7b300000000000000000000000000000000005bbb0ef59571e58418f9a4357b68a0ffffffffffffffffffffffffffffffffffffffffffffffffffffffffffffffff",
        "nonce": "0x19",
        "chainId": "0x1"
      },
      "additionalContracts": [],
      "isFixedGasLimit": false
    },
    {
      "hash": "0x3772d97aaae89391f4ad34503a1c4b5f924ba25bb3d4dc6b21e7f9beb8a5407f",
      "transactionType": "CALL",
      "contractName": null,
      "contractAddress": "0xcbc72d92b2dc8187414f6734718563898740c0bc",
      "function": "approve(address,uint256)",
      "arguments": [
        "0x00000000005BBB0EF59571E58418F9a4357b68A0",
        "115792089237316195423570985008687907853269984665640564039457584007913129639935"
      ],
      "transaction": {
        "from": "0x65264bfc8cb0707d9cec36ec258ace23fd173947",
        "to": "0xcbc72d92b2dc8187414f6734718563898740c0bc",
        "gas": "0x8fd0",
        "value": "0x0",
        "input": "0x095ea7b300000000000000000000000000000000005bbb0ef59571e58418f9a4357b68a0ffffffffffffffffffffffffffffffffffffffffffffffffffffffffffffffff",
        "nonce": "0x1a",
        "chainId": "0x1"
      },
      "additionalContracts": [],
      "isFixedGasLimit": false
    },
    {
      "hash": "0x0ce653c205510ba17d409eb2674278dc3725fb1006a8b5a31fc994c9dc24a76b",
      "transactionType": "CALL",
      "contractName": null,
      "contractAddress": "0xf99985822fb361117fcf3768d34a6353e6022f5f",
      "function": "approve(address,uint256)",
      "arguments": [
        "0x00000000005BBB0EF59571E58418F9a4357b68A0",
        "115792089237316195423570985008687907853269984665640564039457584007913129639935"
      ],
      "transaction": {
        "from": "0x65264bfc8cb0707d9cec36ec258ace23fd173947",
        "to": "0xf99985822fb361117fcf3768d34a6353e6022f5f",
        "gas": "0x9806",
        "value": "0x0",
        "input": "0x095ea7b300000000000000000000000000000000005bbb0ef59571e58418f9a4357b68a0ffffffffffffffffffffffffffffffffffffffffffffffffffffffffffffffff",
        "nonce": "0x1b",
        "chainId": "0x1"
      },
      "additionalContracts": [],
      "isFixedGasLimit": false
    },
    {
      "hash": "0xd0ed3b8cee1612c029514d5c8b23eb384f788aeb537f4572ebb2a038fec0fff8",
      "transactionType": "CALL",
      "contractName": null,
      "contractAddress": "0xf3abc972a0f537c1119c990d422463b93227cd83",
      "function": "approve(address,uint256)",
      "arguments": [
        "0x00000000005BBB0EF59571E58418F9a4357b68A0",
        "115792089237316195423570985008687907853269984665640564039457584007913129639935"
      ],
      "transaction": {
        "from": "0x65264bfc8cb0707d9cec36ec258ace23fd173947",
        "to": "0xf3abc972a0f537c1119c990d422463b93227cd83",
        "gas": "0x8fcc",
        "value": "0x0",
        "input": "0x095ea7b300000000000000000000000000000000005bbb0ef59571e58418f9a4357b68a0ffffffffffffffffffffffffffffffffffffffffffffffffffffffffffffffff",
        "nonce": "0x1c",
        "chainId": "0x1"
      },
      "additionalContracts": [],
      "isFixedGasLimit": false
    },
    {
      "hash": "0xcef2c3f7922a3519d59c2d84a2eddce0d2968e6abb7f08943b2244855573f474",
      "transactionType": "CALL",
      "contractName": null,
      "contractAddress": "0xc374f7ec85f8c7de3207a10bb1978ba104bda3b2",
      "function": "approve(address,uint256)",
      "arguments": [
        "0x00000000005BBB0EF59571E58418F9a4357b68A0",
        "115792089237316195423570985008687907853269984665640564039457584007913129639935"
      ],
      "transaction": {
        "from": "0x65264bfc8cb0707d9cec36ec258ace23fd173947",
        "to": "0xc374f7ec85f8c7de3207a10bb1978ba104bda3b2",
        "gas": "0x9862",
        "value": "0x0",
        "input": "0x095ea7b300000000000000000000000000000000005bbb0ef59571e58418f9a4357b68a0ffffffffffffffffffffffffffffffffffffffffffffffffffffffffffffffff",
        "nonce": "0x1d",
        "chainId": "0x1"
      },
      "additionalContracts": [],
      "isFixedGasLimit": false
    },
    {
      "hash": "0x7485789086240c17cab5dc75922d1f84e3fbc5a7d4a4f11ada92711ed22a032d",
      "transactionType": "CALL",
      "contractName": "RMM",
      "contractAddress": "0xe4e85530ad5c78f86bc766d8d13b793af9035e59",
      "function": "init(address,uint256,uint256,uint256,uint256,uint256,address)",
      "arguments": [
        "0xf99985822fb361117FCf3768D34a6353E6022F5F",
        "1067046630130264557",
        "3893316361608102508603",
        "1095571575747905310",
        "20000000000000000",
        "200000000000000",
        "0x0000000000000000000000000000000000000055"
      ],
      "transaction": {
        "from": "0x65264bfc8cb0707d9cec36ec258ace23fd173947",
        "to": "0xe4e85530ad5c78f86bc766d8d13b793af9035e59",
        "gas": "0x1009b8",
        "value": "0x0",
        "input": "0x71ced336000000000000000000000000f99985822fb361117fcf3768d34a6353e6022f5f0000000000000000000000000000000000000000000000000ecee941b3b129ed0000000000000000000000000000000000000000000000d30e9e4b355b39783b0000000000000000000000000000000000000000000000000f34408b2678071e00000000000000000000000000000000000000000000000000470de4df8200000000000000000000000000000000000000000000000000000000b5e620f480000000000000000000000000000000000000000000000000000000000000000055",
        "nonce": "0x1e",
        "chainId": "0x1"
      },
      "additionalContracts": [],
      "isFixedGasLimit": false
    }
  ],
  "receipts": [
    {
      "status": "0x1",
      "cumulativeGasUsed": "0x418ff1",
      "logs": [
        {
          "address": "0x519172bb1f45a5420090f03bafd19a76ac9bc772",
          "topics": [
            "0x87872cff65bf8ca4f79a292cd9e53c91877091fce56b3f9b04d976be3287a51d",
            "0x00000000000000000000000065264bfc8cb0707d9cec36ec258ace23fd173947",
            "0x000000000000000000000000e4e85530ad5c78f86bc766d8d13b793af9035e59"
          ],
          "data": "0x00000000000000000000000000000000000000000000000000000000000000400000000000000000000000000000000000000000000000000000000000000080000000000000000000000000000000000000000000000000000000000000001b4c69646f205374616b6564204554482032342044656320323032350000000000000000000000000000000000000000000000000000000000000000000000000d73744554482d3234444543323500000000000000000000000000000000000000",
          "blockHash": "0x7c5ca70548a07e14ecb2fe148638cba95d2a1ea24afafa8f7bd2c0a40d9cea8a",
          "blockNumber": "0x12ec246",
          "transactionHash": "0x9f762a428319b61dc41054ac95caed332e1a78d9556dc8b112951cfaacfe6e28",
          "transactionIndex": "0x0",
          "logIndex": "0x0",
          "removed": false
        }
      ],
      "logsBloom": "0x00000000000000000000000000000000000000000000000000000000000000000000000000000000008000000000000000000000000000000000002000000800000800000000000000000000000000000000000000000000000000000000000000000000000000000000000000800000000008000000000000000002002000000000000000000000000000000000000000000000000000000000000000000000000000000000000000000000000000000000000000000000000000000000000000400000000000000000000000000080000000000000000000000000000000000000000000000000000000000000000000000400000000000010000000000000",
      "type": "0x2",
      "transactionHash": "0x9f762a428319b61dc41054ac95caed332e1a78d9556dc8b112951cfaacfe6e28",
      "transactionIndex": "0x0",
      "blockHash": "0x7c5ca70548a07e14ecb2fe148638cba95d2a1ea24afafa8f7bd2c0a40d9cea8a",
      "blockNumber": "0x12ec246",
      "gasUsed": "0x418ff1",
      "effectiveGasPrice": "0x2",
      "blobGasUsed": "0x0",
      "from": "0x65264bfc8cb0707d9cec36ec258ace23fd173947",
      "to": "0x519172bb1f45a5420090f03bafd19a76ac9bc772",
      "contractAddress": null
    },
    {
      "status": "0x1",
      "cumulativeGasUsed": "0x72f4",
      "logs": [
        {
          "address": "0x7f39c581f595b53c5cb19bd0b3f8da6c935e2ca0",
          "topics": [
            "0x8c5be1e5ebec7d5bd14f71427d1e84f3dd0314c0f7b2291e5b200ac8c7c3b925",
            "0x00000000000000000000000065264bfc8cb0707d9cec36ec258ace23fd173947",
            "0x000000000000000000000000cbc72d92b2dc8187414f6734718563898740c0bc"
          ],
          "data": "0xffffffffffffffffffffffffffffffffffffffffffffffffffffffffffffffff",
          "blockHash": "0xf0b9bf2b1fd7d67e2886f50956b78a67ccc24ae1f394df323abff4900e15a24e",
          "blockNumber": "0x12ec247",
          "transactionHash": "0x87f7bb32032b0f823da4dffec43c1f8e0d0a42d7ba4b8ae6e2ad0009ffb850e1",
          "transactionIndex": "0x0",
          "logIndex": "0x0",
          "removed": false
        }
      ],
      "logsBloom": "0x00000000000000000000000000000000000000001000000000000000000000000000000000000000000000000000000000000000000000000000000000200800000000000000000000000000000000000000000000000000000000000000000000000000000000000000000000000001000000000000000000000002000000000000000000000000000080000000000000000000000000000000000000000000020000000000000000000000000000000000000000000000000000000000000000000000000000100000000000000400000000000000000000000000000000000010000000000000000000008000000000000000000000000010000000000000",
      "type": "0x2",
      "transactionHash": "0x87f7bb32032b0f823da4dffec43c1f8e0d0a42d7ba4b8ae6e2ad0009ffb850e1",
      "transactionIndex": "0x0",
      "blockHash": "0xf0b9bf2b1fd7d67e2886f50956b78a67ccc24ae1f394df323abff4900e15a24e",
      "blockNumber": "0x12ec247",
      "gasUsed": "0x72f4",
      "effectiveGasPrice": "0x2",
      "blobGasUsed": "0x0",
      "from": "0x65264bfc8cb0707d9cec36ec258ace23fd173947",
      "to": "0x7f39c581f595b53c5cb19bd0b3f8da6c935e2ca0",
      "contractAddress": null
    },
    {
      "status": "0x1",
      "cumulativeGasUsed": "0xff11",
      "logs": [
        {
          "address": "0x7f39c581f595b53c5cb19bd0b3f8da6c935e2ca0",
          "topics": [
            "0xddf252ad1be2c89b69c2b068fc378daa952ba7f163c4a11628f55a4df523b3ef",
            "0x00000000000000000000000065264bfc8cb0707d9cec36ec258ace23fd173947",
            "0x000000000000000000000000cbc72d92b2dc8187414f6734718563898740c0bc"
          ],
          "data": "0x00000000000000000000000000000000000000000000021e19e0c9bab2400000",
          "blockHash": "0x7deff30a4940393a59a89fd88a8ded2a060436f73f1d111ad9b8a72a7cea23da",
          "blockNumber": "0x12ec248",
          "transactionHash": "0xa051a5b8a2167c45ff616a5bc4f95d68c86791b0f05c93e4d7106c4c731bae01",
          "transactionIndex": "0x0",
          "logIndex": "0x0",
          "removed": false
        },
        {
          "address": "0x7f39c581f595b53c5cb19bd0b3f8da6c935e2ca0",
          "topics": [
            "0x8c5be1e5ebec7d5bd14f71427d1e84f3dd0314c0f7b2291e5b200ac8c7c3b925",
            "0x00000000000000000000000065264bfc8cb0707d9cec36ec258ace23fd173947",
            "0x000000000000000000000000cbc72d92b2dc8187414f6734718563898740c0bc"
          ],
          "data": "0xfffffffffffffffffffffffffffffffffffffffffffffde1e61f36454dbfffff",
          "blockHash": "0x7deff30a4940393a59a89fd88a8ded2a060436f73f1d111ad9b8a72a7cea23da",
          "blockNumber": "0x12ec248",
          "transactionHash": "0xa051a5b8a2167c45ff616a5bc4f95d68c86791b0f05c93e4d7106c4c731bae01",
          "transactionIndex": "0x0",
          "logIndex": "0x1",
          "removed": false
        },
        {
          "address": "0xcbc72d92b2dc8187414f6734718563898740c0bc",
          "topics": [
            "0xddf252ad1be2c89b69c2b068fc378daa952ba7f163c4a11628f55a4df523b3ef",
            "0x0000000000000000000000000000000000000000000000000000000000000000",
            "0x00000000000000000000000065264bfc8cb0707d9cec36ec258ace23fd173947"
          ],
          "data": "0x00000000000000000000000000000000000000000000021e19e0c9bab2400000",
          "blockHash": "0x7deff30a4940393a59a89fd88a8ded2a060436f73f1d111ad9b8a72a7cea23da",
          "blockNumber": "0x12ec248",
          "transactionHash": "0xa051a5b8a2167c45ff616a5bc4f95d68c86791b0f05c93e4d7106c4c731bae01",
          "transactionIndex": "0x0",
          "logIndex": "0x2",
          "removed": false
        },
        {
          "address": "0xcbc72d92b2dc8187414f6734718563898740c0bc",
          "topics": [
            "0x5fe47ed6d4225326d3303476197d782ded5a4e9c14f479dc9ec4992af4e85d59",
            "0x00000000000000000000000065264bfc8cb0707d9cec36ec258ace23fd173947",
            "0x00000000000000000000000065264bfc8cb0707d9cec36ec258ace23fd173947",
            "0x0000000000000000000000007f39c581f595b53c5cb19bd0b3f8da6c935e2ca0"
          ],
          "data": "0x00000000000000000000000000000000000000000000021e19e0c9bab240000000000000000000000000000000000000000000000000021e19e0c9bab2400000",
          "blockHash": "0x7deff30a4940393a59a89fd88a8ded2a060436f73f1d111ad9b8a72a7cea23da",
          "blockNumber": "0x12ec248",
          "transactionHash": "0xa051a5b8a2167c45ff616a5bc4f95d68c86791b0f05c93e4d7106c4c731bae01",
          "transactionIndex": "0x0",
          "logIndex": "0x3",
          "removed": false
        }
      ],
      "logsBloom": "0x00000000000000000000000000000000000000001000000000000000000000000000000000000000000000000002000000000000010000000000000000200800000000000000000000000008000000000000000000000000080000000000000000000000020000000040000000000801000000000000000000000012000000000000000010000000000080000000000000000000000000000000000000002000020000000000000000000000000000100000000000000000000000000000000000000002000000100000000000000480000000000000000000000000000020000010000000000000000000008000000000000000004000000010000000000000",
      "type": "0x2",
      "transactionHash": "0xa051a5b8a2167c45ff616a5bc4f95d68c86791b0f05c93e4d7106c4c731bae01",
      "transactionIndex": "0x0",
      "blockHash": "0x7deff30a4940393a59a89fd88a8ded2a060436f73f1d111ad9b8a72a7cea23da",
      "blockNumber": "0x12ec248",
      "gasUsed": "0xff11",
      "effectiveGasPrice": "0x2",
      "blobGasUsed": "0x0",
      "from": "0x65264bfc8cb0707d9cec36ec258ace23fd173947",
      "to": "0xcbc72d92b2dc8187414f6734718563898740c0bc",
      "contractAddress": null
    },
    {
      "status": "0x1",
      "cumulativeGasUsed": "0x6804",
      "logs": [
        {
          "address": "0x7f39c581f595b53c5cb19bd0b3f8da6c935e2ca0",
          "topics": [
            "0x8c5be1e5ebec7d5bd14f71427d1e84f3dd0314c0f7b2291e5b200ac8c7c3b925",
            "0x00000000000000000000000065264bfc8cb0707d9cec36ec258ace23fd173947",
            "0x000000000000000000000000e4e85530ad5c78f86bc766d8d13b793af9035e59"
          ],
          "data": "0xffffffffffffffffffffffffffffffffffffffffffffffffffffffffffffffff",
          "blockHash": "0xe940fbec1fdbc574c2f2e38c3c65f355c85e105422641dba1885484b6d9c8ab7",
          "blockNumber": "0x12ec249",
          "transactionHash": "0xf8a1f23c43cd05e925ae036572204da12a14e516ca03f0ef691f478e65e18aaa",
          "transactionIndex": "0x0",
          "logIndex": "0x0",
          "removed": false
        }
      ],
      "logsBloom": "0x00000000000000000000000000000000000000000000000000000000000000000000000000000000008000000000000000000000000000000000002000200800000000000000000000000000000000000000000000000000000000000000000000000000000000000000000000800000000000000000000000000002000000000000000000000000000080000000000000000000000000000000000000000000020000000000000000000000000000000000000000000000000000000000000000000000000000100000000000000000000000000000000000000000000000000010000000000000000000008000000000000000000000000010000000000000",
      "type": "0x2",
      "transactionHash": "0xf8a1f23c43cd05e925ae036572204da12a14e516ca03f0ef691f478e65e18aaa",
      "transactionIndex": "0x0",
      "blockHash": "0xe940fbec1fdbc574c2f2e38c3c65f355c85e105422641dba1885484b6d9c8ab7",
      "blockNumber": "0x12ec249",
      "gasUsed": "0x6804",
      "effectiveGasPrice": "0x2",
      "blobGasUsed": "0x0",
      "from": "0x65264bfc8cb0707d9cec36ec258ace23fd173947",
      "to": "0x7f39c581f595b53c5cb19bd0b3f8da6c935e2ca0",
      "contractAddress": null
    },
    {
      "status": "0x1",
      "cumulativeGasUsed": "0x685b",
      "logs": [
        {
          "address": "0xcbc72d92b2dc8187414f6734718563898740c0bc",
          "topics": [
            "0x8c5be1e5ebec7d5bd14f71427d1e84f3dd0314c0f7b2291e5b200ac8c7c3b925",
            "0x00000000000000000000000065264bfc8cb0707d9cec36ec258ace23fd173947",
            "0x000000000000000000000000e4e85530ad5c78f86bc766d8d13b793af9035e59"
          ],
          "data": "0xffffffffffffffffffffffffffffffffffffffffffffffffffffffffffffffff",
          "blockHash": "0x90fed2ba780962ec5b6ccb0701dfe7eb81224e7c685f7349bfbe713450062872",
          "blockNumber": "0x12ec24a",
          "transactionHash": "0x5e1c7aba4c0c8ba916b0cd2ef31c5a5ff3411581ec6f5dc14d5a9a602d066026",
          "transactionIndex": "0x0",
          "logIndex": "0x0",
          "removed": false
        }
      ],
      "logsBloom": "0x00000000000000000000000000000000000000000000000000000000000000000000000000000000008000000002000000000000000000000000002000200800000000000000000000000000000000000000000000000000000000000000000000000000000000000040000000800000000000000000000000000002000000000000000000000000000000000000000000000000000000000000000000000000020000000000000000000000000000100000000000000000000000000000000000000000000000000000000000000000000000000000000000000000000000000010000000000000000000000000000000000000000000000010000000000000",
      "type": "0x2",
      "transactionHash": "0x5e1c7aba4c0c8ba916b0cd2ef31c5a5ff3411581ec6f5dc14d5a9a602d066026",
      "transactionIndex": "0x0",
      "blockHash": "0x90fed2ba780962ec5b6ccb0701dfe7eb81224e7c685f7349bfbe713450062872",
      "blockNumber": "0x12ec24a",
      "gasUsed": "0x685b",
      "effectiveGasPrice": "0x2",
      "blobGasUsed": "0x0",
      "from": "0x65264bfc8cb0707d9cec36ec258ace23fd173947",
      "to": "0xcbc72d92b2dc8187414f6734718563898740c0bc",
      "contractAddress": null
    },
    {
      "status": "0x1",
      "cumulativeGasUsed": "0x9949",
      "logs": [
        {
          "address": "0xcbc72d92b2dc8187414f6734718563898740c0bc",
          "topics": [
            "0xddf252ad1be2c89b69c2b068fc378daa952ba7f163c4a11628f55a4df523b3ef",
            "0x00000000000000000000000065264bfc8cb0707d9cec36ec258ace23fd173947",
            "0x000000000000000000000000f3abc972a0f537c1119c990d422463b93227cd83"
          ],
          "data": "0x00000000000000000000000000000000000000000000010f0cf064dd59200000",
          "blockHash": "0x3122703ca9fb12ca5d14a0396479d8a8c60342e467c6a4b4203f48e16a84582f",
          "blockNumber": "0x12ec24b",
          "transactionHash": "0x05ffc9254be0051a0e6c64137f3c93aa481e71615e419aeaad199071e6c815eb",
          "transactionIndex": "0x0",
          "logIndex": "0x0",
          "removed": false
        }
      ],
      "logsBloom": "0x00000000000000000000000000000000000000000000000000000000000000000000000000000000000000000002000000000000000000000000000000000800000000000000000000000008000000000000000000000000000000000000000000000001000000000040000000000000000000000000000000000012000000000000000000000000000000000000000000000000000000000000000000000000000000000000000000000000000000100001000000000000400000000000000000000002000000000000000000000000000000000000000000000000000000000000000000000000000000000000000000000000000000000010000000000000",
      "type": "0x2",
      "transactionHash": "0x05ffc9254be0051a0e6c64137f3c93aa481e71615e419aeaad199071e6c815eb",
      "transactionIndex": "0x0",
      "blockHash": "0x3122703ca9fb12ca5d14a0396479d8a8c60342e467c6a4b4203f48e16a84582f",
      "blockNumber": "0x12ec24b",
      "gasUsed": "0x9949",
      "effectiveGasPrice": "0x2",
      "blobGasUsed": "0x0",
      "from": "0x65264bfc8cb0707d9cec36ec258ace23fd173947",
      "to": "0xcbc72d92b2dc8187414f6734718563898740c0bc",
      "contractAddress": null
    },
    {
      "status": "0x1",
      "cumulativeGasUsed": "0x682f",
      "logs": [
        {
          "address": "0xf99985822fb361117fcf3768d34a6353e6022f5f",
          "topics": [
            "0x8c5be1e5ebec7d5bd14f71427d1e84f3dd0314c0f7b2291e5b200ac8c7c3b925",
            "0x00000000000000000000000065264bfc8cb0707d9cec36ec258ace23fd173947",
            "0x000000000000000000000000e4e85530ad5c78f86bc766d8d13b793af9035e59"
          ],
          "data": "0xffffffffffffffffffffffffffffffffffffffffffffffffffffffffffffffff",
          "blockHash": "0x33dd8c8c1c15a5c804eaa035a1df85b4be60a574b14f1f717b48c854e04c816a",
          "blockNumber": "0x12ec24c",
          "transactionHash": "0x036ad63711f86d52399aae48233eb0f53fd6d8cad9e0b56be80222b89c752535",
          "transactionIndex": "0x0",
          "logIndex": "0x0",
          "removed": false
        }
      ],
      "logsBloom": "0x00000000000000000000000000000000000000000000000000000000000000000000000000000000008000000000000000000000000000000000002000200800000000000000000000000000000000000000000000000000000000000000000000000020000000000000000000800000000000000000000000000002000000000000000000000000000000000800000000000000000000000000000000000000020000000000000000000200000000000000000000000000000000000000000000000000000000000000000000000000000000000000000000000000000000000010000000000000000000000000000000000000000000000010000000000000",
      "type": "0x2",
      "transactionHash": "0x036ad63711f86d52399aae48233eb0f53fd6d8cad9e0b56be80222b89c752535",
      "transactionIndex": "0x0",
      "blockHash": "0x33dd8c8c1c15a5c804eaa035a1df85b4be60a574b14f1f717b48c854e04c816a",
      "blockNumber": "0x12ec24c",
      "gasUsed": "0x682f",
      "effectiveGasPrice": "0x2",
      "blobGasUsed": "0x0",
      "from": "0x65264bfc8cb0707d9cec36ec258ace23fd173947",
      "to": "0xf99985822fb361117fcf3768d34a6353e6022f5f",
      "contractAddress": null
    },
    {
      "status": "0x1",
      "cumulativeGasUsed": "0x1c6e1",
      "logs": [
        {
          "address": "0xf3abc972a0f537c1119c990d422463b93227cd83",
          "topics": [
            "0x71475f2f645813fdbebf53a58968008bff11ee21a58f01c5a9cc263d0bc4703d",
            "0x000000000000000000000000000000000000000000000000102f350d68ef966f"
          ],
          "data": "0x",
          "blockHash": "0xb5d6194e1a6213ae735b26ccec8df55fb3cdc78a42c719656d3e44b2f3281a5f",
          "blockNumber": "0x12ec24d",
          "transactionHash": "0xecf600f265c8bc24af9dfe540b360207df05ffeb9891d9b81c36c8635cde6604",
          "transactionIndex": "0x0",
          "logIndex": "0x0",
          "removed": false
        },
        {
          "address": "0xf3abc972a0f537c1119c990d422463b93227cd83",
          "topics": [
            "0xddf252ad1be2c89b69c2b068fc378daa952ba7f163c4a11628f55a4df523b3ef",
            "0x0000000000000000000000000000000000000000000000000000000000000000",
            "0x00000000000000000000000065264bfc8cb0707d9cec36ec258ace23fd173947"
          ],
          "data": "0x00000000000000000000000000000000000000000000013c1a042de9877227f8",
          "blockHash": "0xb5d6194e1a6213ae735b26ccec8df55fb3cdc78a42c719656d3e44b2f3281a5f",
          "blockNumber": "0x12ec24d",
          "transactionHash": "0xecf600f265c8bc24af9dfe540b360207df05ffeb9891d9b81c36c8635cde6604",
          "transactionIndex": "0x0",
          "logIndex": "0x1",
          "removed": false
        },
        {
          "address": "0xf99985822fb361117fcf3768d34a6353e6022f5f",
          "topics": [
            "0xddf252ad1be2c89b69c2b068fc378daa952ba7f163c4a11628f55a4df523b3ef",
            "0x0000000000000000000000000000000000000000000000000000000000000000",
            "0x00000000000000000000000065264bfc8cb0707d9cec36ec258ace23fd173947"
          ],
          "data": "0x00000000000000000000000000000000000000000000013c1a042de9877227f8",
          "blockHash": "0xb5d6194e1a6213ae735b26ccec8df55fb3cdc78a42c719656d3e44b2f3281a5f",
          "blockNumber": "0x12ec24d",
          "transactionHash": "0xecf600f265c8bc24af9dfe540b360207df05ffeb9891d9b81c36c8635cde6604",
          "transactionIndex": "0x0",
          "logIndex": "0x2",
          "removed": false
        },
        {
          "address": "0xf3abc972a0f537c1119c990d422463b93227cd83",
          "topics": [
            "0xc0025304673122449dd60b9b0093874b0e2fd6fe57af1c7c2fbfee0ccf5ead58",
            "0x00000000000000000000000065264bfc8cb0707d9cec36ec258ace23fd173947",
            "0x00000000000000000000000065264bfc8cb0707d9cec36ec258ace23fd173947",
            "0x00000000000000000000000065264bfc8cb0707d9cec36ec258ace23fd173947"
          ],
          "data": "0x00000000000000000000000000000000000000000000010f0cf064dd5920000000000000000000000000000000000000000000000000013c1a042de9877227f8",
          "blockHash": "0xb5d6194e1a6213ae735b26ccec8df55fb3cdc78a42c719656d3e44b2f3281a5f",
          "blockNumber": "0x12ec24d",
          "transactionHash": "0xecf600f265c8bc24af9dfe540b360207df05ffeb9891d9b81c36c8635cde6604",
          "transactionIndex": "0x0",
          "logIndex": "0x3",
          "removed": false
        }
      ],
      "logsBloom": "0x00000000000000000000000000400000010000000000000000000000000000000000000000000000000000000000000000000000000000000000000000000800000000000000000000000008000000008000000000000000000000000000000000010020020000000000000000000800000000000000000000000012000000000002000000000000000000000800400000000200000000000000000000000000000000000000000000000200000000000000000000000000000000000000000000200002000000000000000000200000000000000000000000000000000020000000000000000000000000010000000000000000000000010090000000000000",
      "type": "0x2",
      "transactionHash": "0xecf600f265c8bc24af9dfe540b360207df05ffeb9891d9b81c36c8635cde6604",
      "transactionIndex": "0x0",
      "blockHash": "0xb5d6194e1a6213ae735b26ccec8df55fb3cdc78a42c719656d3e44b2f3281a5f",
      "blockNumber": "0x12ec24d",
      "gasUsed": "0x1c6e1",
      "effectiveGasPrice": "0x2",
      "blobGasUsed": "0x0",
      "from": "0x65264bfc8cb0707d9cec36ec258ace23fd173947",
      "to": "0xf3abc972a0f537c1119c990d422463b93227cd83",
      "contractAddress": null
    },
    {
      "status": "0x1",
      "cumulativeGasUsed": "0x6858",
      "logs": [
        {
          "address": "0xf3abc972a0f537c1119c990d422463b93227cd83",
          "topics": [
            "0x8c5be1e5ebec7d5bd14f71427d1e84f3dd0314c0f7b2291e5b200ac8c7c3b925",
            "0x00000000000000000000000065264bfc8cb0707d9cec36ec258ace23fd173947",
            "0x000000000000000000000000e4e85530ad5c78f86bc766d8d13b793af9035e59"
          ],
          "data": "0xffffffffffffffffffffffffffffffffffffffffffffffffffffffffffffffff",
          "blockHash": "0xa4f59bbbd80efafbad940479667facaa81e45eceeffe0112779920093b8a59f7",
          "blockNumber": "0x12ec24e",
          "transactionHash": "0x929399c1223db4bd384db192158f8593e0d370f5367be36147a32afbe866496c",
          "transactionIndex": "0x0",
          "logIndex": "0x0",
          "removed": false
        }
      ],
      "logsBloom": "0x00000000000000000000000000000000000000000000000000000000000000000000000000000000008000000000000000000000000000000000002000200800000000000000000000000000000000000000000000000000000000000000000000010000000000000000000000800000000000000000000000000002000000000000000000000000000000000000000000000000000000000000000000000000020000000000000000000000000000000000000000000000000000000000000000000000000000000000000000000000000000000000000000000000000000000010000000000000000000000000000000000000000000010090000000000000",
      "type": "0x2",
      "transactionHash": "0x929399c1223db4bd384db192158f8593e0d370f5367be36147a32afbe866496c",
      "transactionIndex": "0x0",
      "blockHash": "0xa4f59bbbd80efafbad940479667facaa81e45eceeffe0112779920093b8a59f7",
      "blockNumber": "0x12ec24e",
      "gasUsed": "0x6858",
      "effectiveGasPrice": "0x2",
      "blobGasUsed": "0x0",
      "from": "0x65264bfc8cb0707d9cec36ec258ace23fd173947",
      "to": "0xf3abc972a0f537c1119c990d422463b93227cd83",
      "contractAddress": null
    },
    {
      "status": "0x1",
      "cumulativeGasUsed": "0x67c8",
      "logs": [
        {
          "address": "0x7f39c581f595b53c5cb19bd0b3f8da6c935e2ca0",
          "topics": [
            "0x8c5be1e5ebec7d5bd14f71427d1e84f3dd0314c0f7b2291e5b200ac8c7c3b925",
            "0x00000000000000000000000065264bfc8cb0707d9cec36ec258ace23fd173947",
            "0x00000000000000000000000000000000005bbb0ef59571e58418f9a4357b68a0"
          ],
          "data": "0xffffffffffffffffffffffffffffffffffffffffffffffffffffffffffffffff",
          "blockHash": "0x966c63777ff371077317abc2e529fd38591cb8169eab7744743cb26e9e4b8437",
          "blockNumber": "0x12ec24f",
          "transactionHash": "0x1cc53115ce9a2dd47ff2b4b7258c0cdf3ca69b9ea642d869146084421cb356d5",
          "transactionIndex": "0x0",
          "logIndex": "0x0",
          "removed": false
        }
      ],
      "logsBloom": "0x00000000000000000000000000000000000000000000000000000000000000000000000000000000400000000000000000000000000000000000000000200800000000000000000000000000000000000000000000000000000000000000000000000000000000000000000000000000000000000000000000000002000000000000000000000000000080000000000000000000000000000000000000000000020000000080000000000000000000000000000000000000000000000000000000000000000000100040000000000000000000000000000000000000000000000010000000000000000000008000000000000000000000000010000000000000",
      "type": "0x2",
      "transactionHash": "0x1cc53115ce9a2dd47ff2b4b7258c0cdf3ca69b9ea642d869146084421cb356d5",
      "transactionIndex": "0x0",
      "blockHash": "0x966c63777ff371077317abc2e529fd38591cb8169eab7744743cb26e9e4b8437",
      "blockNumber": "0x12ec24f",
      "gasUsed": "0x67c8",
      "effectiveGasPrice": "0x2",
      "blobGasUsed": "0x0",
      "from": "0x65264bfc8cb0707d9cec36ec258ace23fd173947",
      "to": "0x7f39c581f595b53c5cb19bd0b3f8da6c935e2ca0",
      "contractAddress": null
    },
    {
      "status": "0x1",
      "cumulativeGasUsed": "0x681f",
      "logs": [
        {
          "address": "0xcbc72d92b2dc8187414f6734718563898740c0bc",
          "topics": [
            "0x8c5be1e5ebec7d5bd14f71427d1e84f3dd0314c0f7b2291e5b200ac8c7c3b925",
            "0x00000000000000000000000065264bfc8cb0707d9cec36ec258ace23fd173947",
            "0x00000000000000000000000000000000005bbb0ef59571e58418f9a4357b68a0"
          ],
          "data": "0xffffffffffffffffffffffffffffffffffffffffffffffffffffffffffffffff",
          "blockHash": "0xaea144a9ec7bac96dbfeec359f553d23b6dbfb25a2534bd353aa560116d9688e",
          "blockNumber": "0x12ec250",
          "transactionHash": "0x3772d97aaae89391f4ad34503a1c4b5f924ba25bb3d4dc6b21e7f9beb8a5407f",
          "transactionIndex": "0x0",
          "logIndex": "0x0",
          "removed": false
        }
      ],
      "logsBloom": "0x00000000000000000000000000000000000000000000000000000000000000000000000000000000400000000002000000000000000000000000000000200800000000000000000000000000000000000000000000000000000000000000000000000000000000000040000000000000000000000000000000000002000000000000000000000000000000000000000000000000000000000000000000000000020000000080000000000000000000100000000000000000000000000000000000000000000000000040000000000000000000000000000000000000000000000010000000000000000000000000000000000000000000000010000000000000",
      "type": "0x2",
      "transactionHash": "0x3772d97aaae89391f4ad34503a1c4b5f924ba25bb3d4dc6b21e7f9beb8a5407f",
      "transactionIndex": "0x0",
      "blockHash": "0xaea144a9ec7bac96dbfeec359f553d23b6dbfb25a2534bd353aa560116d9688e",
      "blockNumber": "0x12ec250",
      "gasUsed": "0x681f",
      "effectiveGasPrice": "0x2",
      "blobGasUsed": "0x0",
      "from": "0x65264bfc8cb0707d9cec36ec258ace23fd173947",
      "to": "0xcbc72d92b2dc8187414f6734718563898740c0bc",
      "contractAddress": null
    },
    {
      "status": "0x1",
      "cumulativeGasUsed": "0x681c",
      "logs": [
        {
          "address": "0xf3abc972a0f537c1119c990d422463b93227cd83",
          "topics": [
            "0x8c5be1e5ebec7d5bd14f71427d1e84f3dd0314c0f7b2291e5b200ac8c7c3b925",
            "0x00000000000000000000000065264bfc8cb0707d9cec36ec258ace23fd173947",
            "0x00000000000000000000000000000000005bbb0ef59571e58418f9a4357b68a0"
          ],
          "data": "0xffffffffffffffffffffffffffffffffffffffffffffffffffffffffffffffff",
          "blockHash": "0xfba0e99b10c307cee92e419c9efd595b95f1b38620f4f07dbdb6b41dce3b56a8",
          "blockNumber": "0x12ec251",
          "transactionHash": "0xd0ed3b8cee1612c029514d5c8b23eb384f788aeb537f4572ebb2a038fec0fff8",
          "transactionIndex": "0x0",
          "logIndex": "0x0",
          "removed": false
        }
      ],
      "logsBloom": "0x00000000000000000000000000000000000000000000000000000000000000000000000000000000400000000000000000000000000000000000000000200800000000000000000000000000000000000000000000000000000000000000000000010000000000000000000000000000000000000000000000000002000000000000000000000000000000000000000000000000000000000000000000000000020000000080000000000000000000000000000000000000000000000000000000000000000000000040000000000000000000000000000000000000000000000010000000000000000000000000000000000000000000010090000000000000",
      "type": "0x2",
      "transactionHash": "0xd0ed3b8cee1612c029514d5c8b23eb384f788aeb537f4572ebb2a038fec0fff8",
      "transactionIndex": "0x0",
      "blockHash": "0xfba0e99b10c307cee92e419c9efd595b95f1b38620f4f07dbdb6b41dce3b56a8",
      "blockNumber": "0x12ec251",
      "gasUsed": "0x681c",
      "effectiveGasPrice": "0x2",
      "blobGasUsed": "0x0",
      "from": "0x65264bfc8cb0707d9cec36ec258ace23fd173947",
      "to": "0xf3abc972a0f537c1119c990d422463b93227cd83",
      "contractAddress": null
    },
    {
      "status": "0x1",
      "cumulativeGasUsed": "0xc3655",
      "logs": [
        {
          "address": "0xf3abc972a0f537c1119c990d422463b93227cd83",
          "topics": [
            "0x71475f2f645813fdbebf53a58968008bff11ee21a58f01c5a9cc263d0bc4703d",
            "0x000000000000000000000000000000000000000000000000102f350d68ef966f"
          ],
          "data": "0x",
          "blockHash": "0xee48450c28f08d4030fccb4cecfc0c0155620b62f057ece7bff3859655461810",
          "blockNumber": "0x12ec252",
          "transactionHash": "0x7485789086240c17cab5dc75922d1f84e3fbc5a7d4a4f11ada92711ed22a032d",
          "transactionIndex": "0x0",
          "logIndex": "0x0",
          "removed": false
        },
        {
          "address": "0xe4e85530ad5c78f86bc766d8d13b793af9035e59",
          "topics": [
            "0xddf252ad1be2c89b69c2b068fc378daa952ba7f163c4a11628f55a4df523b3ef",
            "0x0000000000000000000000000000000000000000000000000000000000000000",
            "0x00000000000000000000000065264bfc8cb0707d9cec36ec258ace23fd173947"
          ],
          "data": "0x000000000000000000000000000000000000000000000122bb9126ccef739a1d",
          "blockHash": "0xee48450c28f08d4030fccb4cecfc0c0155620b62f057ece7bff3859655461810",
          "blockNumber": "0x12ec252",
          "transactionHash": "0x7485789086240c17cab5dc75922d1f84e3fbc5a7d4a4f11ada92711ed22a032d",
          "transactionIndex": "0x0",
          "logIndex": "0x1",
          "removed": false
        },
        {
          "address": "0xe4e85530ad5c78f86bc766d8d13b793af9035e59",
          "topics": [
            "0xddf252ad1be2c89b69c2b068fc378daa952ba7f163c4a11628f55a4df523b3ef",
            "0x0000000000000000000000000000000000000000000000000000000000000000",
            "0x0000000000000000000000000000000000000000000000000000000000000000"
          ],
          "data": "0x00000000000000000000000000000000000000000000000000000000000003e8",
          "blockHash": "0xee48450c28f08d4030fccb4cecfc0c0155620b62f057ece7bff3859655461810",
          "blockNumber": "0x12ec252",
          "transactionHash": "0x7485789086240c17cab5dc75922d1f84e3fbc5a7d4a4f11ada92711ed22a032d",
          "transactionIndex": "0x0",
          "logIndex": "0x2",
          "removed": false
        },
        {
          "address": "0xcbc72d92b2dc8187414f6734718563898740c0bc",
          "topics": [
            "0xddf252ad1be2c89b69c2b068fc378daa952ba7f163c4a11628f55a4df523b3ef",
            "0x00000000000000000000000065264bfc8cb0707d9cec36ec258ace23fd173947",
            "0x000000000000000000000000e4e85530ad5c78f86bc766d8d13b793af9035e59"
          ],
          "data": "0x0000000000000000000000000000000000000000000000d30e9e4b355b39783b",
          "blockHash": "0xee48450c28f08d4030fccb4cecfc0c0155620b62f057ece7bff3859655461810",
          "blockNumber": "0x12ec252",
          "transactionHash": "0x7485789086240c17cab5dc75922d1f84e3fbc5a7d4a4f11ada92711ed22a032d",
          "transactionIndex": "0x0",
          "logIndex": "0x3",
          "removed": false
        },
        {
          "address": "0xf99985822fb361117fcf3768d34a6353e6022f5f",
          "topics": [
            "0xddf252ad1be2c89b69c2b068fc378daa952ba7f163c4a11628f55a4df523b3ef",
            "0x00000000000000000000000065264bfc8cb0707d9cec36ec258ace23fd173947",
            "0x000000000000000000000000e4e85530ad5c78f86bc766d8d13b793af9035e59"
          ],
          "data": "0x00000000000000000000000000000000000000000000002ef61727fa3be15630",
          "blockHash": "0xee48450c28f08d4030fccb4cecfc0c0155620b62f057ece7bff3859655461810",
          "blockNumber": "0x12ec252",
          "transactionHash": "0x7485789086240c17cab5dc75922d1f84e3fbc5a7d4a4f11ada92711ed22a032d",
          "transactionIndex": "0x0",
          "logIndex": "0x4",
          "removed": false
        },
        {
          "address": "0xe4e85530ad5c78f86bc766d8d13b793af9035e59",
          "topics": [
            "0x8bc90c742951e08a032b3a6740fe951b7c19967da95942c0a168f66f7b9e59d1",
            "0x000000000000000000000000f99985822fb361117fcf3768d34a6353e6022f5f",
            "0x000000000000000000000000cbc72d92b2dc8187414f6734718563898740c0bc",
            "0x0000000000000000000000000000000000000000000000000000000000000055"
          ],
          "data": "0x00000000000000000000000065264bfc8cb0707d9cec36ec258ace23fd1739470000000000000000000000000000000000000000000000d30e9e4b355b39783b00000000000000000000000000000000000000000000002ef61727fa3be15630000000000000000000000000000000000000000000000122bb9126ccef739e050000000000000000000000000000000000000000000000000f34408b2678071e00000000000000000000000000000000000000000000000000470de4df8200000000000000000000000000000000000000000000000000000000b5e620f4800000000000000000000000000000000000000000000000000000000000694c7e80",
          "blockHash": "0xee48450c28f08d4030fccb4cecfc0c0155620b62f057ece7bff3859655461810",
          "blockNumber": "0x12ec252",
          "transactionHash": "0x7485789086240c17cab5dc75922d1f84e3fbc5a7d4a4f11ada92711ed22a032d",
          "transactionIndex": "0x0",
          "logIndex": "0x5",
          "removed": false
        }
      ],
      "logsBloom": "0x00040000000000000080000000400000010000101000000008000000000000000000000000000000008000000002000000000000000000000000002000000800000000000000000000000008000000008000000000000000000000000000000000010020020000100040000004800801000000000000000000000012000000000000000000000000000000000800400000000200000000000000000000000000000000000000000000008200000000100000000000000000000000000044000000000002000000004000001000200400000000000000000000000000000020000000000400000000000000000000000000000000000000010090000000000000",
      "type": "0x2",
      "transactionHash": "0x7485789086240c17cab5dc75922d1f84e3fbc5a7d4a4f11ada92711ed22a032d",
      "transactionIndex": "0x0",
      "blockHash": "0xee48450c28f08d4030fccb4cecfc0c0155620b62f057ece7bff3859655461810",
      "blockNumber": "0x12ec252",
      "gasUsed": "0xc3655",
      "effectiveGasPrice": "0x2",
      "blobGasUsed": "0x0",
      "from": "0x65264bfc8cb0707d9cec36ec258ace23fd173947",
      "to": "0xe4e85530ad5c78f86bc766d8d13b793af9035e59",
      "contractAddress": null
    },
    {
      "status": "0x1",
      "cumulativeGasUsed": "0x67f3",
      "logs": [
        {
          "address": "0xf99985822fb361117fcf3768d34a6353e6022f5f",
          "topics": [
            "0x8c5be1e5ebec7d5bd14f71427d1e84f3dd0314c0f7b2291e5b200ac8c7c3b925",
            "0x00000000000000000000000065264bfc8cb0707d9cec36ec258ace23fd173947",
            "0x00000000000000000000000000000000005bbb0ef59571e58418f9a4357b68a0"
          ],
          "data": "0xffffffffffffffffffffffffffffffffffffffffffffffffffffffffffffffff",
          "blockHash": "0x1ef106ebb99ccfcef586a92878169481267836cd86736290fecafda8462a97b5",
          "blockNumber": "0x12ec253",
          "transactionHash": "0x0ce653c205510ba17d409eb2674278dc3725fb1006a8b5a31fc994c9dc24a76b",
          "transactionIndex": "0x0",
          "logIndex": "0x0",
          "removed": false
        }
      ],
      "logsBloom": "0x00000000000000000000000000000000000000000000000000000000000000000000000000000000400000000000000000000000000000000000000000200800000000000000000000000000000000000000000000000000000000000000000000000020000000000000000000000000000000000000000000000002000000000000000000000000000000000800000000000000000000000000000000000000020000000080000000000200000000000000000000000000000000000000000000000000000000000040000000000000000000000000000000000000000000000010000000000000000000000000000000000000000000000010000000000000",
      "type": "0x2",
      "transactionHash": "0x0ce653c205510ba17d409eb2674278dc3725fb1006a8b5a31fc994c9dc24a76b",
      "transactionIndex": "0x0",
      "blockHash": "0x1ef106ebb99ccfcef586a92878169481267836cd86736290fecafda8462a97b5",
      "blockNumber": "0x12ec253",
      "gasUsed": "0x67f3",
      "effectiveGasPrice": "0x2",
      "blobGasUsed": "0x0",
      "from": "0x65264bfc8cb0707d9cec36ec258ace23fd173947",
      "to": "0xf99985822fb361117fcf3768d34a6353e6022f5f",
      "contractAddress": null
    },
    {
      "status": "0x1",
      "cumulativeGasUsed": "0x6832",
      "logs": [
        {
          "address": "0xc374f7ec85f8c7de3207a10bb1978ba104bda3b2",
          "topics": [
            "0x8c5be1e5ebec7d5bd14f71427d1e84f3dd0314c0f7b2291e5b200ac8c7c3b925",
            "0x00000000000000000000000065264bfc8cb0707d9cec36ec258ace23fd173947",
            "0x00000000000000000000000000000000005bbb0ef59571e58418f9a4357b68a0"
          ],
          "data": "0xffffffffffffffffffffffffffffffffffffffffffffffffffffffffffffffff",
          "blockHash": "0xfe288e3663270ca415a7895f6c7bb5d404c0eb24f94832712d30e446848a62b6",
          "blockNumber": "0x12ec254",
          "transactionHash": "0xcef2c3f7922a3519d59c2d84a2eddce0d2968e6abb7f08943b2244855573f474",
          "transactionIndex": "0x0",
          "logIndex": "0x0",
          "removed": false
        }
      ],
      "logsBloom": "0x00000000000000000000000000000000000000000000000000000000000000000000000000000000400000000000000000000000000000000000000000200800000000000000000000000000000000400000000000000000000000000000000000000000000000000000010000000000000000000000000000000002000000000000000000000000000000000000000000000000000000000000000000000000020000000080002000000000000000000000000000000000000000000000000000000000000000000040000000000000000000000000000000000000000000000010000000000000000000000000000000000000000000000010000000000000",
      "type": "0x2",
      "transactionHash": "0xcef2c3f7922a3519d59c2d84a2eddce0d2968e6abb7f08943b2244855573f474",
      "transactionIndex": "0x0",
      "blockHash": "0xfe288e3663270ca415a7895f6c7bb5d404c0eb24f94832712d30e446848a62b6",
      "blockNumber": "0x12ec254",
      "gasUsed": "0x6832",
      "effectiveGasPrice": "0x2",
      "blobGasUsed": "0x0",
      "from": "0x65264bfc8cb0707d9cec36ec258ace23fd173947",
      "to": "0xc374f7ec85f8c7de3207a10bb1978ba104bda3b2",
      "contractAddress": null
    }
  ],
  "libraries": [],
  "pending": [],
  "returns": {},
  "timestamp": 1715372208,
  "chain": 1,
  "commit": "7bc44a9"
}