{
  "transactions": [
    {
      "hash": "0x0938744466da90aa1df34c21038a9637cee5c2073b159491bb9ec77ff3d5caf9",
      "transactionType": "CALL",
      "contractName": null,
      "contractAddress": "0x7f39c581f595b53c5cb19bd0b3f8da6c935e2ca0",
      "function": "approve(address,uint256)",
      "arguments": [
        "0xcbC72d92b2dc8187414F6734718563898740C0BC",
        "115792089237316195423570985008687907853269984665640564039457584007913129639935"
      ],
      "transaction": {
        "from": "0x65264bfc8cb0707d9cec36ec258ace23fd173947",
        "to": "0x7f39c581f595b53c5cb19bd0b3f8da6c935e2ca0",
        "gas": "0xfb0a",
        "value": "0x0",
        "input": "0x095ea7b3000000000000000000000000cbc72d92b2dc8187414f6734718563898740c0bcffffffffffffffffffffffffffffffffffffffffffffffffffffffffffffffff",
        "nonce": "0x2",
        "chainId": "0x1"
      },
      "additionalContracts": [],
      "isFixedGasLimit": false
    },
    {
      "hash": "0x47cb8f2c2f9a5860f09078819e6a967feb241e36195beab25fd7fa4e3e598d65",
      "transactionType": "CALL",
      "contractName": null,
      "contractAddress": "0xcbc72d92b2dc8187414f6734718563898740c0bc",
      "function": "deposit(address,address,uint256,uint256)",
      "arguments": [
        "0x65264bfc8cb0707D9Cec36Ec258aCE23fD173947",
        "0x7f39C581F595B53c5cb19bD0b3f8dA6c935E2Ca0",
        "10000000000000000000000",
        "1"
      ],
      "transaction": {
        "from": "0x65264bfc8cb0707d9cec36ec258ace23fd173947",
        "to": "0xcbc72d92b2dc8187414f6734718563898740c0bc",
        "gas": "0x1bc91",
        "value": "0x0",
        "input": "0x20e8c56500000000000000000000000065264bfc8cb0707d9cec36ec258ace23fd1739470000000000000000000000007f39c581f595b53c5cb19bd0b3f8da6c935e2ca000000000000000000000000000000000000000000000021e19e0c9bab24000000000000000000000000000000000000000000000000000000000000000000001",
        "nonce": "0x3",
        "chainId": "0x1"
      },
      "additionalContracts": [],
      "isFixedGasLimit": false
    },
    {
      "hash": "0x8f079a069548d2a4d467fd9fe7360dd7ddd212988025d331753d156c9ed79c07",
      "transactionType": "CALL",
      "contractName": null,
      "contractAddress": "0xcbc72d92b2dc8187414f6734718563898740c0bc",
      "function": "transfer(address,uint256)",
      "arguments": [
        "0xf3aBC972A0f537c1119C990d422463b93227Cd83",
        "5000000000000000000000"
      ],
      "transaction": {
        "from": "0x65264bfc8cb0707d9cec36ec258ace23fd173947",
        "to": "0xcbc72d92b2dc8187414f6734718563898740c0bc",
        "gas": "0xe02d",
        "value": "0x0",
        "input": "0xa9059cbb000000000000000000000000f3abc972a0f537c1119c990d422463b93227cd8300000000000000000000000000000000000000000000010f0cf064dd59200000",
        "nonce": "0x4",
        "chainId": "0x1"
      },
      "additionalContracts": [],
      "isFixedGasLimit": false
    },
    {
      "hash": "0x4dc9dbccc17134846206934c8c29d2802f9f2dd02c08b0d23fc81e308c725862",
      "transactionType": "CALL",
      "contractName": null,
      "contractAddress": "0xf3abc972a0f537c1119c990d422463b93227cd83",
      "function": "mintPY(address,address)",
      "arguments": [
        "0x65264bfc8cb0707D9Cec36Ec258aCE23fD173947",
        "0x65264bfc8cb0707D9Cec36Ec258aCE23fD173947"
      ],
      "transaction": {
        "from": "0x65264bfc8cb0707d9cec36ec258ace23fd173947",
        "to": "0xf3abc972a0f537c1119c990d422463b93227cd83",
        "gas": "0x39a72",
        "value": "0x0",
        "input": "0xdb74aa1500000000000000000000000065264bfc8cb0707d9cec36ec258ace23fd17394700000000000000000000000065264bfc8cb0707d9cec36ec258ace23fd173947",
        "nonce": "0x5",
        "chainId": "0x1"
      },
      "additionalContracts": [],
      "isFixedGasLimit": false
    },
    {
      "hash": "0x7d4016053acf5d0e2140f82a912a077c98cea5f0ab6240d0fee99e17a63b876d",
      "transactionType": "CALL",
      "contractName": null,
      "contractAddress": "0x7f39c581f595b53c5cb19bd0b3f8da6c935e2ca0",
      "function": "approve(address,uint256)",
      "arguments": [
        "0xe4e85530ad5c78F86bC766D8d13b793af9035E59",
        "115792089237316195423570985008687907853269984665640564039457584007913129639935"
      ],
      "transaction": {
        "from": "0x65264bfc8cb0707d9cec36ec258ace23fd173947",
        "to": "0x7f39c581f595b53c5cb19bd0b3f8da6c935e2ca0",
        "gas": "0xfb0a",
        "value": "0x0",
        "input": "0x095ea7b3000000000000000000000000e4e85530ad5c78f86bc766d8d13b793af9035e59ffffffffffffffffffffffffffffffffffffffffffffffffffffffffffffffff",
        "nonce": "0x6",
        "chainId": "0x1"
      },
      "additionalContracts": [],
      "isFixedGasLimit": false
    },
    {
      "hash": "0xdfab3f40fdbcb1938a08468b509bf2de306cca76c8d743414db8e1b515f17656",
      "transactionType": "CALL",
      "contractName": null,
      "contractAddress": "0xcbc72d92b2dc8187414f6734718563898740c0bc",
      "function": "approve(address,uint256)",
      "arguments": [
        "0xe4e85530ad5c78F86bC766D8d13b793af9035E59",
        "115792089237316195423570985008687907853269984665640564039457584007913129639935"
      ],
      "transaction": {
        "from": "0x65264bfc8cb0707d9cec36ec258ace23fd173947",
        "to": "0xcbc72d92b2dc8187414f6734718563898740c0bc",
        "gas": "0xfb82",
        "value": "0x0",
        "input": "0x095ea7b3000000000000000000000000e4e85530ad5c78f86bc766d8d13b793af9035e59ffffffffffffffffffffffffffffffffffffffffffffffffffffffffffffffff",
        "nonce": "0x7",
        "chainId": "0x1"
      },
      "additionalContracts": [],
      "isFixedGasLimit": false
    },
    {
      "hash": "0x76c6b0d88b2291e3a51f8a224a04489d2c1c64d7813172d04add5d11ef43aa79",
      "transactionType": "CALL",
      "contractName": null,
      "contractAddress": "0xf99985822fb361117fcf3768d34a6353e6022f5f",
      "function": "approve(address,uint256)",
      "arguments": [
        "0xe4e85530ad5c78F86bC766D8d13b793af9035E59",
        "115792089237316195423570985008687907853269984665640564039457584007913129639935"
      ],
      "transaction": {
        "from": "0x65264bfc8cb0707d9cec36ec258ace23fd173947",
        "to": "0xf99985822fb361117fcf3768d34a6353e6022f5f",
        "gas": "0x10a0d",
        "value": "0x0",
        "input": "0x095ea7b3000000000000000000000000e4e85530ad5c78f86bc766d8d13b793af9035e59ffffffffffffffffffffffffffffffffffffffffffffffffffffffffffffffff",
        "nonce": "0x8",
        "chainId": "0x1"
      },
      "additionalContracts": [],
      "isFixedGasLimit": false
    },
    {
      "hash": "0x55639acfd2b75a357edd204688d263bd3575d10828b82597965159727dd87053",
      "transactionType": "CALL",
      "contractName": null,
      "contractAddress": "0xf3abc972a0f537c1119c990d422463b93227cd83",
      "function": "approve(address,uint256)",
      "arguments": [
        "0xe4e85530ad5c78F86bC766D8d13b793af9035E59",
        "115792089237316195423570985008687907853269984665640564039457584007913129639935"
      ],
      "transaction": {
        "from": "0x65264bfc8cb0707d9cec36ec258ace23fd173947",
        "to": "0xf3abc972a0f537c1119c990d422463b93227cd83",
        "gas": "0xfb7e",
        "value": "0x0",
        "input": "0x095ea7b3000000000000000000000000e4e85530ad5c78f86bc766d8d13b793af9035e59ffffffffffffffffffffffffffffffffffffffffffffffffffffffffffffffff",
        "nonce": "0x9",
        "chainId": "0x1"
      },
      "additionalContracts": [],
      "isFixedGasLimit": false
    },
    {
      "hash": "0xcd0054a31885a5b6d88258eb41217ac06a4f5f74a7f0e1b7fd5cec56d990abab",
      "transactionType": "CALL",
      "contractName": null,
      "contractAddress": "0x7f39c581f595b53c5cb19bd0b3f8da6c935e2ca0",
      "function": "approve(address,uint256)",
      "arguments": [
        "0x00000000005BBB0EF59571E58418F9a4357b68A0",
        "115792089237316195423570985008687907853269984665640564039457584007913129639935"
      ],
      "transaction": {
        "from": "0x65264bfc8cb0707d9cec36ec258ace23fd173947",
        "to": "0x7f39c581f595b53c5cb19bd0b3f8da6c935e2ca0",
        "gas": "0xfab7",
        "value": "0x0",
        "input": "0x095ea7b300000000000000000000000000000000005bbb0ef59571e58418f9a4357b68a0ffffffffffffffffffffffffffffffffffffffffffffffffffffffffffffffff",
        "nonce": "0xa",
        "chainId": "0x1"
      },
      "additionalContracts": [],
      "isFixedGasLimit": false
    },
    {
      "hash": "0x50d966a4912200e52d21b1345577967b924570bf0a2afee14d54e53c112627d7",
      "transactionType": "CALL",
      "contractName": null,
      "contractAddress": "0xcbc72d92b2dc8187414f6734718563898740c0bc",
      "function": "approve(address,uint256)",
      "arguments": [
        "0x00000000005BBB0EF59571E58418F9a4357b68A0",
        "115792089237316195423570985008687907853269984665640564039457584007913129639935"
      ],
      "transaction": {
        "from": "0x65264bfc8cb0707d9cec36ec258ace23fd173947",
        "to": "0xcbc72d92b2dc8187414f6734718563898740c0bc",
        "gas": "0x109f6",
        "value": "0x0",
        "input": "0x095ea7b300000000000000000000000000000000005bbb0ef59571e58418f9a4357b68a0ffffffffffffffffffffffffffffffffffffffffffffffffffffffffffffffff",
        "nonce": "0xb",
        "chainId": "0x1"
      },
      "additionalContracts": [],
      "isFixedGasLimit": false
    },
    {
      "hash": "0x8ea5738f51edeab114a194392a4d4278e21501143339432bfa846688cf639c0c",
      "transactionType": "CALL",
      "contractName": null,
      "contractAddress": "0xf99985822fb361117fcf3768d34a6353e6022f5f",
      "function": "approve(address,uint256)",
      "arguments": [
        "0x00000000005BBB0EF59571E58418F9a4357b68A0",
        "115792089237316195423570985008687907853269984665640564039457584007913129639935"
      ],
      "transaction": {
        "from": "0x65264bfc8cb0707d9cec36ec258ace23fd173947",
        "to": "0xf99985822fb361117fcf3768d34a6353e6022f5f",
        "gas": "0xfaf2",
        "value": "0x0",
        "input": "0x095ea7b300000000000000000000000000000000005bbb0ef59571e58418f9a4357b68a0ffffffffffffffffffffffffffffffffffffffffffffffffffffffffffffffff",
        "nonce": "0xc",
        "chainId": "0x1"
      },
      "additionalContracts": [],
      "isFixedGasLimit": false
    },
    {
      "hash": "0xd311aa292db1ebcff8e9cce2c7bd132645bcd89f3b7fd43d844d9970487a0442",
      "transactionType": "CALL",
      "contractName": null,
      "contractAddress": "0xf3abc972a0f537c1119c990d422463b93227cd83",
      "function": "approve(address,uint256)",
      "arguments": [
        "0x00000000005BBB0EF59571E58418F9a4357b68A0",
        "115792089237316195423570985008687907853269984665640564039457584007913129639935"
      ],
      "transaction": {
        "from": "0x65264bfc8cb0707d9cec36ec258ace23fd173947",
        "to": "0xf3abc972a0f537c1119c990d422463b93227cd83",
        "gas": "0xfb2b",
        "value": "0x0",
        "input": "0x095ea7b300000000000000000000000000000000005bbb0ef59571e58418f9a4357b68a0ffffffffffffffffffffffffffffffffffffffffffffffffffffffffffffffff",
        "nonce": "0xd",
        "chainId": "0x1"
      },
      "additionalContracts": [],
      "isFixedGasLimit": false
    },
    {
      "hash": "0x4bd88924dc61a6581b2d4971e0da3da8ebe5749360194b52971b177b30a03929",
      "transactionType": "CALL",
      "contractName": null,
      "contractAddress": "0xc374f7ec85f8c7de3207a10bb1978ba104bda3b2",
      "function": "approve(address,uint256)",
      "arguments": [
        "0x00000000005BBB0EF59571E58418F9a4357b68A0",
        "115792089237316195423570985008687907853269984665640564039457584007913129639935"
      ],
      "transaction": {
        "from": "0x65264bfc8cb0707d9cec36ec258ace23fd173947",
        "to": "0xc374f7ec85f8c7de3207a10bb1978ba104bda3b2",
        "gas": "0xfb49",
        "value": "0x0",
        "input": "0x095ea7b300000000000000000000000000000000005bbb0ef59571e58418f9a4357b68a0ffffffffffffffffffffffffffffffffffffffffffffffffffffffffffffffff",
        "nonce": "0xe",
        "chainId": "0x1"
      },
      "additionalContracts": [],
      "isFixedGasLimit": false
    },
    {
      "hash": "0x5e7e3076868f394b6f407ab191183de182b5feb705ad9cca45d364fa5783e30e",
      "transactionType": "CALL",
      "contractName": "RMM",
      "contractAddress": "0xe4e85530ad5c78f86bc766d8d13b793af9035e59",
      "function": "init(address,uint256,uint256,uint256,uint256,uint256,address)",
      "arguments": [
        "0xf99985822fb361117FCf3768D34a6353E6022F5F",
        "1067046946303290061",
        "3893316361608102508603",
        "1095572022164750936",
        "20000000000000000",
        "200000000000000",
        "0x0000000000000000000000000000000000000055"
      ],
      "transaction": {
        "from": "0x65264bfc8cb0707d9cec36ec258ace23fd173947",
        "to": "0xe4e85530ad5c78f86bc766d8d13b793af9035e59",
        "gas": "0x7a1b",
        "value": "0x0",
        "input": "0x71ced336000000000000000000000000f99985822fb361117fcf3768d34a6353e6022f5f0000000000000000000000000000000000000000000000000ecee98b5112aacd0000000000000000000000000000000000000000000000d30e9e4b355b39783b0000000000000000000000000000000000000000000000000f3440f316fc825800000000000000000000000000000000000000000000000000470de4df8200000000000000000000000000000000000000000000000000000000b5e620f480000000000000000000000000000000000000000000000000000000000000000055",
        "nonce": "0xf",
        "chainId": "0x1"
      },
      "additionalContracts": [],
      "isFixedGasLimit": false
    }
  ],
  "receipts": [
    {
      "status": "0x1",
      "cumulativeGasUsed": "0xb5c0",
      "logs": [
        {
          "address": "0x7f39c581f595b53c5cb19bd0b3f8da6c935e2ca0",
          "topics": [
            "0x8c5be1e5ebec7d5bd14f71427d1e84f3dd0314c0f7b2291e5b200ac8c7c3b925",
            "0x00000000000000000000000065264bfc8cb0707d9cec36ec258ace23fd173947",
            "0x000000000000000000000000cbc72d92b2dc8187414f6734718563898740c0bc"
          ],
          "data": "0xffffffffffffffffffffffffffffffffffffffffffffffffffffffffffffffff",
          "blockHash": "0x4f267ca45fff134d704129578f605f778d4cc7420e6a33a6bfd05cc3446cee83",
          "blockNumber": "0x12ec238",
          "transactionHash": "0x0938744466da90aa1df34c21038a9637cee5c2073b159491bb9ec77ff3d5caf9",
          "transactionIndex": "0x0",
          "logIndex": "0x0",
          "removed": false
        }
      ],
      "logsBloom": "0x00000000000000000000000000000000000000001000000000000000000000000000000000000000000000000000000000000000000000000000000000200800000000000000000000000000000000000000000000000000000000000000000000000000000000000000000000000001000000000000000000000002000000000000000000000000000080000000000000000000000000000000000000000000020000000000000000000000000000000000000000000000000000000000000000000000000000100000000000000400000000000000000000000000000000000010000000000000000000008000000000000000000000000010000000000000",
      "type": "0x2",
      "transactionHash": "0x0938744466da90aa1df34c21038a9637cee5c2073b159491bb9ec77ff3d5caf9",
      "transactionIndex": "0x0",
      "blockHash": "0x4f267ca45fff134d704129578f605f778d4cc7420e6a33a6bfd05cc3446cee83",
      "blockNumber": "0x12ec238",
      "gasUsed": "0xb5c0",
      "effectiveGasPrice": "0x2",
      "blobGasUsed": "0x0",
      "from": "0x65264bfc8cb0707d9cec36ec258ace23fd173947",
      "to": "0x7f39c581f595b53c5cb19bd0b3f8da6c935e2ca0",
      "contractAddress": null
    },
    {
      "status": "0x1",
      "cumulativeGasUsed": "0x141dd",
      "logs": [
        {
          "address": "0x7f39c581f595b53c5cb19bd0b3f8da6c935e2ca0",
          "topics": [
            "0xddf252ad1be2c89b69c2b068fc378daa952ba7f163c4a11628f55a4df523b3ef",
            "0x00000000000000000000000065264bfc8cb0707d9cec36ec258ace23fd173947",
            "0x000000000000000000000000cbc72d92b2dc8187414f6734718563898740c0bc"
          ],
          "data": "0x00000000000000000000000000000000000000000000021e19e0c9bab2400000",
          "blockHash": "0xb237ccd40071fd8a403c7b5b77524dff039211e21f7bfb3209b4ec5339fb01ec",
          "blockNumber": "0x12ec239",
          "transactionHash": "0x47cb8f2c2f9a5860f09078819e6a967feb241e36195beab25fd7fa4e3e598d65",
          "transactionIndex": "0x0",
          "logIndex": "0x0",
          "removed": false
        },
        {
          "address": "0x7f39c581f595b53c5cb19bd0b3f8da6c935e2ca0",
          "topics": [
            "0x8c5be1e5ebec7d5bd14f71427d1e84f3dd0314c0f7b2291e5b200ac8c7c3b925",
            "0x00000000000000000000000065264bfc8cb0707d9cec36ec258ace23fd173947",
            "0x000000000000000000000000cbc72d92b2dc8187414f6734718563898740c0bc"
          ],
          "data": "0xfffffffffffffffffffffffffffffffffffffffffffffde1e61f36454dbfffff",
          "blockHash": "0xb237ccd40071fd8a403c7b5b77524dff039211e21f7bfb3209b4ec5339fb01ec",
          "blockNumber": "0x12ec239",
          "transactionHash": "0x47cb8f2c2f9a5860f09078819e6a967feb241e36195beab25fd7fa4e3e598d65",
          "transactionIndex": "0x0",
          "logIndex": "0x1",
          "removed": false
        },
        {
          "address": "0xcbc72d92b2dc8187414f6734718563898740c0bc",
          "topics": [
            "0xddf252ad1be2c89b69c2b068fc378daa952ba7f163c4a11628f55a4df523b3ef",
            "0x0000000000000000000000000000000000000000000000000000000000000000",
            "0x00000000000000000000000065264bfc8cb0707d9cec36ec258ace23fd173947"
          ],
          "data": "0x00000000000000000000000000000000000000000000021e19e0c9bab2400000",
          "blockHash": "0xb237ccd40071fd8a403c7b5b77524dff039211e21f7bfb3209b4ec5339fb01ec",
          "blockNumber": "0x12ec239",
          "transactionHash": "0x47cb8f2c2f9a5860f09078819e6a967feb241e36195beab25fd7fa4e3e598d65",
          "transactionIndex": "0x0",
          "logIndex": "0x2",
          "removed": false
        },
        {
          "address": "0xcbc72d92b2dc8187414f6734718563898740c0bc",
          "topics": [
            "0x5fe47ed6d4225326d3303476197d782ded5a4e9c14f479dc9ec4992af4e85d59",
            "0x00000000000000000000000065264bfc8cb0707d9cec36ec258ace23fd173947",
            "0x00000000000000000000000065264bfc8cb0707d9cec36ec258ace23fd173947",
            "0x0000000000000000000000007f39c581f595b53c5cb19bd0b3f8da6c935e2ca0"
          ],
          "data": "0x00000000000000000000000000000000000000000000021e19e0c9bab240000000000000000000000000000000000000000000000000021e19e0c9bab2400000",
          "blockHash": "0xb237ccd40071fd8a403c7b5b77524dff039211e21f7bfb3209b4ec5339fb01ec",
          "blockNumber": "0x12ec239",
          "transactionHash": "0x47cb8f2c2f9a5860f09078819e6a967feb241e36195beab25fd7fa4e3e598d65",
          "transactionIndex": "0x0",
          "logIndex": "0x3",
          "removed": false
        }
      ],
      "logsBloom": "0x00000000000000000000000000000000000000001000000000000000000000000000000000000000000000000002000000000000010000000000000000200800000000000000000000000008000000000000000000000000080000000000000000000000020000000040000000000801000000000000000000000012000000000000000010000000000080000000000000000000000000000000000000002000020000000000000000000000000000100000000000000000000000000000000000000002000000100000000000000480000000000000000000000000000020000010000000000000000000008000000000000000004000000010000000000000",
      "type": "0x2",
      "transactionHash": "0x47cb8f2c2f9a5860f09078819e6a967feb241e36195beab25fd7fa4e3e598d65",
      "transactionIndex": "0x0",
      "blockHash": "0xb237ccd40071fd8a403c7b5b77524dff039211e21f7bfb3209b4ec5339fb01ec",
      "blockNumber": "0x12ec239",
      "gasUsed": "0x141dd",
      "effectiveGasPrice": "0x2",
      "blobGasUsed": "0x0",
      "from": "0x65264bfc8cb0707d9cec36ec258ace23fd173947",
      "to": "0xcbc72d92b2dc8187414f6734718563898740c0bc",
      "contractAddress": null
    },
    {
      "status": "0x1",
      "cumulativeGasUsed": "0xb614",
      "logs": [
        {
          "address": "0xf3abc972a0f537c1119c990d422463b93227cd83",
          "topics": [
            "0x8c5be1e5ebec7d5bd14f71427d1e84f3dd0314c0f7b2291e5b200ac8c7c3b925",
            "0x00000000000000000000000065264bfc8cb0707d9cec36ec258ace23fd173947",
            "0x000000000000000000000000e4e85530ad5c78f86bc766d8d13b793af9035e59"
          ],
          "data": "0xffffffffffffffffffffffffffffffffffffffffffffffffffffffffffffffff",
          "blockHash": "0xd46574422ee6a1877e75a9013b814c3c3f61f3f7f575d9af3f04330bbb21e923",
          "blockNumber": "0x12ec23a",
          "transactionHash": "0x55639acfd2b75a357edd204688d263bd3575d10828b82597965159727dd87053",
          "transactionIndex": "0x0",
          "logIndex": "0x0",
          "removed": false
        }
      ],
      "logsBloom": "0x00000000000000000000000000000000000000000000000000000000000000000000000000000000008000000000000000000000000000000000002000200800000000000000000000000000000000000000000000000000000000000000000000010000000000000000000000800000000000000000000000000002000000000000000000000000000000000000000000000000000000000000000000000000020000000000000000000000000000000000000000000000000000000000000000000000000000000000000000000000000000000000000000000000000000000010000000000000000000000000000000000000000000010090000000000000",
      "type": "0x2",
      "transactionHash": "0x55639acfd2b75a357edd204688d263bd3575d10828b82597965159727dd87053",
      "transactionIndex": "0x0",
      "blockHash": "0xd46574422ee6a1877e75a9013b814c3c3f61f3f7f575d9af3f04330bbb21e923",
      "blockNumber": "0x12ec23a",
      "gasUsed": "0xb614",
      "effectiveGasPrice": "0x2",
      "blobGasUsed": "0x0",
      "from": "0x65264bfc8cb0707d9cec36ec258ace23fd173947",
      "to": "0xf3abc972a0f537c1119c990d422463b93227cd83",
      "contractAddress": null
    },
    {
      "status": "0x1",
      "cumulativeGasUsed": "0xb5eb",
      "logs": [
        {
          "address": "0xf99985822fb361117fcf3768d34a6353e6022f5f",
          "topics": [
            "0x8c5be1e5ebec7d5bd14f71427d1e84f3dd0314c0f7b2291e5b200ac8c7c3b925",
            "0x00000000000000000000000065264bfc8cb0707d9cec36ec258ace23fd173947",
            "0x000000000000000000000000e4e85530ad5c78f86bc766d8d13b793af9035e59"
          ],
          "data": "0xffffffffffffffffffffffffffffffffffffffffffffffffffffffffffffffff",
          "blockHash": "0xba8f2d9ddc8b73ffcf1fcc2fbe8a53c564a1065ef76821dea97633550234cb82",
          "blockNumber": "0x12ec23b",
          "transactionHash": "0x76c6b0d88b2291e3a51f8a224a04489d2c1c64d7813172d04add5d11ef43aa79",
          "transactionIndex": "0x0",
          "logIndex": "0x0",
          "removed": false
        }
      ],
      "logsBloom": "0x00000000000000000000000000000000000000000000000000000000000000000000000000000000008000000000000000000000000000000000002000200800000000000000000000000000000000000000000000000000000000000000000000000020000000000000000000800000000000000000000000000002000000000000000000000000000000000800000000000000000000000000000000000000020000000000000000000200000000000000000000000000000000000000000000000000000000000000000000000000000000000000000000000000000000000010000000000000000000000000000000000000000000000010000000000000",
      "type": "0x2",
      "transactionHash": "0x76c6b0d88b2291e3a51f8a224a04489d2c1c64d7813172d04add5d11ef43aa79",
      "transactionIndex": "0x0",
      "blockHash": "0xba8f2d9ddc8b73ffcf1fcc2fbe8a53c564a1065ef76821dea97633550234cb82",
      "blockNumber": "0x12ec23b",
      "gasUsed": "0xb5eb",
      "effectiveGasPrice": "0x2",
      "blobGasUsed": "0x0",
      "from": "0x65264bfc8cb0707d9cec36ec258ace23fd173947",
      "to": "0xf99985822fb361117fcf3768d34a6353e6022f5f",
      "contractAddress": null
    },
    {
      "status": "0x1",
      "cumulativeGasUsed": "0x9949",
      "logs": [
        {
          "address": "0xcbc72d92b2dc8187414f6734718563898740c0bc",
          "topics": [
            "0xddf252ad1be2c89b69c2b068fc378daa952ba7f163c4a11628f55a4df523b3ef",
            "0x00000000000000000000000065264bfc8cb0707d9cec36ec258ace23fd173947",
            "0x000000000000000000000000f3abc972a0f537c1119c990d422463b93227cd83"
          ],
          "data": "0x00000000000000000000000000000000000000000000010f0cf064dd59200000",
          "blockHash": "0x04bb0aba2bb101d2b5517fdda66752c0b399580550c0618a52549333d89bf807",
          "blockNumber": "0x12ec23c",
          "transactionHash": "0x8f079a069548d2a4d467fd9fe7360dd7ddd212988025d331753d156c9ed79c07",
          "transactionIndex": "0x0",
          "logIndex": "0x0",
          "removed": false
        }
      ],
      "logsBloom": "0x00000000000000000000000000000000000000000000000000000000000000000000000000000000000000000002000000000000000000000000000000000800000000000000000000000008000000000000000000000000000000000000000000000001000000000040000000000000000000000000000000000012000000000000000000000000000000000000000000000000000000000000000000000000000000000000000000000000000000100001000000000000400000000000000000000002000000000000000000000000000000000000000000000000000000000000000000000000000000000000000000000000000000000010000000000000",
      "type": "0x2",
      "transactionHash": "0x8f079a069548d2a4d467fd9fe7360dd7ddd212988025d331753d156c9ed79c07",
      "transactionIndex": "0x0",
      "blockHash": "0x04bb0aba2bb101d2b5517fdda66752c0b399580550c0618a52549333d89bf807",
      "blockNumber": "0x12ec23c",
      "gasUsed": "0x9949",
      "effectiveGasPrice": "0x2",
      "blobGasUsed": "0x0",
      "from": "0x65264bfc8cb0707d9cec36ec258ace23fd173947",
      "to": "0xcbc72d92b2dc8187414f6734718563898740c0bc",
      "contractAddress": null
    },
    {
      "status": "0x1",
      "cumulativeGasUsed": "0x29bd6",
      "logs": [
        {
          "address": "0xf3abc972a0f537c1119c990d422463b93227cd83",
          "topics": [
            "0x71475f2f645813fdbebf53a58968008bff11ee21a58f01c5a9cc263d0bc4703d",
            "0x000000000000000000000000000000000000000000000000102f350d68ef966f"
          ],
          "data": "0x",
          "blockHash": "0xe5063cc3fdf6c9806389166bca5efff08ff224b149ef9c0d607bf0496474188b",
          "blockNumber": "0x12ec23d",
          "transactionHash": "0x4dc9dbccc17134846206934c8c29d2802f9f2dd02c08b0d23fc81e308c725862",
          "transactionIndex": "0x0",
          "logIndex": "0x0",
          "removed": false
        },
        {
          "address": "0xf3abc972a0f537c1119c990d422463b93227cd83",
          "topics": [
            "0xddf252ad1be2c89b69c2b068fc378daa952ba7f163c4a11628f55a4df523b3ef",
            "0x0000000000000000000000000000000000000000000000000000000000000000",
            "0x00000000000000000000000065264bfc8cb0707d9cec36ec258ace23fd173947"
          ],
          "data": "0x00000000000000000000000000000000000000000000013c1a042de9877227f8",
          "blockHash": "0xe5063cc3fdf6c9806389166bca5efff08ff224b149ef9c0d607bf0496474188b",
          "blockNumber": "0x12ec23d",
          "transactionHash": "0x4dc9dbccc17134846206934c8c29d2802f9f2dd02c08b0d23fc81e308c725862",
          "transactionIndex": "0x0",
          "logIndex": "0x1",
          "removed": false
        },
        {
          "address": "0xf99985822fb361117fcf3768d34a6353e6022f5f",
          "topics": [
            "0xddf252ad1be2c89b69c2b068fc378daa952ba7f163c4a11628f55a4df523b3ef",
            "0x0000000000000000000000000000000000000000000000000000000000000000",
            "0x00000000000000000000000065264bfc8cb0707d9cec36ec258ace23fd173947"
          ],
          "data": "0x00000000000000000000000000000000000000000000013c1a042de9877227f8",
          "blockHash": "0xe5063cc3fdf6c9806389166bca5efff08ff224b149ef9c0d607bf0496474188b",
          "blockNumber": "0x12ec23d",
          "transactionHash": "0x4dc9dbccc17134846206934c8c29d2802f9f2dd02c08b0d23fc81e308c725862",
          "transactionIndex": "0x0",
          "logIndex": "0x2",
          "removed": false
        },
        {
          "address": "0xf3abc972a0f537c1119c990d422463b93227cd83",
          "topics": [
            "0xc0025304673122449dd60b9b0093874b0e2fd6fe57af1c7c2fbfee0ccf5ead58",
            "0x00000000000000000000000065264bfc8cb0707d9cec36ec258ace23fd173947",
            "0x00000000000000000000000065264bfc8cb0707d9cec36ec258ace23fd173947",
            "0x00000000000000000000000065264bfc8cb0707d9cec36ec258ace23fd173947"
          ],
          "data": "0x00000000000000000000000000000000000000000000010f0cf064dd5920000000000000000000000000000000000000000000000000013c1a042de9877227f8",
          "blockHash": "0xe5063cc3fdf6c9806389166bca5efff08ff224b149ef9c0d607bf0496474188b",
          "blockNumber": "0x12ec23d",
          "transactionHash": "0x4dc9dbccc17134846206934c8c29d2802f9f2dd02c08b0d23fc81e308c725862",
          "transactionIndex": "0x0",
          "logIndex": "0x3",
          "removed": false
        }
      ],
      "logsBloom": "0x00000000000000000000000000400000010000000000000000000000000000000000000000000000000000000000000000000000000000000000000000000800000000000000000000000008000000008000000000000000000000000000000000010020020000000000000000000800000000000000000000000012000000000002000000000000000000000800400000000200000000000000000000000000000000000000000000000200000000000000000000000000000000000000000000200002000000000000000000200000000000000000000000000000000020000000000000000000000000010000000000000000000000010090000000000000",
      "type": "0x2",
      "transactionHash": "0x4dc9dbccc17134846206934c8c29d2802f9f2dd02c08b0d23fc81e308c725862",
      "transactionIndex": "0x0",
      "blockHash": "0xe5063cc3fdf6c9806389166bca5efff08ff224b149ef9c0d607bf0496474188b",
      "blockNumber": "0x12ec23d",
      "gasUsed": "0x29bd6",
      "effectiveGasPrice": "0x2",
      "blobGasUsed": "0x0",
      "from": "0x65264bfc8cb0707d9cec36ec258ace23fd173947",
      "to": "0xf3abc972a0f537c1119c990d422463b93227cd83",
      "contractAddress": null
    },
    {
      "status": "0x1",
      "cumulativeGasUsed": "0xb584",
      "logs": [
        {
          "address": "0x7f39c581f595b53c5cb19bd0b3f8da6c935e2ca0",
          "topics": [
            "0x8c5be1e5ebec7d5bd14f71427d1e84f3dd0314c0f7b2291e5b200ac8c7c3b925",
            "0x00000000000000000000000065264bfc8cb0707d9cec36ec258ace23fd173947",
            "0x00000000000000000000000000000000005bbb0ef59571e58418f9a4357b68a0"
          ],
          "data": "0xffffffffffffffffffffffffffffffffffffffffffffffffffffffffffffffff",
          "blockHash": "0xcd7c731e88c40c25b7e6be1705d25c85665b8e38f558782901f23d4e9a102df4",
          "blockNumber": "0x12ec23e",
          "transactionHash": "0xcd0054a31885a5b6d88258eb41217ac06a4f5f74a7f0e1b7fd5cec56d990abab",
          "transactionIndex": "0x0",
          "logIndex": "0x0",
          "removed": false
        }
      ],
      "logsBloom": "0x00000000000000000000000000000000000000000000000000000000000000000000000000000000400000000000000000000000000000000000000000200800000000000000000000000000000000000000000000000000000000000000000000000000000000000000000000000000000000000000000000000002000000000000000000000000000080000000000000000000000000000000000000000000020000000080000000000000000000000000000000000000000000000000000000000000000000100040000000000000000000000000000000000000000000000010000000000000000000008000000000000000000000000010000000000000",
      "type": "0x2",
      "transactionHash": "0xcd0054a31885a5b6d88258eb41217ac06a4f5f74a7f0e1b7fd5cec56d990abab",
      "transactionIndex": "0x0",
      "blockHash": "0xcd7c731e88c40c25b7e6be1705d25c85665b8e38f558782901f23d4e9a102df4",
      "blockNumber": "0x12ec23e",
      "gasUsed": "0xb584",
      "effectiveGasPrice": "0x2",
      "blobGasUsed": "0x0",
      "from": "0x65264bfc8cb0707d9cec36ec258ace23fd173947",
      "to": "0x7f39c581f595b53c5cb19bd0b3f8da6c935e2ca0",
      "contractAddress": null
    },
    {
      "status": "0x1",
      "cumulativeGasUsed": "0xb617",
      "logs": [
        {
          "address": "0xcbc72d92b2dc8187414f6734718563898740c0bc",
          "topics": [
            "0x8c5be1e5ebec7d5bd14f71427d1e84f3dd0314c0f7b2291e5b200ac8c7c3b925",
            "0x00000000000000000000000065264bfc8cb0707d9cec36ec258ace23fd173947",
            "0x000000000000000000000000e4e85530ad5c78f86bc766d8d13b793af9035e59"
          ],
          "data": "0xffffffffffffffffffffffffffffffffffffffffffffffffffffffffffffffff",
          "blockHash": "0xa9b43b4009ec7a15874edf883afd3968df76b820bb0ea2e9ff3ce6f37e4ff22b",
          "blockNumber": "0x12ec23f",
          "transactionHash": "0xdfab3f40fdbcb1938a08468b509bf2de306cca76c8d743414db8e1b515f17656",
          "transactionIndex": "0x0",
          "logIndex": "0x0",
          "removed": false
        }
      ],
      "logsBloom": "0x00000000000000000000000000000000000000000000000000000000000000000000000000000000008000000002000000000000000000000000002000200800000000000000000000000000000000000000000000000000000000000000000000000000000000000040000000800000000000000000000000000002000000000000000000000000000000000000000000000000000000000000000000000000020000000000000000000000000000100000000000000000000000000000000000000000000000000000000000000000000000000000000000000000000000000010000000000000000000000000000000000000000000000010000000000000",
      "type": "0x2",
      "transactionHash": "0xdfab3f40fdbcb1938a08468b509bf2de306cca76c8d743414db8e1b515f17656",
      "transactionIndex": "0x0",
      "blockHash": "0xa9b43b4009ec7a15874edf883afd3968df76b820bb0ea2e9ff3ce6f37e4ff22b",
      "blockNumber": "0x12ec23f",
      "gasUsed": "0xb617",
      "effectiveGasPrice": "0x2",
      "blobGasUsed": "0x0",
      "from": "0x65264bfc8cb0707d9cec36ec258ace23fd173947",
      "to": "0xcbc72d92b2dc8187414f6734718563898740c0bc",
      "contractAddress": null
    },
    {
      "status": "0x1",
      "cumulativeGasUsed": "0xb5db",
      "logs": [
        {
          "address": "0xcbc72d92b2dc8187414f6734718563898740c0bc",
          "topics": [
            "0x8c5be1e5ebec7d5bd14f71427d1e84f3dd0314c0f7b2291e5b200ac8c7c3b925",
            "0x00000000000000000000000065264bfc8cb0707d9cec36ec258ace23fd173947",
            "0x00000000000000000000000000000000005bbb0ef59571e58418f9a4357b68a0"
          ],
          "data": "0xffffffffffffffffffffffffffffffffffffffffffffffffffffffffffffffff",
          "blockHash": "0x46d6d28309257138deb819605f374d05b98e48f9e19610ab12483d3fc1235231",
          "blockNumber": "0x12ec240",
          "transactionHash": "0x50d966a4912200e52d21b1345577967b924570bf0a2afee14d54e53c112627d7",
          "transactionIndex": "0x0",
          "logIndex": "0x0",
          "removed": false
        }
      ],
      "logsBloom": "0x00000000000000000000000000000000000000000000000000000000000000000000000000000000400000000002000000000000000000000000000000200800000000000000000000000000000000000000000000000000000000000000000000000000000000000040000000000000000000000000000000000002000000000000000000000000000000000000000000000000000000000000000000000000020000000080000000000000000000100000000000000000000000000000000000000000000000000040000000000000000000000000000000000000000000000010000000000000000000000000000000000000000000000010000000000000",
      "type": "0x2",
      "transactionHash": "0x50d966a4912200e52d21b1345577967b924570bf0a2afee14d54e53c112627d7",
      "transactionIndex": "0x0",
      "blockHash": "0x46d6d28309257138deb819605f374d05b98e48f9e19610ab12483d3fc1235231",
      "blockNumber": "0x12ec240",
      "gasUsed": "0xb5db",
      "effectiveGasPrice": "0x2",
      "blobGasUsed": "0x0",
      "from": "0x65264bfc8cb0707d9cec36ec258ace23fd173947",
      "to": "0xcbc72d92b2dc8187414f6734718563898740c0bc",
      "contractAddress": null
    },
    {
      "status": "0x1",
      "cumulativeGasUsed": "0xb5c0",
      "logs": [
        {
          "address": "0x7f39c581f595b53c5cb19bd0b3f8da6c935e2ca0",
          "topics": [
            "0x8c5be1e5ebec7d5bd14f71427d1e84f3dd0314c0f7b2291e5b200ac8c7c3b925",
            "0x00000000000000000000000065264bfc8cb0707d9cec36ec258ace23fd173947",
            "0x000000000000000000000000e4e85530ad5c78f86bc766d8d13b793af9035e59"
          ],
          "data": "0xffffffffffffffffffffffffffffffffffffffffffffffffffffffffffffffff",
          "blockHash": "0xc9364c798eaa6f9dc0f1ef7e920ff1a342c0b2083371ff43d9eff63c3e3d23c4",
          "blockNumber": "0x12ec241",
          "transactionHash": "0x7d4016053acf5d0e2140f82a912a077c98cea5f0ab6240d0fee99e17a63b876d",
          "transactionIndex": "0x0",
          "logIndex": "0x0",
          "removed": false
        }
      ],
      "logsBloom": "0x00000000000000000000000000000000000000000000000000000000000000000000000000000000008000000000000000000000000000000000002000200800000000000000000000000000000000000000000000000000000000000000000000000000000000000000000000800000000000000000000000000002000000000000000000000000000080000000000000000000000000000000000000000000020000000000000000000000000000000000000000000000000000000000000000000000000000100000000000000000000000000000000000000000000000000010000000000000000000008000000000000000000000000010000000000000",
      "type": "0x2",
      "transactionHash": "0x7d4016053acf5d0e2140f82a912a077c98cea5f0ab6240d0fee99e17a63b876d",
      "transactionIndex": "0x0",
      "blockHash": "0xc9364c798eaa6f9dc0f1ef7e920ff1a342c0b2083371ff43d9eff63c3e3d23c4",
      "blockNumber": "0x12ec241",
      "gasUsed": "0xb5c0",
      "effectiveGasPrice": "0x2",
      "blobGasUsed": "0x0",
      "from": "0x65264bfc8cb0707d9cec36ec258ace23fd173947",
      "to": "0x7f39c581f595b53c5cb19bd0b3f8da6c935e2ca0",
      "contractAddress": null
    },
    {
      "status": "0x1",
      "cumulativeGasUsed": "0xb5af",
      "logs": [
        {
          "address": "0xf99985822fb361117fcf3768d34a6353e6022f5f",
          "topics": [
            "0x8c5be1e5ebec7d5bd14f71427d1e84f3dd0314c0f7b2291e5b200ac8c7c3b925",
            "0x00000000000000000000000065264bfc8cb0707d9cec36ec258ace23fd173947",
            "0x00000000000000000000000000000000005bbb0ef59571e58418f9a4357b68a0"
          ],
          "data": "0xffffffffffffffffffffffffffffffffffffffffffffffffffffffffffffffff",
          "blockHash": "0x2448f15608cc9cfac8cf56c72e25dda90b81d42390252e187a5d7c0e2fb5f2cf",
          "blockNumber": "0x12ec242",
          "transactionHash": "0x8ea5738f51edeab114a194392a4d4278e21501143339432bfa846688cf639c0c",
          "transactionIndex": "0x0",
          "logIndex": "0x0",
          "removed": false
        }
      ],
      "logsBloom": "0x00000000000000000000000000000000000000000000000000000000000000000000000000000000400000000000000000000000000000000000000000200800000000000000000000000000000000000000000000000000000000000000000000000020000000000000000000000000000000000000000000000002000000000000000000000000000000000800000000000000000000000000000000000000020000000080000000000200000000000000000000000000000000000000000000000000000000000040000000000000000000000000000000000000000000000010000000000000000000000000000000000000000000000010000000000000",
      "type": "0x2",
      "transactionHash": "0x8ea5738f51edeab114a194392a4d4278e21501143339432bfa846688cf639c0c",
      "transactionIndex": "0x0",
      "blockHash": "0x2448f15608cc9cfac8cf56c72e25dda90b81d42390252e187a5d7c0e2fb5f2cf",
      "blockNumber": "0x12ec242",
      "gasUsed": "0xb5af",
      "effectiveGasPrice": "0x2",
      "blobGasUsed": "0x0",
      "from": "0x65264bfc8cb0707d9cec36ec258ace23fd173947",
      "to": "0xf99985822fb361117fcf3768d34a6353e6022f5f",
      "contractAddress": null
    },
    {
      "status": "0x1",
      "cumulativeGasUsed": "0x5868",
      "logs": [],
      "logsBloom": "0x00000000000000000000000000000000000000000000000000000000000000000000000000000000000000000000000000000000000000000000000000000000000000000000000000000000000000000000000000000000000000000000000000000000000000000000000000000000000000000000000000000000000000000000000000000000000000000000000000000000000000000000000000000000000000000000000000000000000000000000000000000000000000000000000000000000000000000000000000000000000000000000000000000000000000000000000000000000000000000000000000000000000000000000000000000000",
      "type": "0x2",
      "transactionHash": "0x5e7e3076868f394b6f407ab191183de182b5feb705ad9cca45d364fa5783e30e",
      "transactionIndex": "0x0",
      "blockHash": "0xedaf72a398d478304faf99445c11ea2aa33495e92c1a2eecd83df674989eb61c",
      "blockNumber": "0x12ec243",
      "gasUsed": "0x5868",
      "effectiveGasPrice": "0x2",
      "blobGasUsed": "0x0",
      "from": "0x65264bfc8cb0707d9cec36ec258ace23fd173947",
      "to": "0xe4e85530ad5c78f86bc766d8d13b793af9035e59",
      "contractAddress": null
    },
    {
      "status": "0x1",
      "cumulativeGasUsed": "0xb5ee",
      "logs": [
        {
          "address": "0xc374f7ec85f8c7de3207a10bb1978ba104bda3b2",
          "topics": [
            "0x8c5be1e5ebec7d5bd14f71427d1e84f3dd0314c0f7b2291e5b200ac8c7c3b925",
            "0x00000000000000000000000065264bfc8cb0707d9cec36ec258ace23fd173947",
            "0x00000000000000000000000000000000005bbb0ef59571e58418f9a4357b68a0"
          ],
          "data": "0xffffffffffffffffffffffffffffffffffffffffffffffffffffffffffffffff",
          "blockHash": "0x93e5c9685df9cab38bfa1c2c9056f36aa1a5e491313d35b363cbc96211e64851",
          "blockNumber": "0x12ec244",
          "transactionHash": "0x4bd88924dc61a6581b2d4971e0da3da8ebe5749360194b52971b177b30a03929",
          "transactionIndex": "0x0",
          "logIndex": "0x0",
          "removed": false
        }
      ],
      "logsBloom": "0x00000000000000000000000000000000000000000000000000000000000000000000000000000000400000000000000000000000000000000000000000200800000000000000000000000000000000400000000000000000000000000000000000000000000000000000010000000000000000000000000000000002000000000000000000000000000000000000000000000000000000000000000000000000020000000080002000000000000000000000000000000000000000000000000000000000000000000040000000000000000000000000000000000000000000000010000000000000000000000000000000000000000000000010000000000000",
      "type": "0x2",
      "transactionHash": "0x4bd88924dc61a6581b2d4971e0da3da8ebe5749360194b52971b177b30a03929",
      "transactionIndex": "0x0",
      "blockHash": "0x93e5c9685df9cab38bfa1c2c9056f36aa1a5e491313d35b363cbc96211e64851",
      "blockNumber": "0x12ec244",
      "gasUsed": "0xb5ee",
      "effectiveGasPrice": "0x2",
      "blobGasUsed": "0x0",
      "from": "0x65264bfc8cb0707d9cec36ec258ace23fd173947",
      "to": "0xc374f7ec85f8c7de3207a10bb1978ba104bda3b2",
      "contractAddress": null
    },
    {
      "status": "0x1",
      "cumulativeGasUsed": "0xb5d8",
      "logs": [
        {
          "address": "0xf3abc972a0f537c1119c990d422463b93227cd83",
          "topics": [
            "0x8c5be1e5ebec7d5bd14f71427d1e84f3dd0314c0f7b2291e5b200ac8c7c3b925",
            "0x00000000000000000000000065264bfc8cb0707d9cec36ec258ace23fd173947",
            "0x00000000000000000000000000000000005bbb0ef59571e58418f9a4357b68a0"
          ],
          "data": "0xffffffffffffffffffffffffffffffffffffffffffffffffffffffffffffffff",
          "blockHash": "0xe83a53dbc61a77b55df3d09e871edb905d769c39a5533432e175b57794ce0d3c",
          "blockNumber": "0x12ec245",
          "transactionHash": "0xd311aa292db1ebcff8e9cce2c7bd132645bcd89f3b7fd43d844d9970487a0442",
          "transactionIndex": "0x0",
          "logIndex": "0x0",
          "removed": false
        }
      ],
      "logsBloom": "0x00000000000000000000000000000000000000000000000000000000000000000000000000000000400000000000000000000000000000000000000000200800000000000000000000000000000000000000000000000000000000000000000000010000000000000000000000000000000000000000000000000002000000000000000000000000000000000000000000000000000000000000000000000000020000000080000000000000000000000000000000000000000000000000000000000000000000000040000000000000000000000000000000000000000000000010000000000000000000000000000000000000000000010090000000000000",
      "type": "0x2",
      "transactionHash": "0xd311aa292db1ebcff8e9cce2c7bd132645bcd89f3b7fd43d844d9970487a0442",
      "transactionIndex": "0x0",
      "blockHash": "0xe83a53dbc61a77b55df3d09e871edb905d769c39a5533432e175b57794ce0d3c",
      "blockNumber": "0x12ec245",
      "gasUsed": "0xb5d8",
      "effectiveGasPrice": "0x2",
      "blobGasUsed": "0x0",
      "from": "0x65264bfc8cb0707d9cec36ec258ace23fd173947",
      "to": "0xf3abc972a0f537c1119c990d422463b93227cd83",
      "contractAddress": null
    }
  ],
  "libraries": [],
  "pending": [],
  "returns": {},
  "timestamp": 1715372019,
  "chain": 1,
  "commit": "7bc44a9"
}