{
  "transactions": [
    {
      "hash": "0x7a2e370a729070271dbdbabd804618792f3165e5ae64d03737e35b4c0c722d3e",
      "transactionType": "CALL",
      "contractName": null,
      "contractAddress": "0x7f39c581f595b53c5cb19bd0b3f8da6c935e2ca0",
      "function": "approve(address,uint256)",
      "arguments": [
        "0xE3fFcA31BBA27392aF23B8018bd59c399f843093",
        "115792089237316195423570985008687907853269984665640564039457584007913129639935"
      ],
      "transaction": {
        "from": "0x687deb45decb0ff4aa0b2d46725f5d1d5a8e3d22",
        "to": "0x7f39c581f595b53c5cb19bd0b3f8da6c935e2ca0",
        "gas": "0x8fab",
        "value": "0x0",
        "input": "0x095ea7b3000000000000000000000000e3ffca31bba27392af23b8018bd59c399f843093ffffffffffffffffffffffffffffffffffffffffffffffffffffffffffffffff",
        "nonce": "0x65",
        "chainId": "0xb8030"
      },
      "additionalContracts": [],
      "isFixedGasLimit": false
    },
    {
      "hash": "0x184e7ec3602d5361c3d323c86267542db60bef36cb3227afeccd9e0c85af9f2a",
      "transactionType": "CALL",
      "contractName": null,
      "contractAddress": "0xcbc72d92b2dc8187414f6734718563898740c0bc",
      "function": "approve(address,uint256)",
      "arguments": [
        "0xE3fFcA31BBA27392aF23B8018bd59c399f843093",
        "115792089237316195423570985008687907853269984665640564039457584007913129639935"
      ],
      "transaction": {
        "from": "0x687deb45decb0ff4aa0b2d46725f5d1d5a8e3d22",
        "to": "0xcbc72d92b2dc8187414f6734718563898740c0bc",
        "gas": "0x989e",
        "value": "0x0",
        "input": "0x095ea7b3000000000000000000000000e3ffca31bba27392af23b8018bd59c399f843093ffffffffffffffffffffffffffffffffffffffffffffffffffffffffffffffff",
        "nonce": "0x66",
        "chainId": "0xb8030"
      },
      "additionalContracts": [],
      "isFixedGasLimit": false
    },
    {
      "hash": "0xad5075f61bd09756520b723c920fef2bb0c48e9703f5fa36165fc19ee8b600a9",
      "transactionType": "CALL",
      "contractName": null,
      "contractAddress": "0xf99985822fb361117fcf3768d34a6353e6022f5f",
      "function": "approve(address,uint256)",
      "arguments": [
        "0xE3fFcA31BBA27392aF23B8018bd59c399f843093",
        "115792089237316195423570985008687907853269984665640564039457584007913129639935"
      ],
      "transaction": {
        "from": "0x687deb45decb0ff4aa0b2d46725f5d1d5a8e3d22",
        "to": "0xf99985822fb361117fcf3768d34a6353e6022f5f",
        "gas": "0x8fe6",
        "value": "0x0",
        "input": "0x095ea7b3000000000000000000000000e3ffca31bba27392af23b8018bd59c399f843093ffffffffffffffffffffffffffffffffffffffffffffffffffffffffffffffff",
        "nonce": "0x67",
        "chainId": "0xb8030"
      },
      "additionalContracts": [],
      "isFixedGasLimit": false
    },
    {
      "hash": "0x590f212e887e6fa7f99396bac2cc0195930edee6656616a8ca4d6bbd76554d94",
      "transactionType": "CALL",
      "contractName": null,
      "contractAddress": "0xf3abc972a0f537c1119c990d422463b93227cd83",
      "function": "approve(address,uint256)",
      "arguments": [
        "0xE3fFcA31BBA27392aF23B8018bd59c399f843093",
        "115792089237316195423570985008687907853269984665640564039457584007913129639935"
      ],
      "transaction": {
        "from": "0x687deb45decb0ff4aa0b2d46725f5d1d5a8e3d22",
        "to": "0xf3abc972a0f537c1119c990d422463b93227cd83",
        "gas": "0x901f",
        "value": "0x0",
        "input": "0x095ea7b3000000000000000000000000e3ffca31bba27392af23b8018bd59c399f843093ffffffffffffffffffffffffffffffffffffffffffffffffffffffffffffffff",
        "nonce": "0x68",
        "chainId": "0xb8030"
      },
      "additionalContracts": [],
      "isFixedGasLimit": false
    },
    {
      "hash": "0x3ce08967a0e0030dd176d390289e6b30fd0f9d8c5072cab9e62353acd9371d1e",
      "transactionType": "CALL",
      "contractName": null,
      "contractAddress": "0x7f39c581f595b53c5cb19bd0b3f8da6c935e2ca0",
      "function": "approve(address,uint256)",
      "arguments": [
        "0xcbC72d92b2dc8187414F6734718563898740C0BC",
        "115792089237316195423570985008687907853269984665640564039457584007913129639935"
      ],
      "transaction": {
        "from": "0x687deb45decb0ff4aa0b2d46725f5d1d5a8e3d22",
        "to": "0x7f39c581f595b53c5cb19bd0b3f8da6c935e2ca0",
        "gas": "0x9ec7",
        "value": "0x0",
        "input": "0x095ea7b3000000000000000000000000cbc72d92b2dc8187414f6734718563898740c0bcffffffffffffffffffffffffffffffffffffffffffffffffffffffffffffffff",
        "nonce": "0x69",
        "chainId": "0xb8030"
      },
      "additionalContracts": [],
      "isFixedGasLimit": false
    },
    {
      "hash": "0xd11a32d30c0f40f2829873a233a59290207b55ce924aa64d3542668dcfa63039",
      "transactionType": "CALL",
      "contractName": null,
      "contractAddress": "0xcbc72d92b2dc8187414f6734718563898740c0bc",
      "function": "deposit(address,address,uint256,uint256)",
      "arguments": [
        "0x687dEB45Decb0ff4AA0b2d46725F5d1d5a8e3d22",
        "0x7f39C581F595B53c5cb19bD0b3f8dA6c935E2Ca0",
        "44786875046544876328",
        "1"
      ],
      "transaction": {
        "from": "0x687deb45decb0ff4aa0b2d46725f5d1d5a8e3d22",
        "to": "0xcbc72d92b2dc8187414f6734718563898740c0bc",
        "gas": "0x1605f",
        "value": "0x0",
        "input": "0x20e8c565000000000000000000000000687deb45decb0ff4aa0b2d46725f5d1d5a8e3d220000000000000000000000007f39c581f595b53c5cb19bd0b3f8da6c935e2ca00000000000000000000000000000000000000000000000026d8af190551d23280000000000000000000000000000000000000000000000000000000000000001",
        "nonce": "0x6a",
        "chainId": "0xb8030"
      },
      "additionalContracts": [],
      "isFixedGasLimit": false
    },
    {
      "hash": "0xefe8184260719bfa2d9472fc318c1dc04bc50f5aa000bbf1f964a0034afa3b95",
      "transactionType": "CALL",
      "contractName": null,
      "contractAddress": "0xe3ffca31bba27392af23b8018bd59c399f843093",
      "function": "swapExactSyForPt(uint256,uint256,address)",
      "arguments": [
        "44786875046544876328",
        "0",
        "0x7FA9385bE102ac3EAc297483Dd6233D62b3e1496"
      ],
      "transaction": {
        "from": "0x687deb45decb0ff4aa0b2d46725f5d1d5a8e3d22",
        "to": "0xe3ffca31bba27392af23b8018bd59c399f843093",
        "gas": "0xf975e",
        "value": "0x0",
        "input": "0x73a888f60000000000000000000000000000000000000000000000026d8af190551d232800000000000000000000000000000000000000000000000000000000000000000000000000000000000000007fa9385be102ac3eac297483dd6233d62b3e1496",
        "nonce": "0x6b",
        "chainId": "0xb8030"
      },
      "additionalContracts": [],
      "isFixedGasLimit": false
    }
  ],
  "receipts": [
    {
      "status": "0x1",
      "cumulativeGasUsed": "0x6804",
      "logs": [
        {
          "address": "0x7f39c581f595b53c5cb19bd0b3f8da6c935e2ca0",
          "topics": [
            "0x8c5be1e5ebec7d5bd14f71427d1e84f3dd0314c0f7b2291e5b200ac8c7c3b925",
            "0x000000000000000000000000687deb45decb0ff4aa0b2d46725f5d1d5a8e3d22",
            "0x000000000000000000000000e3ffca31bba27392af23b8018bd59c399f843093"
          ],
          "data": "0xffffffffffffffffffffffffffffffffffffffffffffffffffffffffffffffff",
          "blockHash": "0xd44263c6d9981313fd0f3cc6aa530da0c89195e1801e6b66c9152d80e6db3a27",
          "blockNumber": "0x131a539",
          "transactionHash": "0x7a2e370a729070271dbdbabd804618792f3165e5ae64d03737e35b4c0c722d3e",
          "transactionIndex": "0x0",
          "logIndex": "0x0",
          "removed": false
        }
      ],
      "logsBloom": "0x00000000000000000000001000000000000000000000000000000000000000000000000000000000000000000000000000000020000000000000000000200000000000000000002000000000000000000000000000000000000000000000000000000000000000000000000000000000000000000020000000000000000000000000000000000000000080000000000000000000000000000000000000000000020000000000002000000000000000000000000000000000000000000000000000000000000000100000000000000000000000000000000000000000200000000010000000000000000000008000000000000000000000000000000000000000",
      "type": "0x2",
      "transactionHash": "0x7a2e370a729070271dbdbabd804618792f3165e5ae64d03737e35b4c0c722d3e",
      "transactionIndex": "0x0",
      "blockHash": "0xd44263c6d9981313fd0f3cc6aa530da0c89195e1801e6b66c9152d80e6db3a27",
      "blockNumber": "0x131a539",
      "gasUsed": "0x6804",
      "effectiveGasPrice": "0x3",
      "blobGasUsed": "0x0",
      "from": "0x687deb45decb0ff4aa0b2d46725f5d1d5a8e3d22",
      "to": "0x7f39c581f595b53c5cb19bd0b3f8da6c935e2ca0",
      "contractAddress": null
    },
    {
      "status": "0x1",
      "cumulativeGasUsed": "0x6858",
      "logs": [
        {
          "address": "0xf3abc972a0f537c1119c990d422463b93227cd83",
          "topics": [
            "0x8c5be1e5ebec7d5bd14f71427d1e84f3dd0314c0f7b2291e5b200ac8c7c3b925",
            "0x000000000000000000000000687deb45decb0ff4aa0b2d46725f5d1d5a8e3d22",
            "0x000000000000000000000000e3ffca31bba27392af23b8018bd59c399f843093"
          ],
          "data": "0xffffffffffffffffffffffffffffffffffffffffffffffffffffffffffffffff",
          "blockHash": "0xf04396b81ed55453acf4dd15348fb14e1ed106566f52632ac659383f26c54e69",
          "blockNumber": "0x131a53a",
          "transactionHash": "0x590f212e887e6fa7f99396bac2cc0195930edee6656616a8ca4d6bbd76554d94",
          "transactionIndex": "0x0",
          "logIndex": "0x0",
          "removed": false
        }
      ],
      "logsBloom": "0x00000000000000000000001000000000000000000000000000000000000000000000000000000000000000000000000000000020000000000000000000200000000000000000002000000000000000000000000000000000000000000000000000010000000000000000000000000000000000000020000000000000000000000000000000000000000000000000000000000000000000000000000000000000020000000000002000000000000000000000000000000000000000000000000000000000000000000000000000000000000000000000000000000000200000000010000000000000000000000000000000000000000000010080000000000000",
      "type": "0x2",
      "transactionHash": "0x590f212e887e6fa7f99396bac2cc0195930edee6656616a8ca4d6bbd76554d94",
      "transactionIndex": "0x0",
      "blockHash": "0xf04396b81ed55453acf4dd15348fb14e1ed106566f52632ac659383f26c54e69",
      "blockNumber": "0x131a53a",
      "gasUsed": "0x6858",
      "effectiveGasPrice": "0x3",
      "blobGasUsed": "0x0",
      "from": "0x687deb45decb0ff4aa0b2d46725f5d1d5a8e3d22",
      "to": "0xf3abc972a0f537c1119c990d422463b93227cd83",
      "contractAddress": null
    },
    {
      "status": "0x1",
      "cumulativeGasUsed": "0x685b",
      "logs": [
        {
          "address": "0xcbc72d92b2dc8187414f6734718563898740c0bc",
          "topics": [
            "0x8c5be1e5ebec7d5bd14f71427d1e84f3dd0314c0f7b2291e5b200ac8c7c3b925",
            "0x000000000000000000000000687deb45decb0ff4aa0b2d46725f5d1d5a8e3d22",
            "0x000000000000000000000000e3ffca31bba27392af23b8018bd59c399f843093"
          ],
          "data": "0xffffffffffffffffffffffffffffffffffffffffffffffffffffffffffffffff",
          "blockHash": "0x98b1bdc2d788a97aa9bd9e4cfccfacbac334bcfa9b7e47273a33f0c389026d78",
          "blockNumber": "0x131a53b",
          "transactionHash": "0x184e7ec3602d5361c3d323c86267542db60bef36cb3227afeccd9e0c85af9f2a",
          "transactionIndex": "0x0",
          "logIndex": "0x0",
          "removed": false
        }
      ],
      "logsBloom": "0x00000000000000000000001000000000000000000000000000000000000000000000000000000000000000000002000000000020000000000000000000200000000000000000002000000000000000000000000000000000000000000000000000000000000000000040000000000000000000000020000000000000000000000000000000000000000000000000000000000000000000000000000000000000020000000000002000000000000000100000000000000000000000000000000000000000000000000000000000000000000000000000000000000000200000000010000000000000000000000000000000000000000000000000000000000000",
      "type": "0x2",
      "transactionHash": "0x184e7ec3602d5361c3d323c86267542db60bef36cb3227afeccd9e0c85af9f2a",
      "transactionIndex": "0x0",
      "blockHash": "0x98b1bdc2d788a97aa9bd9e4cfccfacbac334bcfa9b7e47273a33f0c389026d78",
      "blockNumber": "0x131a53b",
      "gasUsed": "0x685b",
      "effectiveGasPrice": "0x3",
      "blobGasUsed": "0x0",
      "from": "0x687deb45decb0ff4aa0b2d46725f5d1d5a8e3d22",
      "to": "0xcbc72d92b2dc8187414f6734718563898740c0bc",
      "contractAddress": null
    },
    {
      "status": "0x1",
      "cumulativeGasUsed": "0x682f",
      "logs": [
        {
          "address": "0xf99985822fb361117fcf3768d34a6353e6022f5f",
          "topics": [
            "0x8c5be1e5ebec7d5bd14f71427d1e84f3dd0314c0f7b2291e5b200ac8c7c3b925",
            "0x000000000000000000000000687deb45decb0ff4aa0b2d46725f5d1d5a8e3d22",
            "0x000000000000000000000000e3ffca31bba27392af23b8018bd59c399f843093"
          ],
          "data": "0xffffffffffffffffffffffffffffffffffffffffffffffffffffffffffffffff",
          "blockHash": "0xa299588930bc215bfb5e01135e2cf88da61413951484f27c677c8aae28ba9bb2",
          "blockNumber": "0x131a53c",
          "transactionHash": "0xad5075f61bd09756520b723c920fef2bb0c48e9703f5fa36165fc19ee8b600a9",
          "transactionIndex": "0x0",
          "logIndex": "0x0",
          "removed": false
        }
      ],
      "logsBloom": "0x00000000000000000000001000000000000000000000000000000000000000000000000000000000000000000000000000000020000000000000000000200000000000000000002000000000000000000000000000000000000000000000000000000020000000000000000000000000000000000020000000000000000000000000000000000000000000000800000000000000000000000000000000000000020000000000002000000200000000000000000000000000000000000000000000000000000000000000000000000000000000000000000000000000200000000010000000000000000000000000000000000000000000000000000000000000",
      "type": "0x2",
      "transactionHash": "0xad5075f61bd09756520b723c920fef2bb0c48e9703f5fa36165fc19ee8b600a9",
      "transactionIndex": "0x0",
      "blockHash": "0xa299588930bc215bfb5e01135e2cf88da61413951484f27c677c8aae28ba9bb2",
      "blockNumber": "0x131a53c",
      "gasUsed": "0x682f",
      "effectiveGasPrice": "0x3",
      "blobGasUsed": "0x0",
      "from": "0x687deb45decb0ff4aa0b2d46725f5d1d5a8e3d22",
      "to": "0xf99985822fb361117fcf3768d34a6353e6022f5f",
      "contractAddress": null
    },
    {
      "status": "0x1",
      "cumulativeGasUsed": "0xff1d",
      "logs": [
        {
          "address": "0x7f39c581f595b53c5cb19bd0b3f8da6c935e2ca0",
          "topics": [
            "0xddf252ad1be2c89b69c2b068fc378daa952ba7f163c4a11628f55a4df523b3ef",
            "0x000000000000000000000000687deb45decb0ff4aa0b2d46725f5d1d5a8e3d22",
            "0x000000000000000000000000cbc72d92b2dc8187414f6734718563898740c0bc"
          ],
          "data": "0x0000000000000000000000000000000000000000000000026d8af190551d2328",
          "blockHash": "0x454672f346ec2aeb490bd773a321fc22acd3d89f8ce44618414908cb481b9c7f",
          "blockNumber": "0x131a53d",
          "transactionHash": "0xd11a32d30c0f40f2829873a233a59290207b55ce924aa64d3542668dcfa63039",
          "transactionIndex": "0x0",
          "logIndex": "0x0",
          "removed": false
        },
        {
          "address": "0x7f39c581f595b53c5cb19bd0b3f8da6c935e2ca0",
          "topics": [
            "0x8c5be1e5ebec7d5bd14f71427d1e84f3dd0314c0f7b2291e5b200ac8c7c3b925",
            "0x000000000000000000000000687deb45decb0ff4aa0b2d46725f5d1d5a8e3d22",
            "0x000000000000000000000000cbc72d92b2dc8187414f6734718563898740c0bc"
          ],
          "data": "0xfffffffffffffffffffffffffffffffffffffffffffffddf789444b4f8a2dcd7",
          "blockHash": "0x454672f346ec2aeb490bd773a321fc22acd3d89f8ce44618414908cb481b9c7f",
          "blockNumber": "0x131a53d",
          "transactionHash": "0xd11a32d30c0f40f2829873a233a59290207b55ce924aa64d3542668dcfa63039",
          "transactionIndex": "0x0",
          "logIndex": "0x1",
          "removed": false
        },
        {
          "address": "0xcbc72d92b2dc8187414f6734718563898740c0bc",
          "topics": [
            "0xddf252ad1be2c89b69c2b068fc378daa952ba7f163c4a11628f55a4df523b3ef",
            "0x0000000000000000000000000000000000000000000000000000000000000000",
            "0x000000000000000000000000687deb45decb0ff4aa0b2d46725f5d1d5a8e3d22"
          ],
          "data": "0x0000000000000000000000000000000000000000000000026d8af190551d2328",
          "blockHash": "0x454672f346ec2aeb490bd773a321fc22acd3d89f8ce44618414908cb481b9c7f",
          "blockNumber": "0x131a53d",
          "transactionHash": "0xd11a32d30c0f40f2829873a233a59290207b55ce924aa64d3542668dcfa63039",
          "transactionIndex": "0x0",
          "logIndex": "0x2",
          "removed": false
        },
        {
          "address": "0xcbc72d92b2dc8187414f6734718563898740c0bc",
          "topics": [
            "0x5fe47ed6d4225326d3303476197d782ded5a4e9c14f479dc9ec4992af4e85d59",
            "0x000000000000000000000000687deb45decb0ff4aa0b2d46725f5d1d5a8e3d22",
            "0x000000000000000000000000687deb45decb0ff4aa0b2d46725f5d1d5a8e3d22",
            "0x0000000000000000000000007f39c581f595b53c5cb19bd0b3f8da6c935e2ca0"
          ],
          "data": "0x0000000000000000000000000000000000000000000000026d8af190551d23280000000000000000000000000000000000000000000000026d8af190551d2328",
          "blockHash": "0x454672f346ec2aeb490bd773a321fc22acd3d89f8ce44618414908cb481b9c7f",
          "blockNumber": "0x131a53d",
          "transactionHash": "0xd11a32d30c0f40f2829873a233a59290207b55ce924aa64d3542668dcfa63039",
          "transactionIndex": "0x0",
          "logIndex": "0x3",
          "removed": false
        }
      ],
      "logsBloom": "0x00000000000000000000000000000000000000001000000000000000000000000000000000000000000000000002000000000000010000000000000000200000000000000000002000000008000000000000000000000000080000000000000000000000020000000040000000000801000000000020000000000010000000000000000010000000000080000000000000000000000000000000000000002000020000000000000000000000000000100000000000000000000000000000000000000002000000100000000000000480000000000000000000000000200020000010000000000000000000008000000000000000004000000000000000000000",
      "type": "0x2",
      "transactionHash": "0xd11a32d30c0f40f2829873a233a59290207b55ce924aa64d3542668dcfa63039",
      "transactionIndex": "0x0",
      "blockHash": "0x454672f346ec2aeb490bd773a321fc22acd3d89f8ce44618414908cb481b9c7f",
      "blockNumber": "0x131a53d",
      "gasUsed": "0xff1d",
      "effectiveGasPrice": "0x3",
      "blobGasUsed": "0x0",
      "from": "0x687deb45decb0ff4aa0b2d46725f5d1d5a8e3d22",
      "to": "0xcbc72d92b2dc8187414f6734718563898740c0bc",
      "contractAddress": null
    },
    {
      "status": "0x1",
      "cumulativeGasUsed": "0x72f4",
      "logs": [
        {
          "address": "0x7f39c581f595b53c5cb19bd0b3f8da6c935e2ca0",
          "topics": [
            "0x8c5be1e5ebec7d5bd14f71427d1e84f3dd0314c0f7b2291e5b200ac8c7c3b925",
            "0x000000000000000000000000687deb45decb0ff4aa0b2d46725f5d1d5a8e3d22",
            "0x000000000000000000000000cbc72d92b2dc8187414f6734718563898740c0bc"
          ],
          "data": "0xffffffffffffffffffffffffffffffffffffffffffffffffffffffffffffffff",
          "blockHash": "0x9d8401f7f095d17d79c842a4e7b06a9586e20474179d6372e340d506eb1a4f1d",
          "blockNumber": "0x131a53e",
          "transactionHash": "0x3ce08967a0e0030dd176d390289e6b30fd0f9d8c5072cab9e62353acd9371d1e",
          "transactionIndex": "0x0",
          "logIndex": "0x0",
          "removed": false
        }
      ],
      "logsBloom": "0x00000000000000000000000000000000000000001000000000000000000000000000000000000000000000000000000000000000000000000000000000200000000000000000002000000000000000000000000000000000000000000000000000000000000000000000000000000001000000000020000000000000000000000000000000000000000080000000000000000000000000000000000000000000020000000000000000000000000000000000000000000000000000000000000000000000000000100000000000000400000000000000000000000000200000000010000000000000000000008000000000000000000000000000000000000000",
      "type": "0x2",
      "transactionHash": "0x3ce08967a0e0030dd176d390289e6b30fd0f9d8c5072cab9e62353acd9371d1e",
      "transactionIndex": "0x0",
      "blockHash": "0x9d8401f7f095d17d79c842a4e7b06a9586e20474179d6372e340d506eb1a4f1d",
      "blockNumber": "0x131a53e",
      "gasUsed": "0x72f4",
      "effectiveGasPrice": "0x3",
      "blobGasUsed": "0x0",
      "from": "0x687deb45decb0ff4aa0b2d46725f5d1d5a8e3d22",
      "to": "0x7f39c581f595b53c5cb19bd0b3f8da6c935e2ca0",
      "contractAddress": null
    },
    {
      "status": "0x1",
      "cumulativeGasUsed": "0xb49b6",
      "logs": [
        {
          "address": "0xf3abc972a0f537c1119c990d422463b93227cd83",
          "topics": [
            "0x71475f2f645813fdbebf53a58968008bff11ee21a58f01c5a9cc263d0bc4703d",
            "0x000000000000000000000000000000000000000000000000104d893461b5f518"
          ],
          "data": "0x",
          "blockHash": "0x1d7412775d73160a5a9d7043c4d33d2641d09e098da2d6cebe87893333638b22",
          "blockNumber": "0x131a53f",
          "transactionHash": "0xefe8184260719bfa2d9472fc318c1dc04bc50f5aa000bbf1f964a0034afa3b95",
          "transactionIndex": "0x0",
          "logIndex": "0x0",
          "removed": false
        },
        {
          "address": "0xf99985822fb361117fcf3768d34a6353e6022f5f",
          "topics": [
            "0xddf252ad1be2c89b69c2b068fc378daa952ba7f163c4a11628f55a4df523b3ef",
            "0x000000000000000000000000e3ffca31bba27392af23b8018bd59c399f843093",
            "0x0000000000000000000000007fa9385be102ac3eac297483dd6233d62b3e1496"
          ],
          "data": "0x0000000000000000000000000000000000000000000000030639631de95940df",
          "blockHash": "0x1d7412775d73160a5a9d7043c4d33d2641d09e098da2d6cebe87893333638b22",
          "blockNumber": "0x131a53f",
          "transactionHash": "0xefe8184260719bfa2d9472fc318c1dc04bc50f5aa000bbf1f964a0034afa3b95",
          "transactionIndex": "0x0",
          "logIndex": "0x1",
          "removed": false
        },
        {
          "address": "0xcbc72d92b2dc8187414f6734718563898740c0bc",
          "topics": [
            "0xddf252ad1be2c89b69c2b068fc378daa952ba7f163c4a11628f55a4df523b3ef",
            "0x000000000000000000000000687deb45decb0ff4aa0b2d46725f5d1d5a8e3d22",
            "0x000000000000000000000000e3ffca31bba27392af23b8018bd59c399f843093"
          ],
          "data": "0x0000000000000000000000000000000000000000000000026d8af190551d2328",
          "blockHash": "0x1d7412775d73160a5a9d7043c4d33d2641d09e098da2d6cebe87893333638b22",
          "blockNumber": "0x131a53f",
          "transactionHash": "0xefe8184260719bfa2d9472fc318c1dc04bc50f5aa000bbf1f964a0034afa3b95",
          "transactionIndex": "0x0",
          "logIndex": "0x2",
          "removed": false
        },
        {
          "address": "0xe3ffca31bba27392af23b8018bd59c399f843093",
          "topics": [
            "0xd4dbfaa7c0fe51eee24a1cdcafd0378cd3652cdba735dfc4b061aa55c2a458a5",
            "0x0000000000000000000000007fa9385be102ac3eac297483dd6233d62b3e1496",
            "0x000000000000000000000000cbc72d92b2dc8187414f6734718563898740c0bc",
            "0x000000000000000000000000f99985822fb361117fcf3768d34a6353e6022f5f"
          ],
          "data": "0x000000000000000000000000687deb45decb0ff4aa0b2d46725f5d1d5a8e3d220000000000000000000000000000000000000000000000026d8af190551d23280000000000000000000000000000000000000000000000030639631de95940df000000000000000000000000000000000000000000000000bc7f1f551fbb1b41",
          "blockHash": "0x1d7412775d73160a5a9d7043c4d33d2641d09e098da2d6cebe87893333638b22",
          "blockNumber": "0x131a53f",
          "transactionHash": "0xefe8184260719bfa2d9472fc318c1dc04bc50f5aa000bbf1f964a0034afa3b95",
          "transactionIndex": "0x0",
          "logIndex": "0x3",
          "removed": false
        }
      ],
      "logsBloom": "0x00000000000000000000001000000000010000001000000000000000000000000000000000000000000000000002000000000020000000000000000000000000000000000000002000000008000000000008000400002000000000000000040000010020000000000040000004000001000000000020000000000010000002000000000000040100000000000800400000000000000000000000000000000000000000000000003000000300000000100000000000000000000000000040000000000002000000000000000000200400000000000000000000000000200000000000008400000000000000000000000000800000000000010080000020000000",
      "type": "0x2",
      "transactionHash": "0xefe8184260719bfa2d9472fc318c1dc04bc50f5aa000bbf1f964a0034afa3b95",
      "transactionIndex": "0x0",
      "blockHash": "0x1d7412775d73160a5a9d7043c4d33d2641d09e098da2d6cebe87893333638b22",
      "blockNumber": "0x131a53f",
      "gasUsed": "0xb49b6",
      "effectiveGasPrice": "0x3",
      "blobGasUsed": "0x0",
      "from": "0x687deb45decb0ff4aa0b2d46725f5d1d5a8e3d22",
      "to": "0xe3ffca31bba27392af23b8018bd59c399f843093",
      "contractAddress": null
    }
  ],
  "libraries": [],
  "pending": [],
  "returns": {},
  "timestamp": 1718911400,
  "chain": 753712,
  "commit": "937591a"
}