{
  "transactions": [
    {
      "hash": "0x443a462844f3e99f5b7abf165be0b1bb6f55e6e08ce28ce4655e9a9c1197d88b",
      "transactionType": "CALL",
      "contractName": null,
      "contractAddress": "0x7f39c581f595b53c5cb19bd0b3f8da6c935e2ca0",
      "function": "approve(address,uint256)",
      "arguments": [
        "0xE3fFcA31BBA27392aF23B8018bd59c399f843093",
        "115792089237316195423570985008687907853269984665640564039457584007913129639935"
      ],
      "transaction": {
        "from": "0x687deb45decb0ff4aa0b2d46725f5d1d5a8e3d22",
        "to": "0x7f39c581f595b53c5cb19bd0b3f8da6c935e2ca0",
        "gas": "0x8fab",
        "value": "0x0",
        "input": "0x095ea7b3000000000000000000000000e3ffca31bba27392af23b8018bd59c399f843093ffffffffffffffffffffffffffffffffffffffffffffffffffffffffffffffff",
        "nonce": "0x6c",
        "chainId": "0xb8030"
      },
      "additionalContracts": [],
      "isFixedGasLimit": false
    },
    {
      "hash": "0xea781e1965a0f6c5b5c979bd1f1152d4e32bea00e59b2a2fcd0b34f1625da80d",
      "transactionType": "CALL",
      "contractName": null,
      "contractAddress": "0xcbc72d92b2dc8187414f6734718563898740c0bc",
      "function": "approve(address,uint256)",
      "arguments": [
        "0xE3fFcA31BBA27392aF23B8018bd59c399f843093",
        "115792089237316195423570985008687907853269984665640564039457584007913129639935"
      ],
      "transaction": {
        "from": "0x687deb45decb0ff4aa0b2d46725f5d1d5a8e3d22",
        "to": "0xcbc72d92b2dc8187414f6734718563898740c0bc",
        "gas": "0x989e",
        "value": "0x0",
        "input": "0x095ea7b3000000000000000000000000e3ffca31bba27392af23b8018bd59c399f843093ffffffffffffffffffffffffffffffffffffffffffffffffffffffffffffffff",
        "nonce": "0x6d",
        "chainId": "0xb8030"
      },
      "additionalContracts": [],
      "isFixedGasLimit": false
    },
    {
      "hash": "0x00f8e2dbc3e8e4dc41f5efe3ba1c1abd372ef28348e7b9140a32135ff7d3b750",
      "transactionType": "CALL",
      "contractName": null,
      "contractAddress": "0xf99985822fb361117fcf3768d34a6353e6022f5f",
      "function": "approve(address,uint256)",
      "arguments": [
        "0xE3fFcA31BBA27392aF23B8018bd59c399f843093",
        "115792089237316195423570985008687907853269984665640564039457584007913129639935"
      ],
      "transaction": {
        "from": "0x687deb45decb0ff4aa0b2d46725f5d1d5a8e3d22",
        "to": "0xf99985822fb361117fcf3768d34a6353e6022f5f",
        "gas": "0x8fe6",
        "value": "0x0",
        "input": "0x095ea7b3000000000000000000000000e3ffca31bba27392af23b8018bd59c399f843093ffffffffffffffffffffffffffffffffffffffffffffffffffffffffffffffff",
        "nonce": "0x6e",
        "chainId": "0xb8030"
      },
      "additionalContracts": [],
      "isFixedGasLimit": false
    },
    {
      "hash": "0x069e08b49375bf6711a467eea2c4a81cde5884f0fdf815f04f8bf98f326abca6",
      "transactionType": "CALL",
      "contractName": null,
      "contractAddress": "0xf3abc972a0f537c1119c990d422463b93227cd83",
      "function": "approve(address,uint256)",
      "arguments": [
        "0xE3fFcA31BBA27392aF23B8018bd59c399f843093",
        "115792089237316195423570985008687907853269984665640564039457584007913129639935"
      ],
      "transaction": {
        "from": "0x687deb45decb0ff4aa0b2d46725f5d1d5a8e3d22",
        "to": "0xf3abc972a0f537c1119c990d422463b93227cd83",
        "gas": "0x901f",
        "value": "0x0",
        "input": "0x095ea7b3000000000000000000000000e3ffca31bba27392af23b8018bd59c399f843093ffffffffffffffffffffffffffffffffffffffffffffffffffffffffffffffff",
        "nonce": "0x6f",
        "chainId": "0xb8030"
      },
      "additionalContracts": [],
      "isFixedGasLimit": false
    },
    {
      "hash": "0x904af71d67cc543532295793f33cf29bfa5746179a9de882d72028f13da92352",
      "transactionType": "CALL",
      "contractName": null,
      "contractAddress": "0x7f39c581f595b53c5cb19bd0b3f8da6c935e2ca0",
      "function": "approve(address,uint256)",
      "arguments": [
        "0xcbC72d92b2dc8187414F6734718563898740C0BC",
        "115792089237316195423570985008687907853269984665640564039457584007913129639935"
      ],
      "transaction": {
        "from": "0x687deb45decb0ff4aa0b2d46725f5d1d5a8e3d22",
        "to": "0x7f39c581f595b53c5cb19bd0b3f8da6c935e2ca0",
        "gas": "0x8fab",
        "value": "0x0",
        "input": "0x095ea7b3000000000000000000000000cbc72d92b2dc8187414f6734718563898740c0bcffffffffffffffffffffffffffffffffffffffffffffffffffffffffffffffff",
        "nonce": "0x70",
        "chainId": "0xb8030"
      },
      "additionalContracts": [],
      "isFixedGasLimit": false
    },
    {
      "hash": "0xfcadb5322be2009e39147beb18a54882ccb710e2d46b2e5dcf7fb8c092e61ad1",
      "transactionType": "CALL",
      "contractName": null,
      "contractAddress": "0xcbc72d92b2dc8187414f6734718563898740c0bc",
      "function": "deposit(address,address,uint256,uint256)",
      "arguments": [
        "0x687dEB45Decb0ff4AA0b2d46725F5d1d5a8e3d22",
        "0x7f39C581F595B53c5cb19bD0b3f8dA6c935E2Ca0",
        "10116985018084294189",
        "1"
      ],
      "transaction": {
        "from": "0x687deb45decb0ff4aa0b2d46725f5d1d5a8e3d22",
        "to": "0xcbc72d92b2dc8187414f6734718563898740c0bc",
        "gas": "0x17508",
        "value": "0x0",
        "input": "0x20e8c565000000000000000000000000687deb45decb0ff4aa0b2d46725f5d1d5a8e3d220000000000000000000000007f39c581f595b53c5cb19bd0b3f8da6c935e2ca00000000000000000000000000000000000000000000000008c66c04598dcfe2d0000000000000000000000000000000000000000000000000000000000000001",
        "nonce": "0x71",
        "chainId": "0xb8030"
      },
      "additionalContracts": [],
      "isFixedGasLimit": false
    },
    {
      "hash": "0xcd97781653c0186f1a92bf0808145d7558bf0e1a322838c24be0d784be681deb",
      "transactionType": "CALL",
      "contractName": null,
      "contractAddress": "0xe3ffca31bba27392af23b8018bd59c399f843093",
      "function": "swapExactSyForPt(uint256,uint256,address)",
      "arguments": [
        "10116985018084294189",
        "0",
        "0x7FA9385bE102ac3EAc297483Dd6233D62b3e1496"
      ],
      "transaction": {
        "from": "0x687deb45decb0ff4aa0b2d46725f5d1d5a8e3d22",
        "to": "0xe3ffca31bba27392af23b8018bd59c399f843093",
        "gas": "0xb7193",
        "value": "0x0",
        "input": "0x73a888f60000000000000000000000000000000000000000000000008c66c04598dcfe2d00000000000000000000000000000000000000000000000000000000000000000000000000000000000000007fa9385be102ac3eac297483dd6233d62b3e1496",
        "nonce": "0x72",
        "chainId": "0xb8030"
      },
      "additionalContracts": [],
      "isFixedGasLimit": false
    }
  ],
  "receipts": [
    {
      "status": "0x1",
      "cumulativeGasUsed": "0x6804",
      "logs": [
        {
          "address": "0x7f39c581f595b53c5cb19bd0b3f8da6c935e2ca0",
          "topics": [
            "0x8c5be1e5ebec7d5bd14f71427d1e84f3dd0314c0f7b2291e5b200ac8c7c3b925",
            "0x000000000000000000000000687deb45decb0ff4aa0b2d46725f5d1d5a8e3d22",
            "0x000000000000000000000000e3ffca31bba27392af23b8018bd59c399f843093"
          ],
          "data": "0xffffffffffffffffffffffffffffffffffffffffffffffffffffffffffffffff",
          "blockHash": "0x57959dc0e6d883f1205c9a770eccfaa9068b9f3d36290abbd991c4a102cd245e",
          "blockNumber": "0x131a540",
          "transactionHash": "0x443a462844f3e99f5b7abf165be0b1bb6f55e6e08ce28ce4655e9a9c1197d88b",
          "transactionIndex": "0x0",
          "logIndex": "0x0",
          "removed": false
        }
      ],
      "logsBloom": "0x00000000000000000000001000000000000000000000000000000000000000000000000000000000000000000000000000000020000000000000000000200000000000000000002000000000000000000000000000000000000000000000000000000000000000000000000000000000000000000020000000000000000000000000000000000000000080000000000000000000000000000000000000000000020000000000002000000000000000000000000000000000000000000000000000000000000000100000000000000000000000000000000000000000200000000010000000000000000000008000000000000000000000000000000000000000",
      "type": "0x2",
      "transactionHash": "0x443a462844f3e99f5b7abf165be0b1bb6f55e6e08ce28ce4655e9a9c1197d88b",
      "transactionIndex": "0x0",
      "blockHash": "0x57959dc0e6d883f1205c9a770eccfaa9068b9f3d36290abbd991c4a102cd245e",
      "blockNumber": "0x131a540",
      "gasUsed": "0x6804",
      "effectiveGasPrice": "0x3",
      "blobGasUsed": "0x0",
      "from": "0x687deb45decb0ff4aa0b2d46725f5d1d5a8e3d22",
      "to": "0x7f39c581f595b53c5cb19bd0b3f8da6c935e2ca0",
      "contractAddress": null
    },
    {
      "status": "0x1",
      "cumulativeGasUsed": "0x6804",
      "logs": [
        {
          "address": "0x7f39c581f595b53c5cb19bd0b3f8da6c935e2ca0",
          "topics": [
            "0x8c5be1e5ebec7d5bd14f71427d1e84f3dd0314c0f7b2291e5b200ac8c7c3b925",
            "0x000000000000000000000000687deb45decb0ff4aa0b2d46725f5d1d5a8e3d22",
            "0x000000000000000000000000cbc72d92b2dc8187414f6734718563898740c0bc"
          ],
          "data": "0xffffffffffffffffffffffffffffffffffffffffffffffffffffffffffffffff",
          "blockHash": "0xd6dc0c4359504d612188c3e7316ede2b6197c75a5e6a2b64bde942aead6d249b",
          "blockNumber": "0x131a541",
          "transactionHash": "0x904af71d67cc543532295793f33cf29bfa5746179a9de882d72028f13da92352",
          "transactionIndex": "0x0",
          "logIndex": "0x0",
          "removed": false
        }
      ],
      "logsBloom": "0x00000000000000000000000000000000000000001000000000000000000000000000000000000000000000000000000000000000000000000000000000200000000000000000002000000000000000000000000000000000000000000000000000000000000000000000000000000001000000000020000000000000000000000000000000000000000080000000000000000000000000000000000000000000020000000000000000000000000000000000000000000000000000000000000000000000000000100000000000000400000000000000000000000000200000000010000000000000000000008000000000000000000000000000000000000000",
      "type": "0x2",
      "transactionHash": "0x904af71d67cc543532295793f33cf29bfa5746179a9de882d72028f13da92352",
      "transactionIndex": "0x0",
      "blockHash": "0xd6dc0c4359504d612188c3e7316ede2b6197c75a5e6a2b64bde942aead6d249b",
      "blockNumber": "0x131a541",
      "gasUsed": "0x6804",
      "effectiveGasPrice": "0x3",
      "blobGasUsed": "0x0",
      "from": "0x687deb45decb0ff4aa0b2d46725f5d1d5a8e3d22",
      "to": "0x7f39c581f595b53c5cb19bd0b3f8da6c935e2ca0",
      "contractAddress": null
    },
    {
      "status": "0x1",
      "cumulativeGasUsed": "0x685b",
      "logs": [
        {
          "address": "0xcbc72d92b2dc8187414f6734718563898740c0bc",
          "topics": [
            "0x8c5be1e5ebec7d5bd14f71427d1e84f3dd0314c0f7b2291e5b200ac8c7c3b925",
            "0x000000000000000000000000687deb45decb0ff4aa0b2d46725f5d1d5a8e3d22",
            "0x000000000000000000000000e3ffca31bba27392af23b8018bd59c399f843093"
          ],
          "data": "0xffffffffffffffffffffffffffffffffffffffffffffffffffffffffffffffff",
          "blockHash": "0x60b8d74610cd16f57e103c56c2bc84442d56e116f6633c8a6e4bfc3951c43360",
          "blockNumber": "0x131a542",
          "transactionHash": "0xea781e1965a0f6c5b5c979bd1f1152d4e32bea00e59b2a2fcd0b34f1625da80d",
          "transactionIndex": "0x0",
          "logIndex": "0x0",
          "removed": false
        }
      ],
      "logsBloom": "0x00000000000000000000001000000000000000000000000000000000000000000000000000000000000000000002000000000020000000000000000000200000000000000000002000000000000000000000000000000000000000000000000000000000000000000040000000000000000000000020000000000000000000000000000000000000000000000000000000000000000000000000000000000000020000000000002000000000000000100000000000000000000000000000000000000000000000000000000000000000000000000000000000000000200000000010000000000000000000000000000000000000000000000000000000000000",
      "type": "0x2",
      "transactionHash": "0xea781e1965a0f6c5b5c979bd1f1152d4e32bea00e59b2a2fcd0b34f1625da80d",
      "transactionIndex": "0x0",
      "blockHash": "0x60b8d74610cd16f57e103c56c2bc84442d56e116f6633c8a6e4bfc3951c43360",
      "blockNumber": "0x131a542",
      "gasUsed": "0x685b",
      "effectiveGasPrice": "0x3",
      "blobGasUsed": "0x0",
      "from": "0x687deb45decb0ff4aa0b2d46725f5d1d5a8e3d22",
      "to": "0xcbc72d92b2dc8187414f6734718563898740c0bc",
      "contractAddress": null
    },
    {
      "status": "0x1",
      "cumulativeGasUsed": "0x682f",
      "logs": [
        {
          "address": "0xf99985822fb361117fcf3768d34a6353e6022f5f",
          "topics": [
            "0x8c5be1e5ebec7d5bd14f71427d1e84f3dd0314c0f7b2291e5b200ac8c7c3b925",
            "0x000000000000000000000000687deb45decb0ff4aa0b2d46725f5d1d5a8e3d22",
            "0x000000000000000000000000e3ffca31bba27392af23b8018bd59c399f843093"
          ],
          "data": "0xffffffffffffffffffffffffffffffffffffffffffffffffffffffffffffffff",
          "blockHash": "0xf3616ea0b1ec1dfbb0ab5ad1b14a3e30e5356ada19c609c9dbdc8dcef92b5bcd",
          "blockNumber": "0x131a543",
          "transactionHash": "0x00f8e2dbc3e8e4dc41f5efe3ba1c1abd372ef28348e7b9140a32135ff7d3b750",
          "transactionIndex": "0x0",
          "logIndex": "0x0",
          "removed": false
        }
      ],
      "logsBloom": "0x00000000000000000000001000000000000000000000000000000000000000000000000000000000000000000000000000000020000000000000000000200000000000000000002000000000000000000000000000000000000000000000000000000020000000000000000000000000000000000020000000000000000000000000000000000000000000000800000000000000000000000000000000000000020000000000002000000200000000000000000000000000000000000000000000000000000000000000000000000000000000000000000000000000200000000010000000000000000000000000000000000000000000000000000000000000",
      "type": "0x2",
      "transactionHash": "0x00f8e2dbc3e8e4dc41f5efe3ba1c1abd372ef28348e7b9140a32135ff7d3b750",
      "transactionIndex": "0x0",
      "blockHash": "0xf3616ea0b1ec1dfbb0ab5ad1b14a3e30e5356ada19c609c9dbdc8dcef92b5bcd",
      "blockNumber": "0x131a543",
      "gasUsed": "0x682f",
      "effectiveGasPrice": "0x3",
      "blobGasUsed": "0x0",
      "from": "0x687deb45decb0ff4aa0b2d46725f5d1d5a8e3d22",
      "to": "0xf99985822fb361117fcf3768d34a6353e6022f5f",
      "contractAddress": null
    },
    {
      "status": "0x1",
      "cumulativeGasUsed": "0xff11",
      "logs": [
        {
          "address": "0x7f39c581f595b53c5cb19bd0b3f8da6c935e2ca0",
          "topics": [
            "0xddf252ad1be2c89b69c2b068fc378daa952ba7f163c4a11628f55a4df523b3ef",
            "0x000000000000000000000000687deb45decb0ff4aa0b2d46725f5d1d5a8e3d22",
            "0x000000000000000000000000cbc72d92b2dc8187414f6734718563898740c0bc"
          ],
          "data": "0x0000000000000000000000000000000000000000000000008c66c04598dcfe2d",
          "blockHash": "0xf2b0224458a0c641ea1a9364eb00f9bb39a87aaeda90305d8fde7fe1b5541a78",
          "blockNumber": "0x131a544",
          "transactionHash": "0xfcadb5322be2009e39147beb18a54882ccb710e2d46b2e5dcf7fb8c092e61ad1",
          "transactionIndex": "0x0",
          "logIndex": "0x0",
          "removed": false
        },
        {
          "address": "0x7f39c581f595b53c5cb19bd0b3f8da6c935e2ca0",
          "topics": [
            "0x8c5be1e5ebec7d5bd14f71427d1e84f3dd0314c0f7b2291e5b200ac8c7c3b925",
            "0x000000000000000000000000687deb45decb0ff4aa0b2d46725f5d1d5a8e3d22",
            "0x000000000000000000000000cbc72d92b2dc8187414f6734718563898740c0bc"
          ],
          "data": "0xffffffffffffffffffffffffffffffffffffffffffffffff73993fba672301d2",
          "blockHash": "0xf2b0224458a0c641ea1a9364eb00f9bb39a87aaeda90305d8fde7fe1b5541a78",
          "blockNumber": "0x131a544",
          "transactionHash": "0xfcadb5322be2009e39147beb18a54882ccb710e2d46b2e5dcf7fb8c092e61ad1",
          "transactionIndex": "0x0",
          "logIndex": "0x1",
          "removed": false
        },
        {
          "address": "0xcbc72d92b2dc8187414f6734718563898740c0bc",
          "topics": [
            "0xddf252ad1be2c89b69c2b068fc378daa952ba7f163c4a11628f55a4df523b3ef",
            "0x0000000000000000000000000000000000000000000000000000000000000000",
            "0x000000000000000000000000687deb45decb0ff4aa0b2d46725f5d1d5a8e3d22"
          ],
          "data": "0x0000000000000000000000000000000000000000000000008c66c04598dcfe2d",
          "blockHash": "0xf2b0224458a0c641ea1a9364eb00f9bb39a87aaeda90305d8fde7fe1b5541a78",
          "blockNumber": "0x131a544",
          "transactionHash": "0xfcadb5322be2009e39147beb18a54882ccb710e2d46b2e5dcf7fb8c092e61ad1",
          "transactionIndex": "0x0",
          "logIndex": "0x2",
          "removed": false
        },
        {
          "address": "0xcbc72d92b2dc8187414f6734718563898740c0bc",
          "topics": [
            "0x5fe47ed6d4225326d3303476197d782ded5a4e9c14f479dc9ec4992af4e85d59",
            "0x000000000000000000000000687deb45decb0ff4aa0b2d46725f5d1d5a8e3d22",
            "0x000000000000000000000000687deb45decb0ff4aa0b2d46725f5d1d5a8e3d22",
            "0x0000000000000000000000007f39c581f595b53c5cb19bd0b3f8da6c935e2ca0"
          ],
          "data": "0x0000000000000000000000000000000000000000000000008c66c04598dcfe2d0000000000000000000000000000000000000000000000008c66c04598dcfe2d",
          "blockHash": "0xf2b0224458a0c641ea1a9364eb00f9bb39a87aaeda90305d8fde7fe1b5541a78",
          "blockNumber": "0x131a544",
          "transactionHash": "0xfcadb5322be2009e39147beb18a54882ccb710e2d46b2e5dcf7fb8c092e61ad1",
          "transactionIndex": "0x0",
          "logIndex": "0x3",
          "removed": false
        }
      ],
      "logsBloom": "0x00000000000000000000000000000000000000001000000000000000000000000000000000000000000000000002000000000000010000000000000000200000000000000000002000000008000000000000000000000000080000000000000000000000020000000040000000000801000000000020000000000010000000000000000010000000000080000000000000000000000000000000000000002000020000000000000000000000000000100000000000000000000000000000000000000002000000100000000000000480000000000000000000000000200020000010000000000000000000008000000000000000004000000000000000000000",
      "type": "0x2",
      "transactionHash": "0xfcadb5322be2009e39147beb18a54882ccb710e2d46b2e5dcf7fb8c092e61ad1",
      "transactionIndex": "0x0",
      "blockHash": "0xf2b0224458a0c641ea1a9364eb00f9bb39a87aaeda90305d8fde7fe1b5541a78",
      "blockNumber": "0x131a544",
      "gasUsed": "0xff11",
      "effectiveGasPrice": "0x3",
      "blobGasUsed": "0x0",
      "from": "0x687deb45decb0ff4aa0b2d46725f5d1d5a8e3d22",
      "to": "0xcbc72d92b2dc8187414f6734718563898740c0bc",
      "contractAddress": null
    },
    {
      "status": "0x1",
      "cumulativeGasUsed": "0x6858",
      "logs": [
        {
          "address": "0xf3abc972a0f537c1119c990d422463b93227cd83",
          "topics": [
            "0x8c5be1e5ebec7d5bd14f71427d1e84f3dd0314c0f7b2291e5b200ac8c7c3b925",
            "0x000000000000000000000000687deb45decb0ff4aa0b2d46725f5d1d5a8e3d22",
            "0x000000000000000000000000e3ffca31bba27392af23b8018bd59c399f843093"
          ],
          "data": "0xffffffffffffffffffffffffffffffffffffffffffffffffffffffffffffffff",
          "blockHash": "0xcbef16b144ca71645e6458237aea2787c8e30ecbf58b1b167717205b21e2e4b5",
          "blockNumber": "0x131a545",
          "transactionHash": "0x069e08b49375bf6711a467eea2c4a81cde5884f0fdf815f04f8bf98f326abca6",
          "transactionIndex": "0x0",
          "logIndex": "0x0",
          "removed": false
        }
      ],
      "logsBloom": "0x00000000000000000000001000000000000000000000000000000000000000000000000000000000000000000000000000000020000000000000000000200000000000000000002000000000000000000000000000000000000000000000000000010000000000000000000000000000000000000020000000000000000000000000000000000000000000000000000000000000000000000000000000000000020000000000002000000000000000000000000000000000000000000000000000000000000000000000000000000000000000000000000000000000200000000010000000000000000000000000000000000000000000010080000000000000",
      "type": "0x2",
      "transactionHash": "0x069e08b49375bf6711a467eea2c4a81cde5884f0fdf815f04f8bf98f326abca6",
      "transactionIndex": "0x0",
      "blockHash": "0xcbef16b144ca71645e6458237aea2787c8e30ecbf58b1b167717205b21e2e4b5",
      "blockNumber": "0x131a545",
      "gasUsed": "0x6858",
      "effectiveGasPrice": "0x3",
      "blobGasUsed": "0x0",
      "from": "0x687deb45decb0ff4aa0b2d46725f5d1d5a8e3d22",
      "to": "0xf3abc972a0f537c1119c990d422463b93227cd83",
      "contractAddress": null
    },
    {
      "status": "0x1",
      "cumulativeGasUsed": "0x9fa08",
      "logs": [
        {
          "address": "0xf3abc972a0f537c1119c990d422463b93227cd83",
          "topics": [
            "0x71475f2f645813fdbebf53a58968008bff11ee21a58f01c5a9cc263d0bc4703d",
            "0x000000000000000000000000000000000000000000000000104d893461b5f518"
          ],
          "data": "0x",
          "blockHash": "0x6057322783fd90e786fa8032defbf4af2c8486efab3a236edb86836bb13cf0b0",
          "blockNumber": "0x131a546",
          "transactionHash": "0xcd97781653c0186f1a92bf0808145d7558bf0e1a322838c24be0d784be681deb",
          "transactionIndex": "0x0",
          "logIndex": "0x0",
          "removed": false
        },
        {
          "address": "0xf99985822fb361117fcf3768d34a6353e6022f5f",
          "topics": [
            "0xddf252ad1be2c89b69c2b068fc378daa952ba7f163c4a11628f55a4df523b3ef",
            "0x000000000000000000000000e3ffca31bba27392af23b8018bd59c399f843093",
            "0x0000000000000000000000007fa9385be102ac3eac297483dd6233d62b3e1496"
          ],
          "data": "0x000000000000000000000000000000000000000000000000aec1489dcbaff6b0",
          "blockHash": "0x6057322783fd90e786fa8032defbf4af2c8486efab3a236edb86836bb13cf0b0",
          "blockNumber": "0x131a546",
          "transactionHash": "0xcd97781653c0186f1a92bf0808145d7558bf0e1a322838c24be0d784be681deb",
          "transactionIndex": "0x0",
          "logIndex": "0x1",
          "removed": false
        },
        {
          "address": "0xcbc72d92b2dc8187414f6734718563898740c0bc",
          "topics": [
            "0xddf252ad1be2c89b69c2b068fc378daa952ba7f163c4a11628f55a4df523b3ef",
            "0x000000000000000000000000687deb45decb0ff4aa0b2d46725f5d1d5a8e3d22",
            "0x000000000000000000000000e3ffca31bba27392af23b8018bd59c399f843093"
          ],
          "data": "0x0000000000000000000000000000000000000000000000008c66c04598dcfe2d",
          "blockHash": "0x6057322783fd90e786fa8032defbf4af2c8486efab3a236edb86836bb13cf0b0",
          "blockNumber": "0x131a546",
          "transactionHash": "0xcd97781653c0186f1a92bf0808145d7558bf0e1a322838c24be0d784be681deb",
          "transactionIndex": "0x0",
          "logIndex": "0x2",
          "removed": false
        },
        {
          "address": "0xe3ffca31bba27392af23b8018bd59c399f843093",
          "topics": [
            "0xd4dbfaa7c0fe51eee24a1cdcafd0378cd3652cdba735dfc4b061aa55c2a458a5",
            "0x0000000000000000000000007fa9385be102ac3eac297483dd6233d62b3e1496",
            "0x000000000000000000000000cbc72d92b2dc8187414f6734718563898740c0bc",
            "0x000000000000000000000000f99985822fb361117fcf3768d34a6353e6022f5f"
          ],
          "data": "0x000000000000000000000000687deb45decb0ff4aa0b2d46725f5d1d5a8e3d220000000000000000000000000000000000000000000000008c66c04598dcfe2d000000000000000000000000000000000000000000000000aec1489dcbaff6b000000000000000000000000000000000000000000000000000094c8cc269d710",
          "blockHash": "0x6057322783fd90e786fa8032defbf4af2c8486efab3a236edb86836bb13cf0b0",
          "blockNumber": "0x131a546",
          "transactionHash": "0xcd97781653c0186f1a92bf0808145d7558bf0e1a322838c24be0d784be681deb",
          "transactionIndex": "0x0",
          "logIndex": "0x3",
          "removed": false
        }
      ],
      "logsBloom": "0x00000000000000000000001000000000010000001000000000000000000000000000000000000000000000000002000000000020000000000000000000000000000000000000002000000008000000000008000400002000000000000000040000010020000000000040000004000001000000000020000000000010000002000000000000040100000000000800400000000000000000000000000000000000000000000000003000000300000000100000000000000000000000000040000000000002000000000000000000200400000000000000000000000000200000000000008400000000000000000000000000800000000000010080000020000000",
      "type": "0x2",
      "transactionHash": "0xcd97781653c0186f1a92bf0808145d7558bf0e1a322838c24be0d784be681deb",
      "transactionIndex": "0x0",
      "blockHash": "0x6057322783fd90e786fa8032defbf4af2c8486efab3a236edb86836bb13cf0b0",
      "blockNumber": "0x131a546",
      "gasUsed": "0x9fa08",
      "effectiveGasPrice": "0x3",
      "blobGasUsed": "0x0",
      "from": "0x687deb45decb0ff4aa0b2d46725f5d1d5a8e3d22",
      "to": "0xe3ffca31bba27392af23b8018bd59c399f843093",
      "contractAddress": null
    }
  ],
  "libraries": [],
  "pending": [],
  "returns": {},
  "timestamp": 1718911779,
  "chain": 753712,
  "commit": "937591a"
}